{
    "abi": [
        {
            "type": "constructor",
            "inputs": [
                {
                    "name": "_initialOwner",
                    "type": "address",
                    "internalType": "address"
                }
            ],
            "stateMutability": "nonpayable"
        },
        {
            "type": "function",
            "name": "BURNER_ROLE",
            "inputs": [],
            "outputs": [
                {
                    "name": "",
                    "type": "bytes32",
                    "internalType": "bytes32"
                }
            ],
            "stateMutability": "view"
        },
        {
            "type": "function",
            "name": "DEFAULT_ADMIN_ROLE",
            "inputs": [],
            "outputs": [
                {
                    "name": "",
                    "type": "bytes32",
                    "internalType": "bytes32"
                }
            ],
            "stateMutability": "view"
        },
        {
            "type": "function",
            "name": "INITIAL_SUPPLY",
            "inputs": [],
            "outputs": [
                {
                    "name": "",
                    "type": "uint256",
                    "internalType": "uint256"
                }
            ],
            "stateMutability": "view"
        },
        {
            "type": "function",
            "name": "MINTER_ROLE",
            "inputs": [],
            "outputs": [
                {
                    "name": "",
                    "type": "bytes32",
                    "internalType": "bytes32"
                }
            ],
            "stateMutability": "view"
        },
        {
            "type": "function",
            "name": "allowance",
            "inputs": [
                {
                    "name": "owner",
                    "type": "address",
                    "internalType": "address"
                },
                {
                    "name": "spender",
                    "type": "address",
                    "internalType": "address"
                }
            ],
            "outputs": [
                {
                    "name": "",
                    "type": "uint256",
                    "internalType": "uint256"
                }
            ],
            "stateMutability": "view"
        },
        {
            "type": "function",
            "name": "approve",
            "inputs": [
                {
                    "name": "spender",
                    "type": "address",
                    "internalType": "address"
                },
                {
                    "name": "value",
                    "type": "uint256",
                    "internalType": "uint256"
                }
            ],
            "outputs": [
                {
                    "name": "",
                    "type": "bool",
                    "internalType": "bool"
                }
            ],
            "stateMutability": "nonpayable"
        },
        {
            "type": "function",
            "name": "balanceOf",
            "inputs": [
                {
                    "name": "account",
                    "type": "address",
                    "internalType": "address"
                }
            ],
            "outputs": [
                {
                    "name": "",
                    "type": "uint256",
                    "internalType": "uint256"
                }
            ],
            "stateMutability": "view"
        },
        {
            "type": "function",
            "name": "burn",
            "inputs": [
                {
                    "name": "amount",
                    "type": "uint256",
                    "internalType": "uint256"
                }
            ],
            "outputs": [],
            "stateMutability": "nonpayable"
        },
        {
            "type": "function",
            "name": "burnForOperation",
            "inputs": [
                {
                    "name": "from",
                    "type": "address",
                    "internalType": "address"
                },
                {
                    "name": "amount",
                    "type": "uint256",
                    "internalType": "uint256"
                },
                {
                    "name": "reason",
                    "type": "string",
                    "internalType": "string"
                }
            ],
            "outputs": [],
            "stateMutability": "nonpayable"
        },
        {
            "type": "function",
            "name": "burnFrom",
            "inputs": [
                {
                    "name": "account",
                    "type": "address",
                    "internalType": "address"
                },
                {
                    "name": "amount",
                    "type": "uint256",
                    "internalType": "uint256"
                }
            ],
            "outputs": [],
            "stateMutability": "nonpayable"
        },
        {
            "type": "function",
            "name": "burnRate",
            "inputs": [],
            "outputs": [
                {
                    "name": "",
                    "type": "uint256",
                    "internalType": "uint256"
                }
            ],
            "stateMutability": "view"
        },
        {
            "type": "function",
            "name": "circulatingSupply",
            "inputs": [],
            "outputs": [
                {
                    "name": "",
                    "type": "uint256",
                    "internalType": "uint256"
                }
            ],
            "stateMutability": "view"
        },
        {
            "type": "function",
            "name": "decimals",
            "inputs": [],
            "outputs": [
                {
                    "name": "",
                    "type": "uint8",
                    "internalType": "uint8"
                }
            ],
            "stateMutability": "view"
        },
        {
            "type": "function",
            "name": "getRoleAdmin",
            "inputs": [
                {
                    "name": "role",
                    "type": "bytes32",
                    "internalType": "bytes32"
                }
            ],
            "outputs": [
                {
                    "name": "",
                    "type": "bytes32",
                    "internalType": "bytes32"
                }
            ],
            "stateMutability": "view"
        },
        {
            "type": "function",
            "name": "grantRole",
            "inputs": [
                {
                    "name": "role",
                    "type": "bytes32",
                    "internalType": "bytes32"
                },
                {
                    "name": "account",
                    "type": "address",
                    "internalType": "address"
                }
            ],
            "outputs": [],
            "stateMutability": "nonpayable"
        },
        {
            "type": "function",
            "name": "hasRole",
            "inputs": [
                {
                    "name": "role",
                    "type": "bytes32",
                    "internalType": "bytes32"
                },
                {
                    "name": "account",
                    "type": "address",
                    "internalType": "address"
                }
            ],
            "outputs": [
                {
                    "name": "",
                    "type": "bool",
                    "internalType": "bool"
                }
            ],
            "stateMutability": "view"
        },
        {
            "type": "function",
            "name": "mint",
            "inputs": [
                {
                    "name": "to",
                    "type": "address",
                    "internalType": "address"
                },
                {
                    "name": "amount",
                    "type": "uint256",
                    "internalType": "uint256"
                }
            ],
            "outputs": [],
            "stateMutability": "nonpayable"
        },
        {
            "type": "function",
            "name": "name",
            "inputs": [],
            "outputs": [
                {
                    "name": "",
                    "type": "string",
                    "internalType": "string"
                }
            ],
            "stateMutability": "view"
        },
        {
            "type": "function",
            "name": "owner",
            "inputs": [],
            "outputs": [
                {
                    "name": "",
                    "type": "address",
                    "internalType": "address"
                }
            ],
            "stateMutability": "view"
        },
        {
            "type": "function",
            "name": "renounceOwnership",
            "inputs": [],
            "outputs": [],
            "stateMutability": "nonpayable"
        },
        {
            "type": "function",
            "name": "renounceRole",
            "inputs": [
                {
                    "name": "role",
                    "type": "bytes32",
                    "internalType": "bytes32"
                },
                {
                    "name": "callerConfirmation",
                    "type": "address",
                    "internalType": "address"
                }
            ],
            "outputs": [],
            "stateMutability": "nonpayable"
        },
        {
            "type": "function",
            "name": "revokeRole",
            "inputs": [
                {
                    "name": "role",
                    "type": "bytes32",
                    "internalType": "bytes32"
                },
                {
                    "name": "account",
                    "type": "address",
                    "internalType": "address"
                }
            ],
            "outputs": [],
            "stateMutability": "nonpayable"
        },
        {
            "type": "function",
            "name": "setTransfersPaused",
            "inputs": [
                {
                    "name": "_paused",
                    "type": "bool",
                    "internalType": "bool"
                }
            ],
            "outputs": [],
            "stateMutability": "nonpayable"
        },
        {
            "type": "function",
            "name": "supportsInterface",
            "inputs": [
                {
                    "name": "interfaceId",
                    "type": "bytes4",
                    "internalType": "bytes4"
                }
            ],
            "outputs": [
                {
                    "name": "",
                    "type": "bool",
                    "internalType": "bool"
                }
            ],
            "stateMutability": "view"
        },
        {
            "type": "function",
            "name": "symbol",
            "inputs": [],
            "outputs": [
                {
                    "name": "",
                    "type": "string",
                    "internalType": "string"
                }
            ],
            "stateMutability": "view"
        },
        {
            "type": "function",
            "name": "totalBurned",
            "inputs": [],
            "outputs": [
                {
                    "name": "",
                    "type": "uint256",
                    "internalType": "uint256"
                }
            ],
            "stateMutability": "view"
        },
        {
            "type": "function",
            "name": "totalSupply",
            "inputs": [],
            "outputs": [
                {
                    "name": "",
                    "type": "uint256",
                    "internalType": "uint256"
                }
            ],
            "stateMutability": "view"
        },
        {
            "type": "function",
            "name": "transfer",
            "inputs": [
                {
                    "name": "to",
                    "type": "address",
                    "internalType": "address"
                },
                {
                    "name": "value",
                    "type": "uint256",
                    "internalType": "uint256"
                }
            ],
            "outputs": [
                {
                    "name": "",
                    "type": "bool",
                    "internalType": "bool"
                }
            ],
            "stateMutability": "nonpayable"
        },
        {
            "type": "function",
            "name": "transferFrom",
            "inputs": [
                {
                    "name": "from",
                    "type": "address",
                    "internalType": "address"
                },
                {
                    "name": "to",
                    "type": "address",
                    "internalType": "address"
                },
                {
                    "name": "value",
                    "type": "uint256",
                    "internalType": "uint256"
                }
            ],
            "outputs": [
                {
                    "name": "",
                    "type": "bool",
                    "internalType": "bool"
                }
            ],
            "stateMutability": "nonpayable"
        },
        {
            "type": "function",
            "name": "transferOwnership",
            "inputs": [
                {
                    "name": "newOwner",
                    "type": "address",
                    "internalType": "address"
                }
            ],
            "outputs": [],
            "stateMutability": "nonpayable"
        },
        {
            "type": "function",
            "name": "transfersPaused",
            "inputs": [],
            "outputs": [
                {
                    "name": "",
                    "type": "bool",
                    "internalType": "bool"
                }
            ],
            "stateMutability": "view"
        },
        {
            "type": "event",
            "name": "Approval",
            "inputs": [
                {
                    "name": "owner",
                    "type": "address",
                    "indexed": true,
                    "internalType": "address"
                },
                {
                    "name": "spender",
                    "type": "address",
                    "indexed": true,
                    "internalType": "address"
                },
                {
                    "name": "value",
                    "type": "uint256",
                    "indexed": false,
                    "internalType": "uint256"
                }
            ],
            "anonymous": false
        },
        {
            "type": "event",
            "name": "OwnershipTransferred",
            "inputs": [
                {
                    "name": "previousOwner",
                    "type": "address",
                    "indexed": true,
                    "internalType": "address"
                },
                {
                    "name": "newOwner",
                    "type": "address",
                    "indexed": true,
                    "internalType": "address"
                }
            ],
            "anonymous": false
        },
        {
            "type": "event",
            "name": "RoleAdminChanged",
            "inputs": [
                {
                    "name": "role",
                    "type": "bytes32",
                    "indexed": true,
                    "internalType": "bytes32"
                },
                {
                    "name": "previousAdminRole",
                    "type": "bytes32",
                    "indexed": true,
                    "internalType": "bytes32"
                },
                {
                    "name": "newAdminRole",
                    "type": "bytes32",
                    "indexed": true,
                    "internalType": "bytes32"
                }
            ],
            "anonymous": false
        },
        {
            "type": "event",
            "name": "RoleGranted",
            "inputs": [
                {
                    "name": "role",
                    "type": "bytes32",
                    "indexed": true,
                    "internalType": "bytes32"
                },
                {
                    "name": "account",
                    "type": "address",
                    "indexed": true,
                    "internalType": "address"
                },
                {
                    "name": "sender",
                    "type": "address",
                    "indexed": true,
                    "internalType": "address"
                }
            ],
            "anonymous": false
        },
        {
            "type": "event",
            "name": "RoleRevoked",
            "inputs": [
                {
                    "name": "role",
                    "type": "bytes32",
                    "indexed": true,
                    "internalType": "bytes32"
                },
                {
                    "name": "account",
                    "type": "address",
                    "indexed": true,
                    "internalType": "address"
                },
                {
                    "name": "sender",
                    "type": "address",
                    "indexed": true,
                    "internalType": "address"
                }
            ],
            "anonymous": false
        },
        {
            "type": "event",
            "name": "TokensBurned",
            "inputs": [
                {
                    "name": "from",
                    "type": "address",
                    "indexed": true,
                    "internalType": "address"
                },
                {
                    "name": "amount",
                    "type": "uint256",
                    "indexed": false,
                    "internalType": "uint256"
                },
                {
                    "name": "reason",
                    "type": "string",
                    "indexed": false,
                    "internalType": "string"
                }
            ],
            "anonymous": false
        },
        {
            "type": "event",
            "name": "Transfer",
            "inputs": [
                {
                    "name": "from",
                    "type": "address",
                    "indexed": true,
                    "internalType": "address"
                },
                {
                    "name": "to",
                    "type": "address",
                    "indexed": true,
                    "internalType": "address"
                },
                {
                    "name": "value",
                    "type": "uint256",
                    "indexed": false,
                    "internalType": "uint256"
                }
            ],
            "anonymous": false
        },
        {
            "type": "event",
            "name": "TransfersPaused",
            "inputs": [
                {
                    "name": "paused",
                    "type": "bool",
                    "indexed": false,
                    "internalType": "bool"
                }
            ],
            "anonymous": false
        },
        {
            "type": "error",
            "name": "AccessControlBadConfirmation",
            "inputs": []
        },
        {
            "type": "error",
            "name": "AccessControlUnauthorizedAccount",
            "inputs": [
                {
                    "name": "account",
                    "type": "address",
                    "internalType": "address"
                },
                {
                    "name": "neededRole",
                    "type": "bytes32",
                    "internalType": "bytes32"
                }
            ]
        },
        {
            "type": "error",
            "name": "ERC20InsufficientAllowance",
            "inputs": [
                {
                    "name": "spender",
                    "type": "address",
                    "internalType": "address"
                },
                {
                    "name": "allowance",
                    "type": "uint256",
                    "internalType": "uint256"
                },
                {
                    "name": "needed",
                    "type": "uint256",
                    "internalType": "uint256"
                }
            ]
        },
        {
            "type": "error",
            "name": "ERC20InsufficientBalance",
            "inputs": [
                {
                    "name": "sender",
                    "type": "address",
                    "internalType": "address"
                },
                {
                    "name": "balance",
                    "type": "uint256",
                    "internalType": "uint256"
                },
                {
                    "name": "needed",
                    "type": "uint256",
                    "internalType": "uint256"
                }
            ]
        },
        {
            "type": "error",
            "name": "ERC20InvalidApprover",
            "inputs": [
                {
                    "name": "approver",
                    "type": "address",
                    "internalType": "address"
                }
            ]
        },
        {
            "type": "error",
            "name": "ERC20InvalidReceiver",
            "inputs": [
                {
                    "name": "receiver",
                    "type": "address",
                    "internalType": "address"
                }
            ]
        },
        {
            "type": "error",
            "name": "ERC20InvalidSender",
            "inputs": [
                {
                    "name": "sender",
                    "type": "address",
                    "internalType": "address"
                }
            ]
        },
        {
            "type": "error",
            "name": "ERC20InvalidSpender",
            "inputs": [
                {
                    "name": "spender",
                    "type": "address",
                    "internalType": "address"
                }
            ]
        },
        {
            "type": "error",
            "name": "OwnableInvalidOwner",
            "inputs": [
                {
                    "name": "owner",
                    "type": "address",
                    "internalType": "address"
                }
            ]
        },
        {
            "type": "error",
            "name": "OwnableUnauthorizedAccount",
            "inputs": [
                {
                    "name": "account",
                    "type": "address",
                    "internalType": "address"
                }
            ]
        },
        {
            "type": "error",
            "name": "TransfersPausedError",
            "inputs": []
        },
        {
            "type": "error",
            "name": "ZeroAddress",
            "inputs": []
        }
    ],
    "bytecode": {
        "object": "0x6080346200046157620017fb9081380390601f19601f818185011683019460018060401b0394848710868811176200036b57808592604098895283396020948591810103126200046157516001600160a01b038082169586830362000461576200006862000465565b93600b85526a21b0b93937ba2a37b5b2b760a91b878601526200008a62000465565b906003918281526210d49560ea1b8982015286518481116200036b5783546001988982811c9216801562000456575b8c83101462000442578b8286859411620003ec575b50508b908583116001146200038b575f926200037f575b50505f1982861b1c191690881b1783555b80519384116200036b5760049788548881811c9116801562000360575b8b8210146200034d57908184879695949311620002f4575b508a9285116001146200029057505f9362000284575b505082861b925f19911b1c19161784555b85156200026e57600580546001600160a01b031981168817909155620001b892918791167f8be0079c531659141344cd1fd0a4f28419497f9722a3daafe3b4186f6b6457e05f80a3620001a58162000485565b50620001b181620004f5565b5062000596565b5060ff60085416908162000265575b816200025c575b506200024e576002546b033b2e3c9fd0803ce8000000918282018092116200023b57506002555f8381528083528481208054830190558451918252917fddf252ad1be2c89b69c2b068fc378daa952ba7f163c4a11628f55a4df523b3ef91a3516111899081620006328239f35b601190634e487b7160e01b5f525260245ffd5b8351630fb95f1d60e31b8152fd5b90505f620001ce565b5f9150620001c7565b8651631e4fbdf760e01b81525f81860152602490fd5b015191505f8062000141565b8895939291931692895f528a5f20935f5b8c828210620002dd5750508511620002c3575b50505050811b01845562000152565b01519060f8845f19921b161c191690555f808080620002b4565b8385015187558b98909601959384019301620002a1565b909192939450895f528a5f208480880160051c8201928d891062000343575b918b91899897969594930160051c01915b828110620003345750506200012b565b5f81558897508b910162000324565b9250819262000313565b60228a634e487b7160e01b5f525260245ffd5b90607f169062000113565b634e487b7160e01b5f52604160045260245ffd5b015190505f80620000e5565b908c918c8c9516885f52835f20935f905b828210620003d45750508411620003bc575b505050811b018355620000f6565b01515f1983881b60f8161c191690555f8080620003ae565b8385015186558e979095019493840193018f6200039c565b90919250865f5285825f209181860160051c830193861062000438575b918c91869594930160051c01915b8281106200042957508d9150620000ce565b5f81558594508c910162000417565b9250819262000409565b634e487b7160e01b5f52602260045260245ffd5b91607f1691620000b9565b5f80fd5b60408051919082016001600160401b038111838210176200036b57604052565b6001600160a01b03165f8181525f80516020620017db833981519152602052604090205460ff16620004f0575f8181525f80516020620017db83398151915260205260408120805460ff191660011790553391905f80516020620017bb8339815191528180a4600190565b505f90565b6001600160a01b03165f8181527f3195c024b2ddd6d9b8f6c836aa52f67fe69376c8903d009b80229b3ce4425f5160205260409020547f9f2df0fed2c77648de5860a4cc508cd0818c85b8b8a1ab4ceeef8d981c8956a6919060ff166200059057815f52600660205260405f20815f5260205260405f20600160ff1982541617905533915f80516020620017bb8339815191525f80a4600190565b50505f90565b6001600160a01b03165f8181527f42d20fd6db25ea5a8e33f43724ad72f2ebd9488257fa78c86176b8175fc383fa60205260409020547f3c11d16cbaffd01df69ce1c404f6340ee057498f5f00246190ea54220576a848919060ff166200059057815f52600660205260405f20815f5260205260405f20600160ff1982541617905533915f80516020620017bb8339815191525f80a460019056fe608060409080825260049081361015610016575f80fd5b5f3560e01c90816301ffc9a714610c6c5750806306fdde0314610b90578063095ea7b314610ae757806318160ddd146105cc57806323b872dd14610aab578063248a9ca314610a80578063282c51f314610a465780632f2ff15d14610a1d5780632ff2e9dc146109f7578063313ce567146109dc57806336568abe1461099757806340c10f191461087757806342966c68146107ff57806344e46dff1461079e5780634563f30a1461077b57806370a0823114610745578063715018a6146106ea57806379cc6790146106575780638da5cb5b1461062f57806391d14854146105ea5780639358928b146105cc57806395d89b41146104ac578063a217fddf14610492578063a9059cbb14610462578063b10e31a914610338578063bed99850146102e4578063d5391393146102aa578063d547741f1461026d578063d89135cd1461024f578063dd62ed3e146102065763f2fde38b14610175575f80fd5b346102025760203660031901126102025761018e610d05565b90610197611063565b6001600160a01b039182169283156101ec575050600554826bffffffffffffffffffffffff60a01b821617600555167f8be0079c531659141344cd1fd0a4f28419497f9722a3daafe3b4186f6b6457e05f80a3005b905f6024925191631e4fbdf760e01b8352820152fd5b5f80fd5b8234610202578060031936011261020257602090610222610d05565b61022a610d1b565b9060018060a01b038091165f5260018452825f2091165f528252805f20549051908152f35b8234610202575f366003190112610202576020906007549051908152f35b5090346102025780600319360112610202576102a891356102a36001610291610d1b565b93835f5260066020525f200154610f31565b610fef565b005b8234610202575f36600319011261020257602090517f9f2df0fed2c77648de5860a4cc508cd0818c85b8b8a1ab4ceeef8d981c8956a68152f35b5034610202575f36600319011261020257600754906127109182810292818404149015171561032557506b033b2e3c9fd0803ce80000006020925191048152f35b601190634e487b7160e01b5f525260245ffd5b50903461020257606036600319011261020257610353610d05565b6024359060443567ffffffffffffffff9485821161020257366023830112156102025781810135958611610202573660248784010111610202577f3c11d16cbaffd01df69ce1c404f6340ee057498f5f00246190ea54220576a848805f526006602052855f20335f5260205260ff865f2054161561044557867ffad31924d655455395c87544c8aa1ffdb5a7505a22a3c2e03f28003b6556a75f87606088888560248a610400858561108f565b61040c85600754610d31565b600755828751978896875280602088015286015201848401375f8287018401526001600160a01b031694601f01601f19168101030190a2005b6044925085519163e2517d3f60e01b835233908301526024820152fd5b823461020257806003193601126102025760209061048b610481610d05565b6024359033610e1f565b5160018152f35b8234610202575f36600319011261020257602090515f8152f35b509034610202575f366003190112610202578051905f835460018160011c90600183169283156105c2575b60209384841081146105af57838852908115610593575060011461053f575b505050829003601f01601f191682019267ffffffffffffffff84118385101761052c5750829182610528925282610cbe565b0390f35b604190634e487b7160e01b5f525260245ffd5b5f878152929350837f8a35acfbc15ff81a39ae7d344fd709f28e8600b4aa8c65c6b64bfe7fe36bd19b5b83851061057f57505050508301015f80806104f6565b805488860183015293019284908201610569565b60ff1916878501525050151560051b84010190505f80806104f6565b602289634e487b7160e01b5f525260245ffd5b91607f16916104d7565b8234610202575f366003190112610202576020906002549051908152f35b509034610202578060031936011261020257602091610607610d1b565b90355f5260068352815f209060018060a01b03165f52825260ff815f20541690519015158152f35b8234610202575f3660031901126102025760055490516001600160a01b039091168152602090f35b82346102025780600319360112610202577ffad31924d655455395c87544c8aa1ffdb5a7505a22a3c2e03f28003b6556a75f6080610693610d05565b6008602435946106a4863385610d52565b6106ae868461108f565b6106ba86600754610d31565b600755805195865260208601819052850152674275726e46726f6d60c01b60608501526001600160a01b031692a2005b34610202575f36600319011261020257610702611063565b600580546001600160a01b031981169091555f906001600160a01b03167f8be0079c531659141344cd1fd0a4f28419497f9722a3daafe3b4186f6b6457e08280a3005b8234610202576020366003190112610202576020906001600160a01b0361076a610d05565b165f525f8252805f20549051908152f35b8234610202575f3660031901126102025760209060ff6008541690519015158152f35b5034610202576020366003190112610202573590811515809203610202577f106877e810194754ee8a95268e27dbd9ad06a13e6cbf2d335b705cbaa88299b9916020916107e9611063565b60ff196008541660ff83161760085551908152a1005b5034610202576020366003190112610202576009903591610820833361108f565b61082c83600754610d31565b6007558051928352806020840152820152682ab9b2b910313ab93760b91b60608201527ffad31924d655455395c87544c8aa1ffdb5a7505a22a3c2e03f28003b6556a75f60803392a2005b509034610202578060031936011261020257610891610d05565b90602435917f9f2df0fed2c77648de5860a4cc508cd0818c85b8b8a1ab4ceeef8d981c8956a6805f526006602052825f20335f5260205260ff835f2054161561097957506001600160a01b03169283156109645760ff600854168061095d575b80610955575b61094757506020827fddf252ad1be2c89b69c2b068fc378daa952ba7f163c4a11628f55a4df523b3ef9261092e5f95600254610d31565b60025585855284835280852082815401905551908152a3005b9051630fb95f1d60e31b8152fd5b5060016108f7565b505f6108f1565b5f602492519163ec442f0560e01b8352820152fd5b825163e2517d3f60e01b815233818701526024810191909152604490fd5b5090346102025780600319360112610202576109b1610d1b565b90336001600160a01b038316036109cd57506102a89135610fef565b5163334bd91960e11b81529050fd5b8234610202575f366003190112610202576020905160128152f35b8234610202575f36600319011261020257602090516b033b2e3c9fd0803ce80000008152f35b5090346102025780600319360112610202576102a89135610a416001610291610d1b565b610f71565b8234610202575f36600319011261020257602090517f3c11d16cbaffd01df69ce1c404f6340ee057498f5f00246190ea54220576a8488152f35b50903461020257602036600319011261020257602091355f52600682526001815f2001549051908152f35b82346102025760603660031901126102025760209061048b610acb610d05565b610ad3610d1b565b60443591610ae2833383610d52565b610e1f565b509034610202578060031936011261020257610b01610d05565b602435903315610b7a576001600160a01b0316908115610b645760209350335f5260018452825f20825f52845280835f205582519081527f8c5be1e5ebec7d5bd14f71427d1e84f3dd0314c0f7b2291e5b200ac8c7c3b925843392a35160018152f35b8251634a1406b160e11b81525f81860152602490fd5b825163e602df0560e01b81525f81860152602490fd5b509034610202575f366003190112610202578051905f60035460018160011c9060018316928315610c62575b60209384841081146105af578388529081156105935750600114610c0c57505050829003601f01601f191682019267ffffffffffffffff84118385101761052c5750829182610528925282610cbe565b60035f908152929350837fc2575a0e9e593c00f959f8c92f12db2869c3395a3b0502d05e2516446f71f85b5b838510610c4e57505050508301015f80806104f6565b805488860183015293019284908201610c38565b91607f1691610bbc565b823461020257602036600319011261020257359063ffffffff60e01b821680920361020257602091637965db0b60e01b8114908115610cad575b5015158152f35b6301ffc9a760e01b14905083610ca6565b602080825282518183018190529093925f5b828110610cf157505060409293505f838284010152601f8019910116010190565b818101860151848201604001528501610cd0565b600435906001600160a01b038216820361020257565b602435906001600160a01b038216820361020257565b91908201809211610d3e57565b634e487b7160e01b5f52601160045260245ffd5b919060018060a01b0380931692835f526001602052604093845f2091831691825f52602052845f2054925f198403610d8d575b505050505050565b848410610def57508015610dd8578115610dc1575f526001602052835f20905f5260205203905f20555f8080808080610d85565b8451634a1406b160e11b81525f6004820152602490fd5b845163e602df0560e01b81525f6004820152602490fd5b8551637dc7a0d960e11b81526001600160a01b039190911660048201526024810184905260448101859052606490fd5b916001600160a01b03808416928315610f195716928315610f015760ff6008541680610ef9575b80610ef1575b610edf57825f525f60205260405f205490828210610ead5750817fddf252ad1be2c89b69c2b068fc378daa952ba7f163c4a11628f55a4df523b3ef92602092855f525f84520360405f2055845f5260405f20818154019055604051908152a3565b60405163391434e360e21b81526001600160a01b03919091166004820152602481019190915260448101829052606490fd5b604051630fb95f1d60e31b8152600490fd5b506001610e4c565b506001610e46565b60405163ec442f0560e01b81525f6004820152602490fd5b604051634b637e8f60e11b81525f6004820152602490fd5b805f52600660205260405f20335f5260205260ff60405f20541615610f535750565b6044906040519063e2517d3f60e01b82523360048301526024820152fd5b90815f52600660205260405f209060018060a01b031690815f5260205260ff60405f205416155f14610fe957815f52600660205260405f20815f5260205260405f20600160ff1982541617905533917f2f8788117e7eff1d82e926ec794901d17c78024a50270940304540a733656f0d5f80a4600190565b50505f90565b90815f52600660205260405f209060018060a01b031690815f5260205260ff60405f2054165f14610fe957815f52600660205260405f20815f5260205260405f2060ff19815416905533917ff6391f5c32d9c69d2a47ea670b442974b53935d1edc7fd64eb21e047a839171b5f80a4600190565b6005546001600160a01b0316330361107757565b60405163118cdaa760e01b8152336004820152602490fd5b91906001600160a01b038316908115610f195760ff600854168061114b575b80611144575b610edf57815f525f60205260405f20549381851061111257506020817fddf252ad1be2c89b69c2b068fc378daa952ba7f163c4a11628f55a4df523b3ef925f95968587528684520360408620558060025403600255604051908152a3565b60405163391434e360e21b81526001600160a01b03919091166004820152602481018590526044810191909152606490fd5b505f6110b4565b5060016110ae56fea26469706673582212203efa7e96950a5fba4241ecf4a782c7e3e1ab5e26655304bf541b467c26d695b264736f6c634300081800332f8788117e7eff1d82e926ec794901d17c78024a50270940304540a733656f0d54cdd369e4e8a8515e52ca72ec816c2101831ad1f18bf44102ed171459c9b4f8",
        "linkReferences": {}
    },
    "methodIdentifiers": {
        "BURNER_ROLE()": "282c51f3",
        "DEFAULT_ADMIN_ROLE()": "a217fddf",
        "INITIAL_SUPPLY()": "2ff2e9dc",
        "MINTER_ROLE()": "d5391393",
        "allowance(address,address)": "dd62ed3e",
        "approve(address,uint256)": "095ea7b3",
        "balanceOf(address)": "70a08231",
        "burn(uint256)": "42966c68",
        "burnForOperation(address,uint256,string)": "b10e31a9",
        "burnFrom(address,uint256)": "79cc6790",
        "burnRate()": "bed99850",
        "circulatingSupply()": "9358928b",
        "decimals()": "313ce567",
        "getRoleAdmin(bytes32)": "248a9ca3",
        "grantRole(bytes32,address)": "2f2ff15d",
        "hasRole(bytes32,address)": "91d14854",
        "mint(address,uint256)": "40c10f19",
        "name()": "06fdde03",
        "owner()": "8da5cb5b",
        "renounceOwnership()": "715018a6",
        "renounceRole(bytes32,address)": "36568abe",
        "revokeRole(bytes32,address)": "d547741f",
        "setTransfersPaused(bool)": "44e46dff",
        "supportsInterface(bytes4)": "01ffc9a7",
        "symbol()": "95d89b41",
        "totalBurned()": "d89135cd",
        "totalSupply()": "18160ddd",
        "transfer(address,uint256)": "a9059cbb",
        "transferFrom(address,address,uint256)": "23b872dd",
        "transferOwnership(address)": "f2fde38b",
        "transfersPaused()": "4563f30a"
    },
    "id": 44
}