{
    "abi": [
        {
            "type": "constructor",
            "inputs": [],
            "stateMutability": "nonpayable"
        },
        {
            "type": "function",
            "name": "BPS_DENOMINATOR",
            "inputs": [],
            "outputs": [
                {
                    "name": "",
                    "type": "uint256",
                    "internalType": "uint256"
                }
            ],
            "stateMutability": "view"
        },
        {
            "type": "function",
            "name": "DEFAULT_POOL_FEE",
            "inputs": [],
            "outputs": [
                {
                    "name": "",
                    "type": "uint24",
                    "internalType": "uint24"
                }
            ],
            "stateMutability": "view"
        },
        {
            "type": "function",
            "name": "DEPOSIT_FEE_CRT_BPS",
            "inputs": [],
            "outputs": [
                {
                    "name": "",
                    "type": "uint256",
                    "internalType": "uint256"
                }
            ],
            "stateMutability": "view"
        },
        {
            "type": "function",
            "name": "DEPOSIT_FEE_USDC_BPS",
            "inputs": [],
            "outputs": [
                {
                    "name": "",
                    "type": "uint256",
                    "internalType": "uint256"
                }
            ],
            "stateMutability": "view"
        },
        {
            "type": "function",
            "name": "MIN_SHARES",
            "inputs": [],
            "outputs": [
                {
                    "name": "",
                    "type": "uint256",
                    "internalType": "uint256"
                }
            ],
            "stateMutability": "view"
        },
        {
            "type": "function",
            "name": "PERFORMANCE_FEE_BPS",
            "inputs": [],
            "outputs": [
                {
                    "name": "",
                    "type": "uint256",
                    "internalType": "uint256"
                }
            ],
            "stateMutability": "view"
        },
        {
            "type": "function",
            "name": "PROTOCOL_PERF_FEE_BPS",
            "inputs": [],
            "outputs": [
                {
                    "name": "",
                    "type": "uint256",
                    "internalType": "uint256"
                }
            ],
            "stateMutability": "view"
        },
        {
            "type": "function",
            "name": "REBALANCE_COST",
            "inputs": [],
            "outputs": [
                {
                    "name": "",
                    "type": "uint256",
                    "internalType": "uint256"
                }
            ],
            "stateMutability": "view"
        },
        {
            "type": "function",
            "name": "STRATEGY_PERF_FEE_BPS",
            "inputs": [],
            "outputs": [
                {
                    "name": "",
                    "type": "uint256",
                    "internalType": "uint256"
                }
            ],
            "stateMutability": "view"
        },
        {
            "type": "function",
            "name": "WITHDRAW_FEE_CRT_BPS",
            "inputs": [],
            "outputs": [
                {
                    "name": "",
                    "type": "uint256",
                    "internalType": "uint256"
                }
            ],
            "stateMutability": "view"
        },
        {
            "type": "function",
            "name": "WITHDRAW_FEE_USDC_BPS",
            "inputs": [],
            "outputs": [
                {
                    "name": "",
                    "type": "uint256",
                    "internalType": "uint256"
                }
            ],
            "stateMutability": "view"
        },
        {
            "type": "function",
            "name": "allowance",
            "inputs": [
                {
                    "name": "owner",
                    "type": "address",
                    "internalType": "address"
                },
                {
                    "name": "spender",
                    "type": "address",
                    "internalType": "address"
                }
            ],
            "outputs": [
                {
                    "name": "",
                    "type": "uint256",
                    "internalType": "uint256"
                }
            ],
            "stateMutability": "view"
        },
        {
            "type": "function",
            "name": "approve",
            "inputs": [
                {
                    "name": "spender",
                    "type": "address",
                    "internalType": "address"
                },
                {
                    "name": "value",
                    "type": "uint256",
                    "internalType": "uint256"
                }
            ],
            "outputs": [
                {
                    "name": "",
                    "type": "bool",
                    "internalType": "bool"
                }
            ],
            "stateMutability": "nonpayable"
        },
        {
            "type": "function",
            "name": "balanceOf",
            "inputs": [
                {
                    "name": "account",
                    "type": "address",
                    "internalType": "address"
                }
            ],
            "outputs": [
                {
                    "name": "",
                    "type": "uint256",
                    "internalType": "uint256"
                }
            ],
            "stateMutability": "view"
        },
        {
            "type": "function",
            "name": "baseAsset",
            "inputs": [],
            "outputs": [
                {
                    "name": "",
                    "type": "address",
                    "internalType": "address"
                }
            ],
            "stateMutability": "view"
        },
        {
            "type": "function",
            "name": "collectFees",
            "inputs": [],
            "outputs": [],
            "stateMutability": "nonpayable"
        },
        {
            "type": "function",
            "name": "crtToken",
            "inputs": [],
            "outputs": [
                {
                    "name": "",
                    "type": "address",
                    "internalType": "contract CrtToken"
                }
            ],
            "stateMutability": "view"
        },
        {
            "type": "function",
            "name": "decimals",
            "inputs": [],
            "outputs": [
                {
                    "name": "",
                    "type": "uint8",
                    "internalType": "uint8"
                }
            ],
            "stateMutability": "view"
        },
        {
            "type": "function",
            "name": "description",
            "inputs": [],
            "outputs": [
                {
                    "name": "",
                    "type": "string",
                    "internalType": "string"
                }
            ],
            "stateMutability": "view"
        },
        {
            "type": "function",
            "name": "factory",
            "inputs": [],
            "outputs": [
                {
                    "name": "",
                    "type": "address",
                    "internalType": "address"
                }
            ],
            "stateMutability": "view"
        },
        {
            "type": "function",
            "name": "feeCollector",
            "inputs": [],
            "outputs": [
                {
                    "name": "",
                    "type": "address",
                    "internalType": "contract FeeCollector"
                }
            ],
            "stateMutability": "view"
        },
        {
            "type": "function",
            "name": "getNavPerShare",
            "inputs": [],
            "outputs": [
                {
                    "name": "",
                    "type": "uint256",
                    "internalType": "uint256"
                }
            ],
            "stateMutability": "view"
        },
        {
            "type": "function",
            "name": "getPortfolioTokens",
            "inputs": [],
            "outputs": [
                {
                    "name": "",
                    "type": "address[]",
                    "internalType": "address[]"
                }
            ],
            "stateMutability": "view"
        },
        {
            "type": "function",
            "name": "getPortfolioWeights",
            "inputs": [],
            "outputs": [
                {
                    "name": "tokens",
                    "type": "address[]",
                    "internalType": "address[]"
                },
                {
                    "name": "weightsBps",
                    "type": "uint256[]",
                    "internalType": "uint256[]"
                }
            ],
            "stateMutability": "view"
        },
        {
            "type": "function",
            "name": "getTotalValue",
            "inputs": [],
            "outputs": [
                {
                    "name": "value",
                    "type": "uint256",
                    "internalType": "uint256"
                }
            ],
            "stateMutability": "view"
        },
        {
            "type": "function",
            "name": "highWaterMark",
            "inputs": [],
            "outputs": [
                {
                    "name": "",
                    "type": "uint256",
                    "internalType": "uint256"
                }
            ],
            "stateMutability": "view"
        },
        {
            "type": "function",
            "name": "initializePortfolio",
            "inputs": [
                {
                    "name": "tokens",
                    "type": "address[]",
                    "internalType": "address[]"
                },
                {
                    "name": "amounts",
                    "type": "uint256[]",
                    "internalType": "uint256[]"
                },
                {
                    "name": "initialShareReceiver",
                    "type": "address",
                    "internalType": "address"
                }
            ],
            "outputs": [],
            "stateMutability": "nonpayable"
        },
        {
            "type": "function",
            "name": "initializeVault",
            "inputs": [
                {
                    "name": "_name",
                    "type": "string",
                    "internalType": "string"
                },
                {
                    "name": "_symbol",
                    "type": "string",
                    "internalType": "string"
                },
                {
                    "name": "_factory",
                    "type": "address",
                    "internalType": "address"
                },
                {
                    "name": "_managerNFT",
                    "type": "address",
                    "internalType": "address"
                },
                {
                    "name": "_managerTokenId",
                    "type": "uint256",
                    "internalType": "uint256"
                },
                {
                    "name": "_swapRouter",
                    "type": "address",
                    "internalType": "address"
                },
                {
                    "name": "_baseAsset",
                    "type": "address",
                    "internalType": "address"
                },
                {
                    "name": "_priceOracle",
                    "type": "address",
                    "internalType": "address"
                },
                {
                    "name": "_description",
                    "type": "string",
                    "internalType": "string"
                },
                {
                    "name": "_crtToken",
                    "type": "address",
                    "internalType": "address"
                },
                {
                    "name": "_feeCollector",
                    "type": "address",
                    "internalType": "address"
                }
            ],
            "outputs": [],
            "stateMutability": "nonpayable"
        },
        {
            "type": "function",
            "name": "isPortfolioToken",
            "inputs": [
                {
                    "name": "",
                    "type": "address",
                    "internalType": "address"
                }
            ],
            "outputs": [
                {
                    "name": "",
                    "type": "bool",
                    "internalType": "bool"
                }
            ],
            "stateMutability": "view"
        },
        {
            "type": "function",
            "name": "issue",
            "inputs": [
                {
                    "name": "minShares",
                    "type": "uint256",
                    "internalType": "uint256"
                },
                {
                    "name": "receiver",
                    "type": "address",
                    "internalType": "address"
                }
            ],
            "outputs": [
                {
                    "name": "shares",
                    "type": "uint256",
                    "internalType": "uint256"
                }
            ],
            "stateMutability": "nonpayable"
        },
        {
            "type": "function",
            "name": "issueWithBase",
            "inputs": [
                {
                    "name": "baseAmount",
                    "type": "uint256",
                    "internalType": "uint256"
                },
                {
                    "name": "minShares",
                    "type": "uint256",
                    "internalType": "uint256"
                },
                {
                    "name": "receiver",
                    "type": "address",
                    "internalType": "address"
                },
                {
                    "name": "payFeeWithCRT",
                    "type": "bool",
                    "internalType": "bool"
                }
            ],
            "outputs": [
                {
                    "name": "shares",
                    "type": "uint256",
                    "internalType": "uint256"
                }
            ],
            "stateMutability": "nonpayable"
        },
        {
            "type": "function",
            "name": "lastFeeCollection",
            "inputs": [],
            "outputs": [
                {
                    "name": "",
                    "type": "uint256",
                    "internalType": "uint256"
                }
            ],
            "stateMutability": "view"
        },
        {
            "type": "function",
            "name": "manager",
            "inputs": [],
            "outputs": [
                {
                    "name": "",
                    "type": "address",
                    "internalType": "address"
                }
            ],
            "stateMutability": "view"
        },
        {
            "type": "function",
            "name": "managerNFT",
            "inputs": [],
            "outputs": [
                {
                    "name": "",
                    "type": "address",
                    "internalType": "contract VaultManagerNFT"
                }
            ],
            "stateMutability": "view"
        },
        {
            "type": "function",
            "name": "managerTokenId",
            "inputs": [],
            "outputs": [
                {
                    "name": "",
                    "type": "uint256",
                    "internalType": "uint256"
                }
            ],
            "stateMutability": "view"
        },
        {
            "type": "function",
            "name": "name",
            "inputs": [],
            "outputs": [
                {
                    "name": "",
                    "type": "string",
                    "internalType": "string"
                }
            ],
            "stateMutability": "view"
        },
        {
            "type": "function",
            "name": "portfolioTokens",
            "inputs": [
                {
                    "name": "",
                    "type": "uint256",
                    "internalType": "uint256"
                }
            ],
            "outputs": [
                {
                    "name": "",
                    "type": "address",
                    "internalType": "address"
                }
            ],
            "stateMutability": "view"
        },
        {
            "type": "function",
            "name": "previewIssue",
            "inputs": [
                {
                    "name": "baseAmount",
                    "type": "uint256",
                    "internalType": "uint256"
                }
            ],
            "outputs": [
                {
                    "name": "shares",
                    "type": "uint256",
                    "internalType": "uint256"
                }
            ],
            "stateMutability": "view"
        },
        {
            "type": "function",
            "name": "previewRedeem",
            "inputs": [
                {
                    "name": "shareAmount",
                    "type": "uint256",
                    "internalType": "uint256"
                }
            ],
            "outputs": [
                {
                    "name": "baseAmount",
                    "type": "uint256",
                    "internalType": "uint256"
                }
            ],
            "stateMutability": "view"
        },
        {
            "type": "function",
            "name": "priceOracle",
            "inputs": [],
            "outputs": [
                {
                    "name": "",
                    "type": "address",
                    "internalType": "contract IPriceOracle"
                }
            ],
            "stateMutability": "view"
        },
        {
            "type": "function",
            "name": "rebalance",
            "inputs": [
                {
                    "name": "tokenIn",
                    "type": "address",
                    "internalType": "address"
                },
                {
                    "name": "tokenOut",
                    "type": "address",
                    "internalType": "address"
                },
                {
                    "name": "amountIn",
                    "type": "uint256",
                    "internalType": "uint256"
                },
                {
                    "name": "amountOutMin",
                    "type": "uint256",
                    "internalType": "uint256"
                }
            ],
            "outputs": [
                {
                    "name": "amountOut",
                    "type": "uint256",
                    "internalType": "uint256"
                }
            ],
            "stateMutability": "nonpayable"
        },
        {
            "type": "function",
            "name": "rebalanceToWeights",
            "inputs": [
                {
                    "name": "tokens",
                    "type": "address[]",
                    "internalType": "address[]"
                },
                {
                    "name": "targetWeightsBps",
                    "type": "uint256[]",
                    "internalType": "uint256[]"
                }
            ],
            "outputs": [],
            "stateMutability": "nonpayable"
        },
        {
            "type": "function",
            "name": "redeem",
            "inputs": [
                {
                    "name": "shareAmount",
                    "type": "uint256",
                    "internalType": "uint256"
                },
                {
                    "name": "receiver",
                    "type": "address",
                    "internalType": "address"
                }
            ],
            "outputs": [
                {
                    "name": "tokens",
                    "type": "address[]",
                    "internalType": "address[]"
                },
                {
                    "name": "amounts",
                    "type": "uint256[]",
                    "internalType": "uint256[]"
                }
            ],
            "stateMutability": "nonpayable"
        },
        {
            "type": "function",
            "name": "redeemToBase",
            "inputs": [
                {
                    "name": "shareAmount",
                    "type": "uint256",
                    "internalType": "uint256"
                },
                {
                    "name": "minBaseOut",
                    "type": "uint256",
                    "internalType": "uint256"
                },
                {
                    "name": "receiver",
                    "type": "address",
                    "internalType": "address"
                },
                {
                    "name": "payFeeWithCRT",
                    "type": "bool",
                    "internalType": "bool"
                }
            ],
            "outputs": [
                {
                    "name": "baseReceived",
                    "type": "uint256",
                    "internalType": "uint256"
                }
            ],
            "stateMutability": "nonpayable"
        },
        {
            "type": "function",
            "name": "setDescription",
            "inputs": [
                {
                    "name": "_description",
                    "type": "string",
                    "internalType": "string"
                }
            ],
            "outputs": [],
            "stateMutability": "nonpayable"
        },
        {
            "type": "function",
            "name": "setPriceOracle",
            "inputs": [
                {
                    "name": "newOracle",
                    "type": "address",
                    "internalType": "address"
                }
            ],
            "outputs": [],
            "stateMutability": "nonpayable"
        },
        {
            "type": "function",
            "name": "swapRouter",
            "inputs": [],
            "outputs": [
                {
                    "name": "",
                    "type": "address",
                    "internalType": "contract ISwapRouter"
                }
            ],
            "stateMutability": "view"
        },
        {
            "type": "function",
            "name": "symbol",
            "inputs": [],
            "outputs": [
                {
                    "name": "",
                    "type": "string",
                    "internalType": "string"
                }
            ],
            "stateMutability": "view"
        },
        {
            "type": "function",
            "name": "totalSupply",
            "inputs": [],
            "outputs": [
                {
                    "name": "",
                    "type": "uint256",
                    "internalType": "uint256"
                }
            ],
            "stateMutability": "view"
        },
        {
            "type": "function",
            "name": "transfer",
            "inputs": [
                {
                    "name": "to",
                    "type": "address",
                    "internalType": "address"
                },
                {
                    "name": "value",
                    "type": "uint256",
                    "internalType": "uint256"
                }
            ],
            "outputs": [
                {
                    "name": "",
                    "type": "bool",
                    "internalType": "bool"
                }
            ],
            "stateMutability": "nonpayable"
        },
        {
            "type": "function",
            "name": "transferFrom",
            "inputs": [
                {
                    "name": "from",
                    "type": "address",
                    "internalType": "address"
                },
                {
                    "name": "to",
                    "type": "address",
                    "internalType": "address"
                },
                {
                    "name": "value",
                    "type": "uint256",
                    "internalType": "uint256"
                }
            ],
            "outputs": [
                {
                    "name": "",
                    "type": "bool",
                    "internalType": "bool"
                }
            ],
            "stateMutability": "nonpayable"
        },
        {
            "type": "event",
            "name": "Approval",
            "inputs": [
                {
                    "name": "owner",
                    "type": "address",
                    "indexed": true,
                    "internalType": "address"
                },
                {
                    "name": "spender",
                    "type": "address",
                    "indexed": true,
                    "internalType": "address"
                },
                {
                    "name": "value",
                    "type": "uint256",
                    "indexed": false,
                    "internalType": "uint256"
                }
            ],
            "anonymous": false
        },
        {
            "type": "event",
            "name": "DepositFeeCollected",
            "inputs": [
                {
                    "name": "user",
                    "type": "address",
                    "indexed": true,
                    "internalType": "address"
                },
                {
                    "name": "feeAmount",
                    "type": "uint256",
                    "indexed": false,
                    "internalType": "uint256"
                },
                {
                    "name": "paidWithCRT",
                    "type": "bool",
                    "indexed": false,
                    "internalType": "bool"
                }
            ],
            "anonymous": false
        },
        {
            "type": "event",
            "name": "DescriptionUpdated",
            "inputs": [
                {
                    "name": "description",
                    "type": "string",
                    "indexed": false,
                    "internalType": "string"
                }
            ],
            "anonymous": false
        },
        {
            "type": "event",
            "name": "FeeCollected",
            "inputs": [
                {
                    "name": "manager",
                    "type": "address",
                    "indexed": true,
                    "internalType": "address"
                },
                {
                    "name": "managementFee",
                    "type": "uint256",
                    "indexed": false,
                    "internalType": "uint256"
                },
                {
                    "name": "performanceFee",
                    "type": "uint256",
                    "indexed": false,
                    "internalType": "uint256"
                },
                {
                    "name": "totalShares",
                    "type": "uint256",
                    "indexed": false,
                    "internalType": "uint256"
                }
            ],
            "anonymous": false
        },
        {
            "type": "event",
            "name": "Initialized",
            "inputs": [
                {
                    "name": "version",
                    "type": "uint64",
                    "indexed": false,
                    "internalType": "uint64"
                }
            ],
            "anonymous": false
        },
        {
            "type": "event",
            "name": "Issue",
            "inputs": [
                {
                    "name": "user",
                    "type": "address",
                    "indexed": true,
                    "internalType": "address"
                },
                {
                    "name": "sharesMinted",
                    "type": "uint256",
                    "indexed": false,
                    "internalType": "uint256"
                },
                {
                    "name": "tokens",
                    "type": "address[]",
                    "indexed": false,
                    "internalType": "address[]"
                },
                {
                    "name": "amounts",
                    "type": "uint256[]",
                    "indexed": false,
                    "internalType": "uint256[]"
                }
            ],
            "anonymous": false
        },
        {
            "type": "event",
            "name": "IssueWithBase",
            "inputs": [
                {
                    "name": "user",
                    "type": "address",
                    "indexed": true,
                    "internalType": "address"
                },
                {
                    "name": "baseAmount",
                    "type": "uint256",
                    "indexed": false,
                    "internalType": "uint256"
                },
                {
                    "name": "sharesMinted",
                    "type": "uint256",
                    "indexed": false,
                    "internalType": "uint256"
                },
                {
                    "name": "actualValue",
                    "type": "uint256",
                    "indexed": false,
                    "internalType": "uint256"
                }
            ],
            "anonymous": false
        },
        {
            "type": "event",
            "name": "PriceOracleUpdated",
            "inputs": [
                {
                    "name": "oldOracle",
                    "type": "address",
                    "indexed": true,
                    "internalType": "address"
                },
                {
                    "name": "newOracle",
                    "type": "address",
                    "indexed": true,
                    "internalType": "address"
                }
            ],
            "anonymous": false
        },
        {
            "type": "event",
            "name": "Rebalance",
            "inputs": [
                {
                    "name": "manager",
                    "type": "address",
                    "indexed": true,
                    "internalType": "address"
                },
                {
                    "name": "tokenIn",
                    "type": "address",
                    "indexed": false,
                    "internalType": "address"
                },
                {
                    "name": "tokenOut",
                    "type": "address",
                    "indexed": false,
                    "internalType": "address"
                },
                {
                    "name": "amountIn",
                    "type": "uint256",
                    "indexed": false,
                    "internalType": "uint256"
                },
                {
                    "name": "amountOut",
                    "type": "uint256",
                    "indexed": false,
                    "internalType": "uint256"
                }
            ],
            "anonymous": false
        },
        {
            "type": "event",
            "name": "RebalanceFeeCollected",
            "inputs": [
                {
                    "name": "amount",
                    "type": "uint256",
                    "indexed": false,
                    "internalType": "uint256"
                }
            ],
            "anonymous": false
        },
        {
            "type": "event",
            "name": "RebalanceToWeights",
            "inputs": [
                {
                    "name": "manager",
                    "type": "address",
                    "indexed": true,
                    "internalType": "address"
                },
                {
                    "name": "tokens",
                    "type": "address[]",
                    "indexed": false,
                    "internalType": "address[]"
                },
                {
                    "name": "targetWeightsBps",
                    "type": "uint256[]",
                    "indexed": false,
                    "internalType": "uint256[]"
                }
            ],
            "anonymous": false
        },
        {
            "type": "event",
            "name": "Redeem",
            "inputs": [
                {
                    "name": "user",
                    "type": "address",
                    "indexed": true,
                    "internalType": "address"
                },
                {
                    "name": "sharesBurned",
                    "type": "uint256",
                    "indexed": false,
                    "internalType": "uint256"
                },
                {
                    "name": "tokens",
                    "type": "address[]",
                    "indexed": false,
                    "internalType": "address[]"
                },
                {
                    "name": "amounts",
                    "type": "uint256[]",
                    "indexed": false,
                    "internalType": "uint256[]"
                }
            ],
            "anonymous": false
        },
        {
            "type": "event",
            "name": "RedeemToBase",
            "inputs": [
                {
                    "name": "user",
                    "type": "address",
                    "indexed": true,
                    "internalType": "address"
                },
                {
                    "name": "sharesBurned",
                    "type": "uint256",
                    "indexed": false,
                    "internalType": "uint256"
                },
                {
                    "name": "baseReceived",
                    "type": "uint256",
                    "indexed": false,
                    "internalType": "uint256"
                }
            ],
            "anonymous": false
        },
        {
            "type": "event",
            "name": "TokenAdded",
            "inputs": [
                {
                    "name": "token",
                    "type": "address",
                    "indexed": true,
                    "internalType": "address"
                }
            ],
            "anonymous": false
        },
        {
            "type": "event",
            "name": "TokenRemoved",
            "inputs": [
                {
                    "name": "token",
                    "type": "address",
                    "indexed": true,
                    "internalType": "address"
                }
            ],
            "anonymous": false
        },
        {
            "type": "event",
            "name": "Transfer",
            "inputs": [
                {
                    "name": "from",
                    "type": "address",
                    "indexed": true,
                    "internalType": "address"
                },
                {
                    "name": "to",
                    "type": "address",
                    "indexed": true,
                    "internalType": "address"
                },
                {
                    "name": "value",
                    "type": "uint256",
                    "indexed": false,
                    "internalType": "uint256"
                }
            ],
            "anonymous": false
        },
        {
            "type": "event",
            "name": "VaultInitialized",
            "inputs": [
                {
                    "name": "manager",
                    "type": "address",
                    "indexed": true,
                    "internalType": "address"
                },
                {
                    "name": "tokens",
                    "type": "address[]",
                    "indexed": false,
                    "internalType": "address[]"
                },
                {
                    "name": "amounts",
                    "type": "uint256[]",
                    "indexed": false,
                    "internalType": "uint256[]"
                }
            ],
            "anonymous": false
        },
        {
            "type": "event",
            "name": "WithdrawFeeCollected",
            "inputs": [
                {
                    "name": "user",
                    "type": "address",
                    "indexed": true,
                    "internalType": "address"
                },
                {
                    "name": "feeAmount",
                    "type": "uint256",
                    "indexed": false,
                    "internalType": "uint256"
                },
                {
                    "name": "paidWithCRT",
                    "type": "bool",
                    "indexed": false,
                    "internalType": "bool"
                }
            ],
            "anonymous": false
        },
        {
            "type": "error",
            "name": "AddressEmptyCode",
            "inputs": [
                {
                    "name": "target",
                    "type": "address",
                    "internalType": "address"
                }
            ]
        },
        {
            "type": "error",
            "name": "AddressInsufficientBalance",
            "inputs": [
                {
                    "name": "account",
                    "type": "address",
                    "internalType": "address"
                }
            ]
        },
        {
            "type": "error",
            "name": "AlreadyInitialized",
            "inputs": []
        },
        {
            "type": "error",
            "name": "ArrayLengthMismatch",
            "inputs": []
        },
        {
            "type": "error",
            "name": "BaseAssetInPortfolio",
            "inputs": []
        },
        {
            "type": "error",
            "name": "DuplicateToken",
            "inputs": []
        },
        {
            "type": "error",
            "name": "ERC20InsufficientAllowance",
            "inputs": [
                {
                    "name": "spender",
                    "type": "address",
                    "internalType": "address"
                },
                {
                    "name": "allowance",
                    "type": "uint256",
                    "internalType": "uint256"
                },
                {
                    "name": "needed",
                    "type": "uint256",
                    "internalType": "uint256"
                }
            ]
        },
        {
            "type": "error",
            "name": "ERC20InsufficientBalance",
            "inputs": [
                {
                    "name": "sender",
                    "type": "address",
                    "internalType": "address"
                },
                {
                    "name": "balance",
                    "type": "uint256",
                    "internalType": "uint256"
                },
                {
                    "name": "needed",
                    "type": "uint256",
                    "internalType": "uint256"
                }
            ]
        },
        {
            "type": "error",
            "name": "ERC20InvalidApprover",
            "inputs": [
                {
                    "name": "approver",
                    "type": "address",
                    "internalType": "address"
                }
            ]
        },
        {
            "type": "error",
            "name": "ERC20InvalidReceiver",
            "inputs": [
                {
                    "name": "receiver",
                    "type": "address",
                    "internalType": "address"
                }
            ]
        },
        {
            "type": "error",
            "name": "ERC20InvalidSender",
            "inputs": [
                {
                    "name": "sender",
                    "type": "address",
                    "internalType": "address"
                }
            ]
        },
        {
            "type": "error",
            "name": "ERC20InvalidSpender",
            "inputs": [
                {
                    "name": "spender",
                    "type": "address",
                    "internalType": "address"
                }
            ]
        },
        {
            "type": "error",
            "name": "EmptyPortfolio",
            "inputs": []
        },
        {
            "type": "error",
            "name": "FailedInnerCall",
            "inputs": []
        },
        {
            "type": "error",
            "name": "FeeTooHigh",
            "inputs": []
        },
        {
            "type": "error",
            "name": "InsufficientFee",
            "inputs": []
        },
        {
            "type": "error",
            "name": "InsufficientOutput",
            "inputs": []
        },
        {
            "type": "error",
            "name": "InsufficientShares",
            "inputs": []
        },
        {
            "type": "error",
            "name": "InvalidInitialization",
            "inputs": []
        },
        {
            "type": "error",
            "name": "MathOverflowedMulDiv",
            "inputs": []
        },
        {
            "type": "error",
            "name": "NoFeesToCollect",
            "inputs": []
        },
        {
            "type": "error",
            "name": "NotInitializing",
            "inputs": []
        },
        {
            "type": "error",
            "name": "OnlyFactory",
            "inputs": []
        },
        {
            "type": "error",
            "name": "OnlyManager",
            "inputs": []
        },
        {
            "type": "error",
            "name": "OracleNotSet",
            "inputs": []
        },
        {
            "type": "error",
            "name": "SafeERC20FailedOperation",
            "inputs": [
                {
                    "name": "token",
                    "type": "address",
                    "internalType": "address"
                }
            ]
        },
        {
            "type": "error",
            "name": "TokenNotInPortfolio",
            "inputs": []
        },
        {
            "type": "error",
            "name": "WeightSumMismatch",
            "inputs": []
        },
        {
            "type": "error",
            "name": "ZeroAddress",
            "inputs": []
        },
        {
            "type": "error",
            "name": "ZeroAmount",
            "inputs": []
        }
    ],
    "bytecode": {
        "object": "0x60808060405234620000bd577ff0c57e16840df040f15088dc2f81fe391c3923bec73e23a9662efc9c229c6a009081549060ff8260401c16620000ae57506001600160401b036002600160401b03198282160162000068575b604051614d8f9081620000c28239f35b6001600160401b031990911681179091556040519081527fc7f505b2f371ae2175ee4913f4499e1f2633a7b5936321eed1cdaeb6115181d290602090a15f808062000058565b63f92ee8a960e01b8152600490fd5b5f80fdfe6080806040526004361015610012575f80fd5b5f905f3560e01c90816306fdde0314612ec857508063095ea7b314612e4957806317a9e19814612e2c57806318160ddd14612e035780631e8410da14612de65780631f75d52f14612b515780631fcd3080146113d757806320ed8a1d14612b2957806323b872dd14612a4b5780632630c12f14612a235780632dde8d85146129e6578063313ce567146129c1578063481c6a75146129955780634cdad50614612977578063530e784f146128ed5780635689f3ac146128d25780635b01e374146128b65780636e49db1c146124a657806370a082311461246157806371b74a99146124425780637284e4161461238457806374d3647b14611c725780637bde82f2146119fc5780637d041328146119d85780638ba6a50b146119a857806390c3f38f146117e257806395d89b4114611708578063a2fed515146116e1578063a7bb36e1146116c5578063a9059cbb14611693578063a9660fc0146111be578063ab69290a14611675578063abd894b01461165a578063b26f6bef1461162d578063b696a6ad146113dc578063bdfe1eee146113d7578063c31c9c07146113ae578063c415b95c14611385578063c45a01551461135c578063c5be4f241461131f578063c622cd8314611302578063c8796572146111c3578063c8ad5a6e146111be578063caa648b41461119b578063cdb77de514611157578063cdf456e11461112e578063dad89a7014611111578063dd62ed3e146110c9578063e1a45218146110ac578063ed747af714610c995763f1a71b1a1461024f575f80fd5b34610c96576040366003190112610c96576001600160401b03600435818111610af757610280903690600401612fed565b9091602435908111610c925761029a903690600401612fed565b91906001600160a01b036102ac61344a565b168015908115610c87575b50610c75578115610c6357828203610c51576008546001600160a01b031615610c3f57600754859081906001600160a01b03165b848310610b475750612710915003610b355760018060a01b03600354166040516323b872dd60e01b81523360048201523060248201526020816064818a68015af1d78b58c40000968760448401525af18015610b2a57610afb575b50600354600454610363916001600160a01b039182169116614620565b60045460035487916001600160a01b039081169116813b15610af757829160448392604051948593849263280cff3560e21b845260048401528860248401525af18015610aec57610ad4575b505060207f1f2adcf8bd57de78c5dd99f875c6f7bd3277ff501f29f102a33c943b5cd1bbd291604051908152a16103e4613ec2565b15610ac257845b600b548110156104fa576103fe81613272565b905460039190911b1c6001600160a01b03169086805b8581106104c6575b501561042d575b60019150016103eb565b6040516370a0823160e01b815230600482015291602083602481845afa80156104bb578890610484575b6001935080610468575b5050610423565b61047c91848060a01b036007541690614847565b505f80610461565b506020833d6020116104b3575b8161049e60209383613107565b810103126104af5760019251610457565b5f80fd5b3d9150610491565b6040513d8a823e3d90fd5b836001600160a01b036104e26104dd848a8d6132bb565b6132cb565b16146104f057600101610414565b505060015f61041c565b5091610504613ec2565b855b8381106109445750506007546040516370a0823160e01b815230600482015290602090829060249082906001600160a01b03165afa908115610939578691610907575b50610552613ec2565b90865b84811061070757505050600b54805b6106625750845b8281106105ae5750906105a87f375c21a146dd4681aef642fb16232bba5facf8b6d86da5ca402ad0a30d9cfa189392604051938493339785613348565b0390a280f35b6001906001600160a01b036105c76104dd83878a6132bb565b168752600c8060205260ff604089205416156105e5575b500161056b565b6105fb6105f66104dd84888b6132bb565b6132df565b828060a01b0361060f6104dd84888b6132bb565b168852602052604087208260ff19825416179055818060a01b036106376104dd83878a6132bb565b167f784c8f4dbf0ffedd6e72c76501c545a70f8b203b30a26ce542bf92ba87c248a48880a25f6105de565b5f19018061066f81613272565b905460039190911b1c6001600160a01b031687805b8681106106cc575b5015610699575b50610564565b6106a281614950565b7f4c910b69fe65a61f7531b9c5042b2329ca7179c77290aa7e2eb3afa3c8511fd38880a25f610693565b9192909190836001600160a01b036106e86104dd858b8e6132bb565b16146106fb575060010190839291610684565b9291505060015f61068c565b6107156104dd82878a6132bb565b61072a61072383878a6132bb565b35856144a4565b6040516370a0823160e01b81523060048201526020816024816001600160a01b0387165afa9081156108c2578b916108d5575b5080156108cd5760085460075460405163151d4a5960e31b81526001600160a01b038681166004830152602482019490945290831660448201529160209183916064918391165afa9081156108c2578b91610890575b50905b80821080610887575b6107cf575b505050600101610555565b906107d9916138c3565b83811115610881575082905b816107f1575b806107c4565b600754929350610809926001600160a01b0316614847565b506007546040516370a0823160e01b815230600482015290602090829060249082906001600160a01b03165afa80156104bb57889061084e575b91905060015f6107eb565b506020813d602011610879575b8161086860209383613107565b810103126104af5760019051610843565b3d915061085b565b906107e5565b508415156107bf565b90506020813d6020116108ba575b816108ab60209383613107565b810103126104af57515f6107b3565b3d915061089e565b6040513d8d823e3d90fd5b5089906107b6565b90506020813d6020116108ff575b816108f060209383613107565b810103126104af57515f61075d565b3d91506108e3565b90506020813d602011610931575b8161092260209383613107565b810103126104af57515f610549565b3d9150610915565b6040513d88823e3d90fd5b6109526104dd8286896132bb565b906109686109618286896132bb565b35846144a4565b6040516370a0823160e01b815230600482015292906020846024816001600160a01b0386165afa938415610ab7578a94610a83575b508315610a795760085460075460405163151d4a5960e31b81526001600160a01b038581166004830152602482018890529182166044820152959160209187916064918391165afa80156108c2578b90610a46575b60019550905b828211610a0a575b5050505001610506565b610a17610a1d93836138c3565b906145ad565b80610a2a575b8080610a00565b610a3e91848060a01b036007541690614847565b505f80610a23565b506020853d602011610a71575b81610a6060209383613107565b810103126104af57600194516109f2565b3d9150610a53565b6001938a906109f8565b9093506020813d602011610aaf575b81610a9f60209383613107565b810103126104af5751925f61099d565b3d9150610a92565b6040513d8c823e3d90fd5b604051631f2a200560e01b8152600490fd5b610add906130a9565b610ae857855f6103af565b8580fd5b6040513d84823e3d90fd5b8280fd5b610b1c9060203d602011610b23575b610b148183613107565b8101906134e8565b505f610346565b503d610b0a565b6040513d89823e3d90fd5b604051630240887f60e31b8152600490fd5b906001600160a01b03610b5e6104dd85888b6132bb565b1615610c2d57816001600160a01b03610b7b6104dd86898c6132bb565b1614610c1b57610b9790610b908488876132bb565b3590613327565b916001808201808311610c07575b868110610bb857505060010191906102eb565b610bc66104dd84898c6132bb565b6001600160a01b03610bdc6104dd848b8e6132bb565b6001600160a01b03909216911614610bf5578101610ba5565b6040516323271fb560e11b8152600490fd5b634e487b7160e01b8a52601160045260248afd5b6040516323e28dd360e11b8152600490fd5b60405163d92e233d60e01b8152600490fd5b604051633e1e538160e21b8152600490fd5b60405163512509d360e11b8152600490fd5b60405163372f11f360e21b8152600490fd5b60405163605919ad60e11b8152600490fd5b90503314155f6102b7565b8380fd5b80fd5b5034610c9657610ca83661323b565b929391906002600d5414610af7576002600d556001600160a01b03908082168015610c2d578615610ac2575f80516020614cda83398151915254918594865b600b54811015610da75785610cfb82613272565b90549060031b1c166040516370a0823160e01b815230600482015260208082602481865afa9081156108c25788918e918d91610d73575b50610d3d93506145ad565b9081610d4e575b5050600101610ce7565b97610d65610d6b926001949a8a6007541690614847565b90613327565b96905f610d44565b9250505081813d8311610da0575b610d8b8183613107565b810103126104af57868c610d3d92515f610d32565b503d610d81565b5091959690949792846007541690604051996370a0823160e01b8b523060048c015260209a8b81602481875afa9081156108c2579087918c91611079575b5092610d6591610df884610dfd966138c3565b6145ad565b9115610faa5750610e0d8161445a565b96603288029780890460321490151715610f96576003546040516323b872dd60e01b8152336004820152306024820152604481018a9052908a908290606490829086908b165af18015610aec57610f79575b50610e7488866003541687600454169061478e565b84600454168560035416813b15610af75760405163280cff3560e21b81526001600160a01b03919091166004820152602481018a90529082908290604490829084905af18015610aec57610f65575b5050956040519081526001888201527fa68bdbfc57ed6a12bbd3084b99b4149582b6f62b8fbe514663530a9ffc263a3560403392a25b8510610f5357610f3b857f5e8ebc2a0ae2ba26af9a260176c95b996e125a2d4fb10b2c6bc3816933e4614694604094610f328533614a50565b60075416614a17565b81519081528486820152a26001600d55604051908152f35b60405163bb2875c360e01b8152600490fd5b610f6f82916130a9565b610c965780610ec3565b610f8f908a3d8c11610b2357610b148183613107565b505f610e5f565b634e487b7160e01b81526011600452602490fd5b96610fbe610fb783614406565b80936138c3565b978280610ffd575b5050604051918252888201527fa68bdbfc57ed6a12bbd3084b99b4149582b6f62b8fbe514663530a9ffc263a3560403392a2610ef9565b61100c9187600454169061478e565b84600454168560075416813b15610af75760405163280cff3560e21b81526001600160a01b03919091166004820152602481018490529082908290604490829084905af18015610aec57908291611065575b5082610fc6565b61106e906130a9565b610c9657805f61105e565b8092508d8092503d83116110a5575b6110928183613107565b810103126104af57518690610d65610de5565b503d611088565b5034610c965780600319360112610c965760206040516127108152f35b5034610c96576040366003190112610c96576110e3612fab565b6110f46110ee612fd7565b91613039565b9060018060a01b03165f52602052602060405f2054604051908152f35b5034610c965780600319360112610c965760206040516101f48152f35b5034610c965780600319360112610c96576007546040516001600160a01b039091168152602090f35b5034610c96576020366003190112610c965760043590600b54821015610c9657602061118283613272565b905460405160039290921b1c6001600160a01b03168152f35b5034610c965780600319360112610c965760206111b6613ec2565b604051908152f35b613220565b5034610c965780600319360112610c96575f80516020614cda8339815191525480156112f0576111f1613ec2565b906111fc8183614222565b91600954808411156112f05761121e8361121961122393876138c3565b6142d1565b614345565b9283156112f0576112586060927f7e4199a81d431b89a16814e8730ae102c7b9b30c1a661bc67be86f4b185b173394866145ad565b6112618161439c565b9161126c83836138c3565b61127461344a565b93801515806112de575b6112ce575b50806112b2575b5060095542600a556040805187815260208101969096528501526001600160a01b031692a280f35b6004546112c891906001600160a01b03166140c3565b5f61128a565b6112d890856140c3565b5f611283565b506001600160a01b038516151561127e565b604051631a93aa7960e21b8152600490fd5b5034610c965780600319360112610c96576020604051610bb88152f35b5034610c965761132e3661323b565b936002600d9492945414610c9657602061134f868686866002600d556138d0565b6001600d55604051908152f35b5034610c965780600319360112610c96576002546040516001600160a01b039091168152602090f35b5034610c965780600319360112610c96576004546040516001600160a01b039091168152602090f35b5034610c965780600319360112610c96576006546040516001600160a01b039091168152602090f35b61301d565b5034610c96576040366003190112610c9657600435906113fa612fd7565b906002600d5414610c96576002600d556001600160a01b0382811693908415610c2d575f80516020614cda83398151915254948515610ac25761143b613ec2565b948496611446613586565b926114518451613612565b92875b85518110156115c257866114688288613644565b511660405180916370a0823160e01b825230600483015281602460209485935afa80156108c2578a87918d9061158f575b6114a393506145ad565b806114b3575b5050600101611454565b8181849e946114e2828d6114d7848f8f996114d1836115379c613644565b52613644565b511630903390614072565b8b6114f28160085416928d613644565b5160075460405163151d4a5960e31b81526001600160a01b0393909216831660048301526024820194909452928d161660448301529092839190829081906064820190565b03915afa9182156108c2578b9261155f575b505061155790600192613327565b9a905f6114a9565b90809250813d8311611588575b6115768183613107565b810103126104af575181611557611549565b503d61156c565b5050508181813d83116115bb575b6115a78183613107565b810103126104af57858a6114a39251611499565b503d61159d565b5084938a8a89958215610ac2576115d8926145ad565b938410610f535760209461160d857f60616c4d5fe62c12d7650ccffb45e630087ab4857c48d891b26516e350ef71e1946140c3565b61161d6040519283928784613658565b0390a26001600d55604051908152f35b5034610c965780600319360112610c96576116466136b6565b90611656604051928392836131f8565b0390f35b5034610c965780600319360112610c965760206111b6613683565b5034610c965780600319360112610c96576020600154604051908152f35b5034610c96576040366003190112610c96576116ba6116b0612fab565b6024359033614151565b602060405160018152f35b5034610c965780600319360112610c96576020604051600a8152f35b5034610c965780600319360112610c9657546040516001600160a01b039091168152602090f35b5034610c965780600319360112610c96576040515f5f80516020614cba83398151915280549061173782613071565b808552916020916001918281169081156117b55750600114611770575b6116568661176481880382613107565b60405191829182612f64565b5f90815293505f80516020614d1a8339815191525b8385106117a2575050505081016020016117648261165685611754565b8054868601840152938201938101611785565b90508695506116569693506020925061176494915060ff191682840152151560051b820101929385611754565b5034610c96576020806003193601126119a457600435906001600160401b0390818311610c925736602384011215610c92578260040135918211610c9257602436602484860101116119a0576001600160a01b0361183e61344a565b168015908115611995575b50610c75576118628361185d600554613071565b61352c565b8491601f84116001146118f65750507fdbdc84bdf4319ffa157f81d25dd54211090e37ca6a9d0b90e2b8098aaceed13592826118b88160249560409589916118e9575b508160011b915f199060031b1c19161790565b6005555b8083519485936020855282602086015201848401378181018301869052601f01601f19168101030190a180f35b879150850101355f6118a5565b600586525f80516020614c5a8339815191529291601f1985169187915b83831061197957505050926040927fdbdc84bdf4319ffa157f81d25dd54211090e37ca6a9d0b90e2b8098aaceed1359592826024961061195e575b5050600181811b016005556118bc565b83018501355f19600384901b60f8161c191690555f8061194e565b908060018697848396988c010135815501960194019190611913565b90503314155f611849565b8480fd5b5080fd5b5034610c965780600319360112610c96576116566119c4613586565b604051918291602083526020830190613189565b5034610c965780600319360112610c9657602060405168015af1d78b58c400008152f35b5034610c96576040366003190112610c965760043590611a1a612fd7565b906002600d5414610c96576002600d556001600160a01b03828116929091908315610c2d578415610ac2575f80516020614cda83398151915254611a5c613586565b90611a678251613612565b93805b8351811015611b4c5786611a7e8286613644565b511660405180916370a0823160e01b825230600483015281602460209485935afa918215611b4157918b918694938692611b0a575b505092611ac2916001946145ad565b611acc8289613644565b52611ad78188613644565b51611ae3575b01611a6a565b611b0588611af18388613644565b511687611afe848b613644565b5191614a17565b611add565b925093505082813d8311611b3a575b611b238183613107565b810103126104af5790518391908a90816001611ab3565b503d611b19565b6040513d86823e3d90fd5b5094869293889160075416906040516370a0823160e01b8152306004820152602081602481865afa908115611c67578798999795969791611c10575b507f72dfda45f3c6c752a1cbef9d63f47877b3c19dbc227919bcfbbc26673bc96e10958482611be8575b92505050611bc1915033614a50565b611bd18660405193849384613658565b0390a26001600d55611656604051928392836131f8565b611bf1926145ad565b9081611bff575b8084611bb2565b611c0892614a17565b868080611bf8565b9450506020843d602011611c5f575b81611c2c60209383613107565b810103126104af5792518693907f72dfda45f3c6c752a1cbef9d63f47877b3c19dbc227919bcfbbc26673bc96e10611b88565b3d9150611c1f565b6040513d8b823e3d90fd5b5034610c9657610160366003190112610c96576004356001600160401b0381116119a457611ca4903690600401613143565b906024356001600160401b0381116119a457611cc4903690600401613143565b91611ccd612fc1565b606435936001600160a01b03851685036104af5760a435946001600160a01b03861686036104af5760c4356001600160a01b03811681036104af5760e435906001600160a01b03821682036104af57610104356001600160401b03811161238057611d3c903690600401613143565b9761012435936001600160a01b03851685036104af5761014435956001600160a01b03871687036104af575f80516020614d3a83398151915254986001600160401b038a161580612372575b60016001600160401b038c16149081612368575b15908161235f575b5061234d5760016001600160401b03198b16175f80516020614d3a8339815191525560ff8a60401c1615612321575b6001600160a01b03891615610c2d576001600160a01b03831615610c2d576001600160a01b03841615610c2d576001600160a01b03851615610c2d576001600160a01b03871615610c2d576001600160a01b03881615610c2d57611e35614b79565b611e3d614b79565b80516001600160401b03811161230d57611e645f80516020614c7a83398151915254613071565b601f811161229d575b506020918c601f831160011461221357611e9d93909183612074575b50508160011b915f199060031b1c19161790565b5f80516020614c7a833981519152555b8051906001600160401b0382116121ff57611ed55f80516020614cba83398151915254613071565b601f811161218f575b50602090601f831160011461210457611f0d92918c91836120745750508160011b915f199060031b1c19161790565b5f80516020614cba833981519152555b6001600d556bffffffffffffffffffffffff60a01b9660018060a01b031687600254161760025560018060a01b03168689541617885560843560015560018060a01b031685600654161760065560018060a01b031684600754161760075560018060a01b031683600854161760085585516001600160401b0381116120f057611fab8161185d600554613071565b6020601f821160011461207f579080611fdc92889960ff99926120745750508160011b915f199060031b1c19161790565b6005555b6003805484166001600160a01b0392831617905560048054909316911617905542600a55670de0b6b3a764000060095560401c161561201c5780f35b68ff0000000000000000195f80516020614d3a83398151915254165f80516020614d3a833981519152557fc7f505b2f371ae2175ee4913f4499e1f2633a7b5936321eed1cdaeb6115181d2602060405160018152a180f35b015190505f80611e89565b600587525f80516020614c5a83398151915297601f198316885b8181106120d857509160ff9899918460019594106120c0575b505050811b01600555611fe0565b01515f1960f88460031b161c191690555f80806120b2565b838301518b556001909a019960209384019301612099565b634e487b7160e01b86526041600452602486fd5b5f80516020614cba8339815191528c528b92915f80516020614d1a833981519152915b601f1984168510612174576001945083601f1981161061215c575b505050811b015f80516020614cba83398151915255611f1d565b01515f1960f88460031b161c191690555f8080612142565b81810151835560209485019460019093019290910190612127565b5f80516020614cba8339815191525f52601f830160051c5f80516020614d1a83398151915201602084106121eb575b601f820160051c5f80516020614d1a8339815191520181106121e05750611ede565b5f81556001016121be565b505f80516020614d1a8339815191526121be565b634e487b7160e01b8b52604160045260248bfd5b5f80516020614c7a83398151915290528c925f80516020614c3a833981519152915b601f1984168510612282576001945083601f1981161061226a575b505050811b015f80516020614c7a83398151915255611ead565b01515f1960f88460031b161c191690555f8080612250565b81810151835560209485019460019093019290910190612235565b5f80516020614c7a8339815191525f52601f820160051c5f80516020614c3a83398151915201602083106122f9575b601f820160051c5f80516020614c3a8339815191520181106122ee5750611e6d565b5f81556001016122cc565b505f80516020614c3a8339815191526122cc565b634e487b7160e01b8c52604160045260248cfd5b68ffffffffffffffffff198a1668010000000000000001175f80516020614d3a83398151915255611dd3565b60405163f92ee8a960e01b8152600490fd5b9050155f611da4565b303b159150611d9c565b5060ff8a60401c1615611d88565b8780fd5b5034610c965780600319360112610c96576040515f6005546123a581613071565b8084529060209060019081811690811561241857506001146123d2575b6116568561176481870382613107565b60055f90815293505f80516020614c5a8339815191525b83851061240557505050508101602001611764826116566123c2565b80548686018401529382019381016123e9565b8695506116569693506020925061176494915060ff191682840152151560051b82010192936123c2565b5034610c96576020366003190112610c965760206111b6600435613500565b5034610c96576020366003190112610c96576020906040906001600160a01b03612489612fab565b1681525f80516020614c9a83398151915283522054604051908152f35b50346104af5760803660031901126104af576124c0612fab565b6124c8612fd7565b6001600160a01b039190826124db61344a565b1680159081156128ab575b50610c755782600354166040516323b872dd60e01b81523360048201523060248201526020816064815f68015af1d78b58c40000968760448401525af1801561284d5761288c575b506125428460035416856004541690614620565b83600454168460035416813b156104af575f9160448392604051948593849263280cff3560e21b845260048401528760248401525af1801561284d57612878575b5060207f1f2adcf8bd57de78c5dd99f875c6f7bd3277ff501f29f102a33c943b5cd1bbd291604051908152a182821691828552600c60205260ff604086205416158061286a575b612858576125df60443585600654168561478e565b83604051926125ed846130d0565b848452602060e0610104848416968784820152610bb8604082015230606082015242608082015260443560a082015260643560c08201525f838201525f86600654166040519b858d969463414bf38988961b8652828151166004870152828982015116602487015262ffffff60408201511660448701528260608201511660648701526080810151608487015260a081015160a487015260c081015160c487015201511660e48401525af195861561284d575f96612819575b50816007541684141580612802575b6127b7575b506007541683141580612750575b90602095849261271c575b5050506040519182528382015260443560408201528160608201527f78d5ca06608d7d576eed47ea776f7bd9a7f515a28ed040e50184036c58306b7760803392a2604051908152f35b6127467f4c910b69fe65a61f7531b9c5042b2329ca7179c77290aa7e2eb3afa3c8511fd392614950565b80a2815f806126d3565b506040516370a0823160e01b8152306004820152602081602481875afa908115610939578691612782575b50156126c8565b9190506020823d6020116127af575b8161279e60209383613107565b810103126104af579051602061277b565b3d9150612791565b6127c0906132df565b828652600c60205260408620805460ff19166001179055827f784c8f4dbf0ffedd6e72c76501c545a70f8b203b30a26ce542bf92ba87c248a48780a25f6126ba565b50838752600c60205260ff604088205416156126b5565b9095506020813d602011612845575b8161283560209383613107565b810103126104af5751945f6126a6565b3d9150612828565b6040513d5f823e3d90fd5b604051632c997c9960e01b8152600490fd5b5083600754168314156125ca565b6128839195506130a9565b5f936020612583565b6128a49060203d602011610b2357610b148183613107565b505f61252e565b90503314155f6124e6565b346104af575f3660031901126104af5760206040516105dc8152f35b346104af575f3660031901126104af57602060405160288152f35b346104af5760203660031901126104af57612906612fab565b6001600160a01b038061291761344a565b16801590811561296c575b50610c755780600854921691826bffffffffffffffffffffffff60a01b821617600855167f56b5f80d8cac1479698aa7d01605fd6111e90b15fc4d2b377417f46034876cbd5f80a3005b905033141583612922565b346104af5760203660031901126104af5760206111b66004356134c1565b346104af575f3660031901126104af5760206129af61344a565b6040516001600160a01b039091168152f35b346104af575f3660031901126104af5760206129db6133bc565b60ff60405191168152f35b346104af5760203660031901126104af576001600160a01b03612a07612fab565b165f52600c602052602060ff60405f2054166040519015158152f35b346104af575f3660031901126104af576008546040516001600160a01b039091168152602090f35b346104af5760603660031901126104af57612a64612fab565b612a6c612fd7565b60443590612a7983613039565b335f5260205260405f2054925f198410612a98575b6116ba9350614151565b828410612b03576001600160a01b03811615612aeb573315612ad357826116ba94612ac283613039565b335f526020520360405f2055612a8e565b604051634a1406b160e11b81525f6004820152602490fd5b60405163e602df0560e01b81525f6004820152602490fd5b604051637dc7a0d960e11b81523360048201526024810185905260448101849052606490fd5b346104af575f3660031901126104af576003546040516001600160a01b039091168152602090f35b346104af5760603660031901126104af576001600160401b036004358181116104af57612b82903690600401612fed565b916024359081116104af57612b9b903690600401612fed565b612ba3612fc1565b6002546001600160a01b03939192919084163303612dd4575f80516020614cda83398151915254612dc3578515610c6357818603610c51575f955f5b818110612c41575094957fd66276367741ec8cb0dad4ab6a51a3401514b0ece6d4ed4d59c740b938da234d95612c309392918015612c3557612c22905b866140c3565b604051958695169785613348565b0390a2005b50612c226103e8612c1c565b85612c506104dd83858b6132bb565b1615610c2d57612c618185856132bb565b3515610ac257612c9086612c796104dd84868c6132bb565b16612c858387876132bb565b359030903390614072565b85612c9f6104dd83858b6132bb565b165f52600c60209080825260ff60405f20541615612d89575b50866008541680612cce575b5050600101612bdf565b81612d3191612ce46104dd8688979e978e6132bb565b90612cf08d8a8a6132bb565b60075460405163151d4a5960e31b81526001600160a01b039485166004820152913560248301528c1690921660448301529092839190829081906064820190565b03915afa91821561284d575f92612d59575b5050612d5190600192613327565b979089612cc4565b90809250813d8311612d82575b612d708183613107565b810103126104af575181612d51612d43565b503d612d66565b612d9a6105f66104dd85878d6132bb565b87612da96104dd85878d6132bb565b165f52815260405f20600160ff1982541617905589612cb8565b60405162dc149f60e41b8152600490fd5b604051630636a15760e11b8152600490fd5b346104af575f3660031901126104af576020600954604051908152f35b346104af575f3660031901126104af5760205f80516020614cda83398151915254604051908152f35b346104af575f3660031901126104af576020600a54604051908152f35b346104af5760403660031901126104af57612e62612fab565b602435903315612aeb576001600160a01b0316908115612ad357612e8533613039565b825f526020528060405f20556040519081527f8c5be1e5ebec7d5bd14f71427d1e84f3dd0314c0f7b2291e5b200ac8c7c3b92560203392a3602060405160018152f35b346104af575f3660031901126104af575f5f80516020614c7a833981519152805490612ef382613071565b808552916020916001918281169081156117b55750600114612f1f576116568661176481880382613107565b5f90815293505f80516020614c3a8339815191525b838510612f51575050505081016020016117648261165685611754565b8054868601840152938201938101612f34565b602080825282518183018190529093925f5b828110612f9757505060409293505f838284010152601f8019910116010190565b818101860151848201604001528501612f76565b600435906001600160a01b03821682036104af57565b604435906001600160a01b03821682036104af57565b602435906001600160a01b03821682036104af57565b9181601f840112156104af578235916001600160401b0383116104af576020808501948460051b0101116104af57565b346104af575f3660031901126104af5760206040516103e88152f35b6001600160a01b03165f9081527f52c63247e1f47db19d5ce0460030c497f067ca4cebf71ba98eeadabe20bace016020526040902090565b90600182811c9216801561309f575b602083101461308b57565b634e487b7160e01b5f52602260045260245ffd5b91607f1691613080565b6001600160401b0381116130bc57604052565b634e487b7160e01b5f52604160045260245ffd5b61010081019081106001600160401b038211176130bc57604052565b608081019081106001600160401b038211176130bc57604052565b90601f801991011681019081106001600160401b038211176130bc57604052565b6001600160401b0381116130bc57601f01601f191660200190565b81601f820112156104af5780359061315a82613128565b926131686040519485613107565b828452602083830101116104af57815f926020809301838601378301015290565b9081518082526020808093019301915f5b8281106131a8575050505090565b83516001600160a01b03168552938101939281019260010161319a565b9081518082526020808093019301915f5b8281106131e4575050505090565b8351855293810193928101926001016131d6565b909161320f61321d93604084526040840190613189565b9160208184039101526131c5565b90565b346104af575f3660031901126104af57602060405160148152f35b60809060031901126104af5760043590602435906044356001600160a01b03811681036104af579060643580151581036104af5790565b600b548110156132a757600b5f527f0175b7a638427703f0dbe7bb9bbf987a2551717b34e79f33b5b1008d1fa01db901905f90565b634e487b7160e01b5f52603260045260245ffd5b91908110156132a75760051b0190565b356001600160a01b03811681036104af5790565b600b5490680100000000000000008210156130bc576133078260016133259401600b55613272565b90919060018060a01b038084549260031b9316831b921b1916179055565b565b9190820180921161333457565b634e487b7160e01b5f52601160045260245ffd5b9091806040830160408452526060820192905f905b808210613392575050508082036020909101528281526001600160fb1b0383116104af5760209260051b809284830137010190565b90919384359060018060a01b0382168092036104af5760019181526020809101950192019061335d565b6007546001600160a01b031680156134305760206004916040519283809263313ce56760e01b82525afa90811561284d575f916133f7575090565b90506020813d602011613428575b8161341260209383613107565b810103126104af575160ff811681036104af5790565b3d9150613405565b50601290565b51906001600160a01b03821682036104af57565b60018060a01b035f541660206001546024604051809481936331a9108f60e11b835260048301525afa5f9181613485575b5061321d57505f90565b9091506020813d6020116134b9575b816134a160209383613107565b810103126104af576134b290613436565b905f61347b565b3d9150613494565b5f80516020614cda8339815191525480156134e25761321d91610a17613ec2565b50505f90565b908160209103126104af575180151581036104af5790565b5f80516020614cda833981519152548015613528579061321d91613522613ec2565b916145ad565b5090565b601f8111613538575050565b60055f525f80516020614c5a833981519152906020601f840160051c8301931061357c575b601f0160051c01905b818110613571575050565b5f8155600101613566565b909150819061355d565b60405190600b54808352826020916020820190600b5f527f0175b7a638427703f0dbe7bb9bbf987a2551717b34e79f33b5b1008d1fa01db9935f905b8282106135d85750505061332592500383613107565b85546001600160a01b0316845260019586019588955093810193909101906135c2565b6001600160401b0381116130bc5760051b60200190565b9061361c826135fb565b6136296040519182613107565b828152809261363a601f19916135fb565b0190602036910137565b80518210156132a75760209160051b010190565b916136759061321d94928452606060208501526060840190613189565b9160408184039101526131c5565b5f80516020614cda8339815191525480156136a95761321d906136a4613ec2565b614222565b50670de0b6b3a764000090565b6136be613ec2565b600b54916040916040519384938186526020809601600b5f52857f0175b7a638427703f0dbe7bb9bbf987a2551717b34e79f33b5b1008d1fa01db9915f5b898682106138a457505061371292500386613107565b849561371d83613612565b95841561389c57505f5b838110613735575050505050565b61373e81613272565b9060018060a01b039054818560039260248951809681936370a0823160e01b8352600499308b850152881b1c165afa9283156138925790869392915f93613861575b5082613794575b5050505050600101613727565b808060085416926137a488613272565b9054911b1c169060075416946137eb89519687958694859463151d4a5960e31b8652850191939290604091606084019560018060a01b038093168552602085015216910152565b03915afa90811561385757908692915f91613823575b5060019261380e916144ee565b613818828a613644565b5290825f8080613787565b809350848092503d8311613850575b61383c8183613107565b810103126104af5790518591906001613801565b503d613832565b84513d5f823e3d90fd5b8481959294503d831161388b575b6138798183613107565b810103126104af57859251915f613780565b503d61386f565b87513d5f823e3d90fd5b965050505050565b84546001600160a01b031683526001948501948a9450920191016136fc565b9190820391821161333457565b6001600160a01b039490939092858116925f91908415610c2d578615610ac2575f80516020614cda833981519152549687159182613ebb57613910613ec2565b975b600796613927848d6007541630903390614072565b15613de75761393583614563565b93603285029480860460321490151715613dd3578b60035416946040956020875180926323b872dd60e01b8252818c816139918830336004850160409194939294606082019560018060a01b0380921683521660208201520152565b03925af18015613daa578e6139b7928492613db4575b506003546004548216911661478e565b8c600454168d60035416813b15613d3557875163280cff3560e21b81526001600160a01b03919091166004820152602481018390529089908290604490829084905af18015613daa57908991613d96575b50507f545c6966b111fe785c1b8d51435587f0d881c7db23acfd4dcc7ecee28a18420c85968051928352600160208401523392a25b613d435760409788519363b26f6bef60e01b85526004968886600481305afa958615613d39578996613c1f575b50889b895b600b54811015613b9b578f613a84828a613644565b51613a93575b50600101613a6f565b613aa7613aa0838b613644565b518b6144a4565b80613ab3575b50613a8a565b829f928f8f9391828f9380613ae2613b3697828a5416613ad287613272565b969054600397881b1c1690614847565b92613af1826008541695613272565b9054911b1c16965416925180958194829363151d4a5960e31b84526020998a98850191939290604091606084019560018060a01b038093168552602085015216910152565b03915afa918215613b90578d92613b60575b5050613b5690600192613327565b9d90508f5f613aad565b90809250813d8311613b89575b613b778183613107565b810103126104af575181613b56613b48565b503d613b6d565b508e513d8e823e3d90fd5b509550965098965098965098909950613bb59250856145ad565b968710613c0e5786927f98c25cce296dd4c6fd56d4b88376c7fc5e9c2aca916f5980c555d9efa350c73d9492613bee85613c09946140c3565b51938493846040919493926060820195825260208201520152565b0390a2565b8151633999656760e01b8152600490fd5b9095503d808a833e613c318183613107565b8101908b81830312613d35578051906001600160401b0391828111613d1557810183601f82011215613d155790818e949392516020808097613c7e613c75856135fb565b91519182613107565b838152019160051b83010191858311613d315786809101915b838310613d195750915050810151918211613d15570181601f82011215613d115780518d939291613cd3613cca836135fb565b95519586613107565b818552838086019260051b820101928311613d0d578301905b828210613cfe5750505050945f613a6a565b81518152908301908301613cec565b8c80fd5b8a80fd5b8b80fd5b8190613d2484613436565b8152019101908690613c97565b8e80fd5b8980fd5b8b513d8b823e3d90fd5b99505092508096507f98c25cce296dd4c6fd56d4b88376c7fc5e9c2aca916f5980c555d9efa350c73d949550809350613d7b916140c3565b6040805191825260208201839052810191909152606090a290565b613d9f906130a9565b61238057875f613a08565b87513d8b823e3d90fd5b613dcc9060203d602011610b2357610b148183613107565b505f6139a7565b634e487b7160e01b87526011600452602487fd5b613df08361445a565b93613dfb85856138c3565b948c8180613e3d575b50506040519081528760208201527f545c6966b111fe785c1b8d51435587f0d881c7db23acfd4dcc7ecee28a18420c60403392a2613a3d565b81613e51926007541690600454169061478e565b8c600454168d6007541690803b156104af5760405163280cff3560e21b81526001600160a01b03929092166004830152602482018390525f908290604490829084905af1801561284d57613ea8575b508c81613e04565b613eb39198506130a9565b5f965f613ea0565b5f97613912565b6008546001600160a01b0390811691908215610c3f57806007541660409081516370a0823160e01b908181526004963060048301526020926024928481602481895afa908115613892575f91614045575b50985f97600b54985b898110613f2f5750505050505050505050565b81613f3982613272565b90549060031b1c16895190858252308583015288828981845afa91821561403b575f9261400c575b5081613f72575b5050600101613f1c565b8a5163151d4a5960e31b81526001600160a01b039182168682019081526020810193909352908a166040830152919c91908890829081906060010381895afa908115614002575f91613fd4575b50613fcc90600192613327565b9b905f613f68565b90508781813d8311613ffb575b613feb8183613107565b810103126104af57516001613fbf565b503d613fe1565b8a513d5f823e3d90fd5b9091508881813d8311614034575b6140248183613107565b810103126104af5751905f613f61565b503d61401a565b8b513d5f823e3d90fd5b90508481813d831161406b575b61405c8183613107565b810103126104af57515f613f13565b503d614052565b6040516323b872dd60e01b60208201526001600160a01b0392831660248201529290911660448301526064820192909252613325916140be82608481015b03601f198101845283613107565b614b08565b6001600160a01b0316908115614139577fddf252ad1be2c89b69c2b068fc378daa952ba7f163c4a11628f55a4df523b3ef60205f925f80516020614cda833981519152614111828254613327565b90558484525f80516020614c9a833981519152825260408420818154019055604051908152a3565b60405163ec442f0560e01b81525f6004820152602490fd5b916001600160a01b0380841692831561420a571692831561413957825f525f80516020614c9a8339815191528060205260405f2054918383106141d7575091806020927fddf252ad1be2c89b69c2b068fc378daa952ba7f163c4a11628f55a4df523b3ef94865f5284520360405f2055845f5260405f20818154019055604051908152a3565b60405163391434e360e21b81526001600160a01b0391909116600482015260248101929092525060448101829052606490fd5b604051634b637e8f60e11b81525f6004820152602490fd5b670de0b6b3a764000091818302915f19848209938380861095039480860395146142af578483111561429d57829109815f038216809204600280826003021880830282030280830282030280830282030280830282030280830282030280920290030293600183805f03040190848311900302920304170290565b60405163227bc15360e01b8152600490fd5b5050809250156142bd570490565b634e487b7160e01b5f52601260045260245ffd5b90808202905f198184099082808310920391808303921461433457670de0b6b3a7640000908282111561429d577faccb18165bd6fe31ae1cf318dc5b51eee0e1ba569b88cd74c1773b91fac10669940990828211900360ee1b910360121c170290565b5050670de0b6b3a764000091500490565b6105dc818102905f198184099082808310920391808303921461439157612710908282111561429d575f80516020614cfa833981519152940990828211900360fc1b910360041c170290565b505061271091500490565b6103e8818102905f19818409908280831092039180830392146143fb576105dc908282111561429d577f8ead65b7a32846ff513cc1e098ead65b7a32846ff513cc1e098ead65b7a32847940990828211900360fe1b910360021c170290565b50506105dc91500490565b602881025f1960288309818082109103908082039114614450576127108181111561429d5760285f80516020614cfa833981519152940990828211900360fc1b910360041c170290565b5061271091500490565b601481025f1960148309818082109103908082039114614450576127108181111561429d5760145f80516020614cfa833981519152940990828211900360fc1b910360041c170290565b90808202905f198184099082808310920391808303921461439157612710908282111561429d575f80516020614cfa833981519152940990828211900360fc1b910360041c170290565b61271091818302915f19848209938380861095039480860395146142af578483111561429d57829109815f038216809204600280826003021880830282030280830282030280830282030280830282030280830282030280920290030293600183805f03040190848311900302920304170290565b600a81025f19600a8309818082109103908082039114614450576127108181111561429d57600a5f80516020614cfa833981519152940990828211900360fc1b910360041c170290565b9091828202915f19848209938380861095039480860395146142af578483111561429d57829109815f038216809204600280826003021880830282030280830282030280830282030280830282030280830282030280920290030293600183805f03040190848311900302920304170290565b604051636eb1769f60e11b81523060048201526001600160a01b0383811660248301819052939192919060209083168185604481845afa94851561284d575f9561475f575b5068015af1d78b58c4000085018095116133345760405163095ea7b360e01b8382018181526001600160a01b039095166024830152604482019690965294925f9081906146bf88606481015b03601f1981018a5289613107565b87519082855af1906146cf614ba7565b8261472c575b5081614721575b50156146ea575b5050505050565b614717946140be926040519283015260248201525f604482015260448152614711816130ec565b82614b08565b5f808080806146e3565b90503b15155f6146dc565b809192505190838215928315614747575b505050905f6146d5565b61475793508201810191016134e8565b5f838161473d565b9094508181813d8311614787575b6147778183613107565b810103126104af5751935f614665565b503d61476d565b604051636eb1769f60e11b81523060048201526001600160a01b03808416602483018190529490831693916020918282604481895afa801561284d575f90614818575b6147db9250613327565b60405163095ea7b360e01b8382018181526001600160a01b03909516602483015260448201929092529490925f9081906146bf88606481016146b1565b508282813d8311614840575b61482e8183613107565b810103126104af576147db91516147d1565b503d614824565b60065491926001600160a01b03929183169161486790829085168461478e565b60405191614874836130d0565b8252826020830194168452826040830191610bb883526060840190308252608085019042825260a0860190815260c08601915f83528460e08801945f8652816006541697826040519c8d9c8d9c8d63414bf38960e01b9052511660048d0152511660248b01525162ffffff1660448a0152511660648801525160848701525160a48601525160c4850152511660e48301525a925f61010492602095f190811561284d575f91614921575090565b90506020813d602011614948575b8161493c60209383613107565b810103126104af575190565b3d915061492f565b600b90600b54905f5b828110614967575b50505050565b61497081613272565b90546001600160a01b038481169260039290831b1c8116831461499857505050600101614959565b9291959350935f199182820191821161333457613307846149bb6149c894613272565b905490891b1c1691613272565b82548015614a035701926149db84613272565b81939154921b1b19169055555f52600c60205260405f2060ff1981541690555f808080614961565b634e487b7160e01b5f52603160045260245ffd5b60405163a9059cbb60e01b60208201526001600160a01b0390921660248301526044820192909252613325916140be82606481016140b0565b91906001600160a01b03831690811561420a57815f525f80516020614c9a8339815191528060205260405f205494828610614ad75750817fddf252ad1be2c89b69c2b068fc378daa952ba7f163c4a11628f55a4df523b3ef925f959660209386885284520360408620555f80516020614cda833981519152818154039055604051908152a3565b60405163391434e360e21b81526001600160a01b039190911660048201526024810186905260448101839052606490fd5b5f80614b309260018060a01b03169360208151910182865af1614b29614ba7565b9083614bd6565b8051908115159182614b5e575b5050614b465750565b60249060405190635274afe760e01b82526004820152fd5b614b7192506020809183010191016134e8565b155f80614b3d565b60ff5f80516020614d3a8339815191525460401c1615614b9557565b604051631afcd79f60e31b8152600490fd5b3d15614bd1573d90614bb882613128565b91614bc66040519384613107565b82523d5f602084013e565b606090565b90614bfd5750805115614beb57805190602001fd5b604051630a12f52160e11b8152600490fd5b81511580614c30575b614c0e575090565b604051639996b31560e01b81526001600160a01b039091166004820152602490fd5b50803b15614c0656fe2ae08a8e29253f69ac5d979a101956ab8f8d9d7ded63fa7a83b16fc47648eab0036b6384b5eca791c62761152d0c79bb0604c104a5fb6f4eb0703f3154bb3db052c63247e1f47db19d5ce0460030c497f067ca4cebf71ba98eeadabe20bace0352c63247e1f47db19d5ce0460030c497f067ca4cebf71ba98eeadabe20bace0052c63247e1f47db19d5ce0460030c497f067ca4cebf71ba98eeadabe20bace0452c63247e1f47db19d5ce0460030c497f067ca4cebf71ba98eeadabe20bace02bc01a36e2eb1c432ca57a786c226809d495182a9930be0ded288ce703afb7e9146a2803e59a4de4e7a4c574b1243f25977ac4c77d5a1a4a609b5394cebb4a2aaf0c57e16840df040f15088dc2f81fe391c3923bec73e23a9662efc9c229c6a00a2646970667358221220c6fec4dedbd58c046e78bba8fdf260b18a996e00e1e2115257a98a7dd7d2e9fa64736f6c63430008180033",
        "linkReferences": {}
    },
    "methodIdentifiers": {
        "BPS_DENOMINATOR()": "e1a45218",
        "DEFAULT_POOL_FEE()": "c622cd83",
        "DEPOSIT_FEE_CRT_BPS()": "a7bb36e1",
        "DEPOSIT_FEE_USDC_BPS()": "a9660fc0",
        "MIN_SHARES()": "1fcd3080",
        "PERFORMANCE_FEE_BPS()": "5b01e374",
        "PROTOCOL_PERF_FEE_BPS()": "dad89a70",
        "REBALANCE_COST()": "7d041328",
        "STRATEGY_PERF_FEE_BPS()": "bdfe1eee",
        "WITHDRAW_FEE_CRT_BPS()": "c8ad5a6e",
        "WITHDRAW_FEE_USDC_BPS()": "5689f3ac",
        "allowance(address,address)": "dd62ed3e",
        "approve(address,uint256)": "095ea7b3",
        "balanceOf(address)": "70a08231",
        "baseAsset()": "cdf456e1",
        "collectFees()": "c8796572",
        "crtToken()": "20ed8a1d",
        "decimals()": "313ce567",
        "description()": "7284e416",
        "factory()": "c45a0155",
        "feeCollector()": "c415b95c",
        "getNavPerShare()": "abd894b0",
        "getPortfolioTokens()": "8ba6a50b",
        "getPortfolioWeights()": "b26f6bef",
        "getTotalValue()": "caa648b4",
        "highWaterMark()": "1e8410da",
        "initializePortfolio(address[],uint256[],address)": "1f75d52f",
        "initializeVault(string,string,address,address,uint256,address,address,address,string,address,address)": "74d3647b",
        "isPortfolioToken(address)": "2dde8d85",
        "issue(uint256,address)": "b696a6ad",
        "issueWithBase(uint256,uint256,address,bool)": "c5be4f24",
        "lastFeeCollection()": "17a9e198",
        "manager()": "481c6a75",
        "managerNFT()": "a2fed515",
        "managerTokenId()": "ab69290a",
        "name()": "06fdde03",
        "portfolioTokens(uint256)": "cdb77de5",
        "previewIssue(uint256)": "71b74a99",
        "previewRedeem(uint256)": "4cdad506",
        "priceOracle()": "2630c12f",
        "rebalance(address,address,uint256,uint256)": "6e49db1c",
        "rebalanceToWeights(address[],uint256[])": "f1a71b1a",
        "redeem(uint256,address)": "7bde82f2",
        "redeemToBase(uint256,uint256,address,bool)": "ed747af7",
        "setDescription(string)": "90c3f38f",
        "setPriceOracle(address)": "530e784f",
        "swapRouter()": "c31c9c07",
        "symbol()": "95d89b41",
        "totalSupply()": "18160ddd",
        "transfer(address,uint256)": "a9059cbb",
        "transferFrom(address,address,uint256)": "23b872dd"
    },
    "id": 52
}