{
    "abi": [
        {
            "type": "constructor",
            "inputs": [
                {
                    "name": "_factory",
                    "type": "address",
                    "internalType": "address"
                },
                {
                    "name": "_defaultFee",
                    "type": "uint24",
                    "internalType": "uint24"
                },
                {
                    "name": "_twapPeriod",
                    "type": "uint32",
                    "internalType": "uint32"
                }
            ],
            "stateMutability": "nonpayable"
        },
        {
            "type": "function",
            "name": "FACTORY",
            "inputs": [],
            "outputs": [
                {
                    "name": "",
                    "type": "address",
                    "internalType": "contract IUniswapV3Factory"
                }
            ],
            "stateMutability": "view"
        },
        {
            "type": "function",
            "name": "_checkObservations",
            "inputs": [
                {
                    "name": "pool",
                    "type": "address",
                    "internalType": "address"
                }
            ],
            "outputs": [
                {
                    "name": "hasObservations",
                    "type": "bool",
                    "internalType": "bool"
                }
            ],
            "stateMutability": "view"
        },
        {
            "type": "function",
            "name": "defaultFee",
            "inputs": [],
            "outputs": [
                {
                    "name": "",
                    "type": "uint24",
                    "internalType": "uint24"
                }
            ],
            "stateMutability": "view"
        },
        {
            "type": "function",
            "name": "feeOverrides",
            "inputs": [
                {
                    "name": "",
                    "type": "address",
                    "internalType": "address"
                },
                {
                    "name": "",
                    "type": "address",
                    "internalType": "address"
                }
            ],
            "outputs": [
                {
                    "name": "",
                    "type": "uint24",
                    "internalType": "uint24"
                }
            ],
            "stateMutability": "view"
        },
        {
            "type": "function",
            "name": "getPrice",
            "inputs": [
                {
                    "name": "token",
                    "type": "address",
                    "internalType": "address"
                },
                {
                    "name": "baseAsset",
                    "type": "address",
                    "internalType": "address"
                }
            ],
            "outputs": [
                {
                    "name": "price",
                    "type": "uint256",
                    "internalType": "uint256"
                }
            ],
            "stateMutability": "view"
        },
        {
            "type": "function",
            "name": "getValue",
            "inputs": [
                {
                    "name": "token",
                    "type": "address",
                    "internalType": "address"
                },
                {
                    "name": "amount",
                    "type": "uint256",
                    "internalType": "uint256"
                },
                {
                    "name": "baseAsset",
                    "type": "address",
                    "internalType": "address"
                }
            ],
            "outputs": [
                {
                    "name": "value",
                    "type": "uint256",
                    "internalType": "uint256"
                }
            ],
            "stateMutability": "view"
        },
        {
            "type": "function",
            "name": "isPriceAvailable",
            "inputs": [
                {
                    "name": "token",
                    "type": "address",
                    "internalType": "address"
                },
                {
                    "name": "baseAsset",
                    "type": "address",
                    "internalType": "address"
                }
            ],
            "outputs": [
                {
                    "name": "",
                    "type": "bool",
                    "internalType": "bool"
                }
            ],
            "stateMutability": "view"
        },
        {
            "type": "function",
            "name": "owner",
            "inputs": [],
            "outputs": [
                {
                    "name": "",
                    "type": "address",
                    "internalType": "address"
                }
            ],
            "stateMutability": "view"
        },
        {
            "type": "function",
            "name": "poolOverrides",
            "inputs": [
                {
                    "name": "",
                    "type": "address",
                    "internalType": "address"
                },
                {
                    "name": "",
                    "type": "address",
                    "internalType": "address"
                }
            ],
            "outputs": [
                {
                    "name": "",
                    "type": "address",
                    "internalType": "address"
                }
            ],
            "stateMutability": "view"
        },
        {
            "type": "function",
            "name": "renounceOwnership",
            "inputs": [],
            "outputs": [],
            "stateMutability": "nonpayable"
        },
        {
            "type": "function",
            "name": "setDefaultFee",
            "inputs": [
                {
                    "name": "newFee",
                    "type": "uint24",
                    "internalType": "uint24"
                }
            ],
            "outputs": [],
            "stateMutability": "nonpayable"
        },
        {
            "type": "function",
            "name": "setFeeOverride",
            "inputs": [
                {
                    "name": "token",
                    "type": "address",
                    "internalType": "address"
                },
                {
                    "name": "baseAsset",
                    "type": "address",
                    "internalType": "address"
                },
                {
                    "name": "fee",
                    "type": "uint24",
                    "internalType": "uint24"
                }
            ],
            "outputs": [],
            "stateMutability": "nonpayable"
        },
        {
            "type": "function",
            "name": "setPoolOverride",
            "inputs": [
                {
                    "name": "token",
                    "type": "address",
                    "internalType": "address"
                },
                {
                    "name": "baseAsset",
                    "type": "address",
                    "internalType": "address"
                },
                {
                    "name": "pool",
                    "type": "address",
                    "internalType": "address"
                }
            ],
            "outputs": [],
            "stateMutability": "nonpayable"
        },
        {
            "type": "function",
            "name": "setTWAPPeriod",
            "inputs": [
                {
                    "name": "newPeriod",
                    "type": "uint32",
                    "internalType": "uint32"
                }
            ],
            "outputs": [],
            "stateMutability": "nonpayable"
        },
        {
            "type": "function",
            "name": "transferOwnership",
            "inputs": [
                {
                    "name": "newOwner",
                    "type": "address",
                    "internalType": "address"
                }
            ],
            "outputs": [],
            "stateMutability": "nonpayable"
        },
        {
            "type": "function",
            "name": "twapPeriod",
            "inputs": [],
            "outputs": [
                {
                    "name": "",
                    "type": "uint32",
                    "internalType": "uint32"
                }
            ],
            "stateMutability": "view"
        },
        {
            "type": "event",
            "name": "DefaultFeeUpdated",
            "inputs": [
                {
                    "name": "oldFee",
                    "type": "uint24",
                    "indexed": false,
                    "internalType": "uint24"
                },
                {
                    "name": "newFee",
                    "type": "uint24",
                    "indexed": false,
                    "internalType": "uint24"
                }
            ],
            "anonymous": false
        },
        {
            "type": "event",
            "name": "FeeOverrideSet",
            "inputs": [
                {
                    "name": "token",
                    "type": "address",
                    "indexed": true,
                    "internalType": "address"
                },
                {
                    "name": "baseAsset",
                    "type": "address",
                    "indexed": true,
                    "internalType": "address"
                },
                {
                    "name": "fee",
                    "type": "uint24",
                    "indexed": false,
                    "internalType": "uint24"
                }
            ],
            "anonymous": false
        },
        {
            "type": "event",
            "name": "OwnershipTransferred",
            "inputs": [
                {
                    "name": "previousOwner",
                    "type": "address",
                    "indexed": true,
                    "internalType": "address"
                },
                {
                    "name": "newOwner",
                    "type": "address",
                    "indexed": true,
                    "internalType": "address"
                }
            ],
            "anonymous": false
        },
        {
            "type": "event",
            "name": "PoolOverrideSet",
            "inputs": [
                {
                    "name": "token",
                    "type": "address",
                    "indexed": true,
                    "internalType": "address"
                },
                {
                    "name": "baseAsset",
                    "type": "address",
                    "indexed": true,
                    "internalType": "address"
                },
                {
                    "name": "pool",
                    "type": "address",
                    "indexed": false,
                    "internalType": "address"
                }
            ],
            "anonymous": false
        },
        {
            "type": "event",
            "name": "TWAPPeriodUpdated",
            "inputs": [
                {
                    "name": "oldPeriod",
                    "type": "uint32",
                    "indexed": false,
                    "internalType": "uint32"
                },
                {
                    "name": "newPeriod",
                    "type": "uint32",
                    "indexed": false,
                    "internalType": "uint32"
                }
            ],
            "anonymous": false
        },
        {
            "type": "error",
            "name": "InsufficientObservations",
            "inputs": []
        },
        {
            "type": "error",
            "name": "InvalidTWAPPeriod",
            "inputs": []
        },
        {
            "type": "error",
            "name": "OwnableInvalidOwner",
            "inputs": [
                {
                    "name": "owner",
                    "type": "address",
                    "internalType": "address"
                }
            ]
        },
        {
            "type": "error",
            "name": "OwnableUnauthorizedAccount",
            "inputs": [
                {
                    "name": "account",
                    "type": "address",
                    "internalType": "address"
                }
            ]
        },
        {
            "type": "error",
            "name": "PoolNotFound",
            "inputs": []
        },
        {
            "type": "error",
            "name": "ZeroAddress",
            "inputs": []
        }
    ],
    "bytecode": {
        "object": "0x60a03461015357601f61179738819003918201601f191683019291906001600160401b038411838510176101575781606092849260409687528339810103126101535780516001600160a01b039190828116908190036101535760208201519162ffffff83168303610153578401519063ffffffff821680830361015357331561013c575f5494865190339087167f8be0079c531659141344cd1fd0a4f28419497f9722a3daafe3b4186f6b6457e05f80a3821561012d57501561011c5760805260c09190911b62ffffff60c01b166001600160d81b03199092163366ffffffffffffff60a01b1916179190911760a09190911b63ffffffff60a01b16175f555161162b908161016c82396080518181816105b70152610c4a0152f35b8451638bd931d160e01b8152600490fd5b63d92e233d60e01b8152600490fd5b8551631e4fbdf760e01b81525f6004820152602490fd5b5f80fd5b634e487b7160e01b5f52604160045260245ffdfe6080604081815260049182361015610015575f80fd5b5f3560e01c908163097ae3e91461069c5750806319c982bc146105e65780632dd31000146105a35780633a0d5443146105255780633fde8950146104ef5780635a6c72d0146104ca5780636c2057241461040d5780636e96e89a146103bf578063715018a6146103685780638da5cb5b14610341578063a8ea52c81461030f578063ac41865a146102db578063ccc73c6a1461021d578063f2fde38b14610190578063f62073261461016a5763fcf2280c146100cf575f80fd5b346101665760203660031901126101665781359063ffffffff80831693848403610166576100fb610b8c565b84156101585750907fa03165f5d92245372ddfeea61f300c7625e32c7d9a6ee9baf046deec7602ab00915f54948251918660a01c1682526020820152a163ffffffff60a01b1990911660a09190911b63ffffffff60a01b16175f55005b8251638bd931d160e01b8152fd5b5f80fd5b5034610166575f3660031901126101665760209063ffffffff5f5460a01c169051908152f35b509034610166576020366003190112610166576101ab6106ea565b906101b4610b8c565b6001600160a01b039182169283156102075750505f54826bffffffffffffffffffffffff60a01b8216175f55167f8be0079c531659141344cd1fd0a4f28419497f9722a3daafe3b4186f6b6457e05f80a3005b905f6024925191631e4fbdf760e01b8352820152fd5b5034610166576020366003190112610166575f61028c9261023c6106ea565b8351916102488361072c565b600283528436602085013763ffffffff845460a01c1661026784610a1c565b528361027284610a3d565b52845180968194829363883bdbfd60e01b84528301610b4b565b03916001600160a01b03165afa9182156102d1576020926102b0575b505160018152f35b6102cb903d805f833e6102c3818361075c565b810190610a4d565b506102a8565b50513d5f823e3d90fd5b50346101665780600319360112610166576020906103086102fa6106ea565b610302610700565b906108d6565b9051908152f35b50346101665760603660031901126101665760209061030861032f6106ea565b610337610716565b906024359061081d565b5034610166575f366003190112610166575f5490516001600160a01b039091168152602090f35b34610166575f36600319011261016657610380610b8c565b5f80546001600160a01b0319811682556001600160a01b03167f8be0079c531659141344cd1fd0a4f28419497f9722a3daafe3b4186f6b6457e08280a3005b50346101665780600319360112610166576020906103db6106ea565b6103e3610700565b6001600160a01b039182165f90815260018552838120918316815290845282902054915191168152f35b509034610166576060366003190112610166576104286106ea565b610430610700565b926044359162ffffff83168093036101665761044a610b8c565b6001600160a01b0390811693841580156104c0575b6104b25750916020917f2d148d48ec3271073992288082ea2a996c3ab46e24cb747f69d95d3538dfddfc93855f5260028452815f20961695865f528352805f208262ffffff1982541617905551908152a3005b825163d92e233d60e01b8152fd5b508186161561045f565b5034610166575f3660031901126101665760209062ffffff5f5460c01c169051908152f35b503461016657806003193601126101665760209061051c61050e6106ea565b610516610700565b9061077e565b90519015158152f35b509034610166576020366003190112610166573562ffffff80821692838303610166577f01a1bbe309ec429355ea468148668665a4aeda14e2d0aada3ee4e741af2741e591610572610b8c565b5f54948251918660c01c1682526020820152a162ffffff60c01b1990911660c09190911b62ffffff60c01b16175f55005b5034610166575f36600319011261016657517f00000000000000000000000000000000000000000000000000000000000000006001600160a01b03168152602090f35b509034610166576060366003190112610166576106016106ea565b610609610700565b92610612610716565b9161061b610b8c565b6001600160a01b039081169384158015610692575b6104b25750916020917fd9af505fc1c48a28e3ae3afc6b5db61fca30862d8f3059874d12b061cb7d66f193855f526001845280825f20971696875f528452815f20921691826bffffffffffffffffffffffff60a01b82541617905551908152a3005b5081861615610630565b90503461016657816003193601126101665762ffffff6020926106bd6106ea565b6106c5610700565b6001600160a01b039182165f9081526002875283812091909216825285522054168152f35b600435906001600160a01b038216820361016657565b602435906001600160a01b038216820361016657565b604435906001600160a01b038216820361016657565b6060810190811067ffffffffffffffff82111761074857604052565b634e487b7160e01b5f52604160045260245ffd5b90601f8019910116810190811067ffffffffffffffff82111761074857604052565b6001600160a01b0391818316818416146108155761079b91610bb7565b16801561081057604051906366639e3560e11b82526004820152602081602481305afa5f91816107d3575b506107d057505f90565b90565b9091506020813d602011610808575b816107ef6020938361075c565b810103126101665751801515810361016657905f6107c6565b3d91506107e2565b505f90565b505050600190565b6001600160a01b039291838216848416146108735761083c8383610bb7565b93841615610861576001600160801b036108586107d095610cf4565b50911690610ec9565b6040516301dbb3ff60e61b8152600490fd5b9250505090565b90816020910312610166575160ff811681036101665790565b60ff16604d81116108a457600a0a90565b634e487b7160e01b5f52601160045260245ffd5b81156108c2570490565b634e487b7160e01b5f52601260045260245ffd5b6001600160a01b0381811691838216918383146109f3576108f78583610bb7565b908116156108615761090890610cf4565b509060405194859163313ce56760e01b958684528360046020998a935afa9384156109cb576001600160801b0361094b8996610952965f916109d6575b50610893565b1690610ec9565b9260046040518094819382525afa9283156109cb575f9361099c575b5050670de0b6b3a7640000908181029181830414901517156108a4576109966107d092610893565b906108b8565b6109bc929350803d106109c4575b6109b4818361075c565b81019061087a565b905f8061096e565b503d6109aa565b6040513d5f823e3d90fd5b6109ed9150883d8a116109c4576109b4818361075c565b5f610945565b5050505050670de0b6b3a764000090565b67ffffffffffffffff81116107485760051b60200190565b805115610a295760200190565b634e487b7160e01b5f52603260045260245ffd5b805160011015610a295760400190565b919060408382031261016657825167ffffffffffffffff908181116101665784019082601f83011215610166578151602092610a8882610a04565b91610a96604051938461075c565b808352848084019160051b83010191868311610166578501905b828210610b3257505050948281015191821161016657019180601f84011215610166578251610ade81610a04565b93610aec604051958661075c565b818552838086019260051b820101928311610166578301905b828210610b13575050505090565b81516001600160a01b0381168103610166578152908301908301610b05565b81518060060b8103610166578152908501908501610ab0565b60209060206040818301928281528551809452019301915f5b828110610b72575050505090565b835163ffffffff1685529381019392810192600101610b64565b5f546001600160a01b03163303610b9f57565b60405163118cdaa760e01b8152336004820152602490fd5b60018060a01b03809116805f5260206001815260409383855f20911690815f52825283855f20541680610ceb575060018252845f20835f52825283855f20541680610ceb575060028252845f20815f52825262ffffff9081865f205416908115610cd1575b82821615610cc3575b865194630b4c774160e11b8652600486015260248501521660448301528082606481867f0000000000000000000000000000000000000000000000000000000000000000165afa938415610cba57505f93610c81575b50505090565b9080929350813d8311610cb3575b610c99818361075c565b8101031261016657519081168103610166575f8080610c7b565b503d610c8f565b513d5f823e3d90fd5b5f5460c01c83169150610c25565b905060028352855f20845f52835281865f20541690610c1c565b94505050505090565b9060405191610d028361072c565b60028352604036602085013763ffffffff5f5460a01c169081610d2485610a1c565b525f610d2f85610a3d565b5260018060a01b03905f604051809263883bdbfd60e01b8252818581610d5960049b8c8301610b4b565b0392165afa9081156109cb575f905f92610eac575b50610d82610d7b82610a3d565b5191610a1c565b5160060b9060060b0394667fffffffffffff1991667fffffffffffff871383881217610e995783610dbe81610db684610a3d565b511692610a1c565b5116900391838311610e99578460060b9660060b8715610e86575f1991811488831416610e735787810560020b975f82129182610e64575b5050610e3c575b5082840293808504841490151715610e29575091610e25916001600160801b039316906108b8565b1690565b601190634e487b7160e01b5f525260245ffd5b9095627fffff198114610e515701945f610dfd565b601187634e487b7160e01b5f525260245ffd5b0760060b151590505f80610df6565b601183634e487b7160e01b5f525260245ffd5b601283634e487b7160e01b5f525260245ffd5b601182634e487b7160e01b5f525260245ffd5b9050610ec291503d805f833e6102c3818361075c565b905f610d6e565b9291909260020b905f82125f1461141c57600160ff1b82146108a457815f03915b620d89e883116113f35760018316156113e1576001600160881b036ffffcb933bd6fad37aa2d162d1a5940015b16600284166113b7575b60049384811661138b575b6008811661135f575b60108116611333575b60208116611307575b604081166112db575b6080908181166112b0575b6101008116611285575b610200811661125a575b610400811661122f575b6108008116611204575b61100081166111d9575b61200081166111ae575b6140008116611183575b6180008116611158575b62010000811661112d575b620200008116611103575b6204000081166110c7575b620800001661108f575b50905f12611081575b63ffffffff8160201c9116155f146110785760ff5f5b168101809111610e73576001600160a01b03908116936001600160801b039384861161104c5785800295808704811490151715610e295750811691161015611042576107d09216906115b1565b6107d09216611537565b5093611059818392611422565b94169116101561106e576107d09216906114f3565b6107d0921661146b565b60ff6001610ff5565b8015610e86575f1904610fdf565b6b048a170391f7dc42444e8fa2918281029281840414901517156110b4571c5f610fd6565b601185634e487b7160e01b5f525260245ffd5b916d2216e584f5fa1ea926041bedfe98908181029181830414901517156110f057811c91610fcc565b601186634e487b7160e01b5f525260245ffd5b916e5d6af8dedb81196699c329225ee604908181029181830414901517156110f057811c91610fc1565b916f09aa508b5b7a84e1c677de54f3e99bc9908181029181830414901517156110f057811c91610fb6565b916f31be135f97d08fd981231505542fcfa6908181029181830414901517156110f057811c91610fab565b916f70d869a156d2a1b890bb3df62baf32f7908181029181830414901517156110f057811c91610fa1565b916fa9f746462d870fdf8a65dc1f90e061e5908181029181830414901517156110f057811c91610f97565b916fd097f3bdfd2022b8845ad8f792aa5825908181029181830414901517156110f057811c91610f8d565b916fe7159475a2c29b7443b29c7fa6e889d9908181029181830414901517156110f057811c91610f83565b916ff3392b0822b70005940c7a398e4b70f3908181029181830414901517156110f057811c91610f79565b916ff987a7253ac413176f2b074cf7815e54908181029181830414901517156110f057811c91610f6f565b916ffcbe86c7900a88aedcffc83b479aa3a4908181029181830414901517156110f057811c91610f65565b916ffe5dee046a99a2a811c461f1969c3053908181029181830414901517156110f057811c91610f5b565b906fff2ea16466c96a3843ec78b326b52861908181029181830414901517156110b45760801c90610f50565b906fff973b41fa98c081472e6896dfb254c0908181029181830414901517156110b45760801c90610f47565b906fffcb9843d60f6159c9db58835c926644908181029181830414901517156110b45760801c90610f3e565b906fffe5caca7e10e4e61c3624eaa0941cd0908181029181830414901517156110b45760801c90610f35565b906ffff2e50f5f656932ef12357cf3c7fdcc908181029181830414901517156110b45760801c90610f2c565b6ffff97272373d413259a46990580e213a908181029181830414901517156108a45760801c610f21565b6001600160881b03600160801b610f17565b60405162461bcd60e51b81526020600482015260016024820152601560fa1b6044820152606490fd5b81610eea565b5f19828209908281029283808410930392808403931461146257680100000000000000009183831115610166570990828211900360c01b910360401c1790565b50505060401c90565b600160801b915f19828409928260801b928380861095039480860395146114e557848311156101665782910960018219018216809204600280826003021880830282030280830282030280830282030280830282030280830282030280920290030293600183805f03040190848311900302920304170290565b505080925015610166570490565b5f19828209908281029283808410930392808403931461152e57600160801b9183831115610166570990828211900360801b910360801c1790565b50505060801c90565b600160c01b915f19828409928260c01b928380861095039480860395146114e557848311156101665782910960018219018216809204600280826003021880830282030280830282030280830282030280830282030280830282030280920290030293600183805f03040190848311900302920304170290565b5f1982820990828102928380841093039280840393146115ec57600160c01b9183831115610166570990828211900360401b910360c01c1790565b50505060c01c9056fea264697066735822122024b4b161f22ded611e4d2cd01b7d56e43e7fe0747d7215d0fea710eaeeb603b664736f6c63430008180033",
        "linkReferences": {}
    },
    "methodIdentifiers": {
        "FACTORY()": "2dd31000",
        "_checkObservations(address)": "ccc73c6a",
        "defaultFee()": "5a6c72d0",
        "feeOverrides(address,address)": "097ae3e9",
        "getPrice(address,address)": "ac41865a",
        "getValue(address,uint256,address)": "a8ea52c8",
        "isPriceAvailable(address,address)": "3fde8950",
        "owner()": "8da5cb5b",
        "poolOverrides(address,address)": "6e96e89a",
        "renounceOwnership()": "715018a6",
        "setDefaultFee(uint24)": "3a0d5443",
        "setFeeOverride(address,address,uint24)": "6c205724",
        "setPoolOverride(address,address,address)": "19c982bc",
        "setTWAPPeriod(uint32)": "fcf2280c",
        "transferOwnership(address)": "f2fde38b",
        "twapPeriod()": "f6207326"
    },
    "id": 49
}