{
    "abi": [
        {
            "type": "constructor",
            "inputs": [
                {
                    "name": "initialOwner",
                    "type": "address",
                    "internalType": "address"
                }
            ],
            "stateMutability": "nonpayable"
        },
        {
            "type": "function",
            "name": "approve",
            "inputs": [
                {
                    "name": "to",
                    "type": "address",
                    "internalType": "address"
                },
                {
                    "name": "tokenId",
                    "type": "uint256",
                    "internalType": "uint256"
                }
            ],
            "outputs": [],
            "stateMutability": "nonpayable"
        },
        {
            "type": "function",
            "name": "balanceOf",
            "inputs": [
                {
                    "name": "owner",
                    "type": "address",
                    "internalType": "address"
                }
            ],
            "outputs": [
                {
                    "name": "",
                    "type": "uint256",
                    "internalType": "uint256"
                }
            ],
            "stateMutability": "view"
        },
        {
            "type": "function",
            "name": "baseURI",
            "inputs": [],
            "outputs": [
                {
                    "name": "",
                    "type": "string",
                    "internalType": "string"
                }
            ],
            "stateMutability": "view"
        },
        {
            "type": "function",
            "name": "burn",
            "inputs": [
                {
                    "name": "tokenId",
                    "type": "uint256",
                    "internalType": "uint256"
                }
            ],
            "outputs": [],
            "stateMutability": "nonpayable"
        },
        {
            "type": "function",
            "name": "factory",
            "inputs": [],
            "outputs": [
                {
                    "name": "",
                    "type": "address",
                    "internalType": "address"
                }
            ],
            "stateMutability": "view"
        },
        {
            "type": "function",
            "name": "getApproved",
            "inputs": [
                {
                    "name": "tokenId",
                    "type": "uint256",
                    "internalType": "uint256"
                }
            ],
            "outputs": [
                {
                    "name": "",
                    "type": "address",
                    "internalType": "address"
                }
            ],
            "stateMutability": "view"
        },
        {
            "type": "function",
            "name": "getVaultManager",
            "inputs": [
                {
                    "name": "vault",
                    "type": "address",
                    "internalType": "address"
                }
            ],
            "outputs": [
                {
                    "name": "",
                    "type": "address",
                    "internalType": "address"
                }
            ],
            "stateMutability": "view"
        },
        {
            "type": "function",
            "name": "isApprovedForAll",
            "inputs": [
                {
                    "name": "owner",
                    "type": "address",
                    "internalType": "address"
                },
                {
                    "name": "operator",
                    "type": "address",
                    "internalType": "address"
                }
            ],
            "outputs": [
                {
                    "name": "",
                    "type": "bool",
                    "internalType": "bool"
                }
            ],
            "stateMutability": "view"
        },
        {
            "type": "function",
            "name": "isManager",
            "inputs": [
                {
                    "name": "vault",
                    "type": "address",
                    "internalType": "address"
                },
                {
                    "name": "account",
                    "type": "address",
                    "internalType": "address"
                }
            ],
            "outputs": [
                {
                    "name": "",
                    "type": "bool",
                    "internalType": "bool"
                }
            ],
            "stateMutability": "view"
        },
        {
            "type": "function",
            "name": "mintManagerNFT",
            "inputs": [
                {
                    "name": "to",
                    "type": "address",
                    "internalType": "address"
                },
                {
                    "name": "vault",
                    "type": "address",
                    "internalType": "address"
                },
                {
                    "name": "imageURI",
                    "type": "string",
                    "internalType": "string"
                }
            ],
            "outputs": [
                {
                    "name": "",
                    "type": "uint256",
                    "internalType": "uint256"
                }
            ],
            "stateMutability": "nonpayable"
        },
        {
            "type": "function",
            "name": "name",
            "inputs": [],
            "outputs": [
                {
                    "name": "",
                    "type": "string",
                    "internalType": "string"
                }
            ],
            "stateMutability": "view"
        },
        {
            "type": "function",
            "name": "owner",
            "inputs": [],
            "outputs": [
                {
                    "name": "",
                    "type": "address",
                    "internalType": "address"
                }
            ],
            "stateMutability": "view"
        },
        {
            "type": "function",
            "name": "ownerOf",
            "inputs": [
                {
                    "name": "tokenId",
                    "type": "uint256",
                    "internalType": "uint256"
                }
            ],
            "outputs": [
                {
                    "name": "",
                    "type": "address",
                    "internalType": "address"
                }
            ],
            "stateMutability": "view"
        },
        {
            "type": "function",
            "name": "renounceOwnership",
            "inputs": [],
            "outputs": [],
            "stateMutability": "nonpayable"
        },
        {
            "type": "function",
            "name": "safeTransferFrom",
            "inputs": [
                {
                    "name": "from",
                    "type": "address",
                    "internalType": "address"
                },
                {
                    "name": "to",
                    "type": "address",
                    "internalType": "address"
                },
                {
                    "name": "tokenId",
                    "type": "uint256",
                    "internalType": "uint256"
                }
            ],
            "outputs": [],
            "stateMutability": "nonpayable"
        },
        {
            "type": "function",
            "name": "safeTransferFrom",
            "inputs": [
                {
                    "name": "from",
                    "type": "address",
                    "internalType": "address"
                },
                {
                    "name": "to",
                    "type": "address",
                    "internalType": "address"
                },
                {
                    "name": "tokenId",
                    "type": "uint256",
                    "internalType": "uint256"
                },
                {
                    "name": "data",
                    "type": "bytes",
                    "internalType": "bytes"
                }
            ],
            "outputs": [],
            "stateMutability": "nonpayable"
        },
        {
            "type": "function",
            "name": "setApprovalForAll",
            "inputs": [
                {
                    "name": "operator",
                    "type": "address",
                    "internalType": "address"
                },
                {
                    "name": "approved",
                    "type": "bool",
                    "internalType": "bool"
                }
            ],
            "outputs": [],
            "stateMutability": "nonpayable"
        },
        {
            "type": "function",
            "name": "setBaseURI",
            "inputs": [
                {
                    "name": "baseURI_",
                    "type": "string",
                    "internalType": "string"
                }
            ],
            "outputs": [],
            "stateMutability": "nonpayable"
        },
        {
            "type": "function",
            "name": "setFactory",
            "inputs": [
                {
                    "name": "_factory",
                    "type": "address",
                    "internalType": "address"
                }
            ],
            "outputs": [],
            "stateMutability": "nonpayable"
        },
        {
            "type": "function",
            "name": "setVaultAddress",
            "inputs": [
                {
                    "name": "tokenId",
                    "type": "uint256",
                    "internalType": "uint256"
                },
                {
                    "name": "vault",
                    "type": "address",
                    "internalType": "address"
                }
            ],
            "outputs": [],
            "stateMutability": "nonpayable"
        },
        {
            "type": "function",
            "name": "supportsInterface",
            "inputs": [
                {
                    "name": "interfaceId",
                    "type": "bytes4",
                    "internalType": "bytes4"
                }
            ],
            "outputs": [
                {
                    "name": "",
                    "type": "bool",
                    "internalType": "bool"
                }
            ],
            "stateMutability": "view"
        },
        {
            "type": "function",
            "name": "symbol",
            "inputs": [],
            "outputs": [
                {
                    "name": "",
                    "type": "string",
                    "internalType": "string"
                }
            ],
            "stateMutability": "view"
        },
        {
            "type": "function",
            "name": "tokenToVault",
            "inputs": [
                {
                    "name": "",
                    "type": "uint256",
                    "internalType": "uint256"
                }
            ],
            "outputs": [
                {
                    "name": "",
                    "type": "address",
                    "internalType": "address"
                }
            ],
            "stateMutability": "view"
        },
        {
            "type": "function",
            "name": "tokenURI",
            "inputs": [
                {
                    "name": "tokenId",
                    "type": "uint256",
                    "internalType": "uint256"
                }
            ],
            "outputs": [
                {
                    "name": "",
                    "type": "string",
                    "internalType": "string"
                }
            ],
            "stateMutability": "view"
        },
        {
            "type": "function",
            "name": "totalSupply",
            "inputs": [],
            "outputs": [
                {
                    "name": "",
                    "type": "uint256",
                    "internalType": "uint256"
                }
            ],
            "stateMutability": "view"
        },
        {
            "type": "function",
            "name": "transferFrom",
            "inputs": [
                {
                    "name": "from",
                    "type": "address",
                    "internalType": "address"
                },
                {
                    "name": "to",
                    "type": "address",
                    "internalType": "address"
                },
                {
                    "name": "tokenId",
                    "type": "uint256",
                    "internalType": "uint256"
                }
            ],
            "outputs": [],
            "stateMutability": "nonpayable"
        },
        {
            "type": "function",
            "name": "transferOwnership",
            "inputs": [
                {
                    "name": "newOwner",
                    "type": "address",
                    "internalType": "address"
                }
            ],
            "outputs": [],
            "stateMutability": "nonpayable"
        },
        {
            "type": "function",
            "name": "vaultImageURI",
            "inputs": [
                {
                    "name": "",
                    "type": "uint256",
                    "internalType": "uint256"
                }
            ],
            "outputs": [
                {
                    "name": "",
                    "type": "string",
                    "internalType": "string"
                }
            ],
            "stateMutability": "view"
        },
        {
            "type": "function",
            "name": "vaultToToken",
            "inputs": [
                {
                    "name": "",
                    "type": "address",
                    "internalType": "address"
                }
            ],
            "outputs": [
                {
                    "name": "",
                    "type": "uint256",
                    "internalType": "uint256"
                }
            ],
            "stateMutability": "view"
        },
        {
            "type": "event",
            "name": "Approval",
            "inputs": [
                {
                    "name": "owner",
                    "type": "address",
                    "indexed": true,
                    "internalType": "address"
                },
                {
                    "name": "approved",
                    "type": "address",
                    "indexed": true,
                    "internalType": "address"
                },
                {
                    "name": "tokenId",
                    "type": "uint256",
                    "indexed": true,
                    "internalType": "uint256"
                }
            ],
            "anonymous": false
        },
        {
            "type": "event",
            "name": "ApprovalForAll",
            "inputs": [
                {
                    "name": "owner",
                    "type": "address",
                    "indexed": true,
                    "internalType": "address"
                },
                {
                    "name": "operator",
                    "type": "address",
                    "indexed": true,
                    "internalType": "address"
                },
                {
                    "name": "approved",
                    "type": "bool",
                    "indexed": false,
                    "internalType": "bool"
                }
            ],
            "anonymous": false
        },
        {
            "type": "event",
            "name": "BaseURIUpdated",
            "inputs": [
                {
                    "name": "oldBaseURI",
                    "type": "string",
                    "indexed": false,
                    "internalType": "string"
                },
                {
                    "name": "newBaseURI",
                    "type": "string",
                    "indexed": false,
                    "internalType": "string"
                }
            ],
            "anonymous": false
        },
        {
            "type": "event",
            "name": "FactorySet",
            "inputs": [
                {
                    "name": "factory",
                    "type": "address",
                    "indexed": true,
                    "internalType": "address"
                }
            ],
            "anonymous": false
        },
        {
            "type": "event",
            "name": "ManagerNFTMinted",
            "inputs": [
                {
                    "name": "tokenId",
                    "type": "uint256",
                    "indexed": true,
                    "internalType": "uint256"
                },
                {
                    "name": "vault",
                    "type": "address",
                    "indexed": true,
                    "internalType": "address"
                },
                {
                    "name": "manager",
                    "type": "address",
                    "indexed": true,
                    "internalType": "address"
                }
            ],
            "anonymous": false
        },
        {
            "type": "event",
            "name": "OwnershipTransferred",
            "inputs": [
                {
                    "name": "previousOwner",
                    "type": "address",
                    "indexed": true,
                    "internalType": "address"
                },
                {
                    "name": "newOwner",
                    "type": "address",
                    "indexed": true,
                    "internalType": "address"
                }
            ],
            "anonymous": false
        },
        {
            "type": "event",
            "name": "Transfer",
            "inputs": [
                {
                    "name": "from",
                    "type": "address",
                    "indexed": true,
                    "internalType": "address"
                },
                {
                    "name": "to",
                    "type": "address",
                    "indexed": true,
                    "internalType": "address"
                },
                {
                    "name": "tokenId",
                    "type": "uint256",
                    "indexed": true,
                    "internalType": "uint256"
                }
            ],
            "anonymous": false
        },
        {
            "type": "error",
            "name": "ERC721IncorrectOwner",
            "inputs": [
                {
                    "name": "sender",
                    "type": "address",
                    "internalType": "address"
                },
                {
                    "name": "tokenId",
                    "type": "uint256",
                    "internalType": "uint256"
                },
                {
                    "name": "owner",
                    "type": "address",
                    "internalType": "address"
                }
            ]
        },
        {
            "type": "error",
            "name": "ERC721InsufficientApproval",
            "inputs": [
                {
                    "name": "operator",
                    "type": "address",
                    "internalType": "address"
                },
                {
                    "name": "tokenId",
                    "type": "uint256",
                    "internalType": "uint256"
                }
            ]
        },
        {
            "type": "error",
            "name": "ERC721InvalidApprover",
            "inputs": [
                {
                    "name": "approver",
                    "type": "address",
                    "internalType": "address"
                }
            ]
        },
        {
            "type": "error",
            "name": "ERC721InvalidOperator",
            "inputs": [
                {
                    "name": "operator",
                    "type": "address",
                    "internalType": "address"
                }
            ]
        },
        {
            "type": "error",
            "name": "ERC721InvalidOwner",
            "inputs": [
                {
                    "name": "owner",
                    "type": "address",
                    "internalType": "address"
                }
            ]
        },
        {
            "type": "error",
            "name": "ERC721InvalidReceiver",
            "inputs": [
                {
                    "name": "receiver",
                    "type": "address",
                    "internalType": "address"
                }
            ]
        },
        {
            "type": "error",
            "name": "ERC721InvalidSender",
            "inputs": [
                {
                    "name": "sender",
                    "type": "address",
                    "internalType": "address"
                }
            ]
        },
        {
            "type": "error",
            "name": "ERC721NonexistentToken",
            "inputs": [
                {
                    "name": "tokenId",
                    "type": "uint256",
                    "internalType": "uint256"
                }
            ]
        },
        {
            "type": "error",
            "name": "FactoryAlreadySet",
            "inputs": []
        },
        {
            "type": "error",
            "name": "NotTokenOwner",
            "inputs": []
        },
        {
            "type": "error",
            "name": "OnlyFactory",
            "inputs": []
        },
        {
            "type": "error",
            "name": "OwnableInvalidOwner",
            "inputs": [
                {
                    "name": "owner",
                    "type": "address",
                    "internalType": "address"
                }
            ]
        },
        {
            "type": "error",
            "name": "OwnableUnauthorizedAccount",
            "inputs": [
                {
                    "name": "account",
                    "type": "address",
                    "internalType": "address"
                }
            ]
        },
        {
            "type": "error",
            "name": "StringsInsufficientHexLength",
            "inputs": [
                {
                    "name": "value",
                    "type": "uint256",
                    "internalType": "uint256"
                },
                {
                    "name": "length",
                    "type": "uint256",
                    "internalType": "uint256"
                }
            ]
        },
        {
            "type": "error",
            "name": "VaultAlreadyHasNFT",
            "inputs": []
        },
        {
            "type": "error",
            "name": "VaultAlreadySet",
            "inputs": []
        },
        {
            "type": "error",
            "name": "ZeroAddress",
            "inputs": []
        }
    ],
    "bytecode": {
        "object": "0x608034620003b1576001600160401b0390601f90601f1990620020bb388190038481018416830186811184821017620003b557839282916040528339602092839181010312620003b157516001600160a01b038082169590949091869003620003b1576200006c620003c9565b92601184527015985d5b1d0813585b9859d95c88139195607a1b8185015262000094620003c9565b90600495868352633b26a3a960e11b8284015285518581116200039e575f54966001978881811c9116801562000393575b8582101462000380579081878493116200032d575b508490878311600114620002cd575f92620002c1575b50505f19600383901b1c191690871b175f555b8251948511620002ae5785548681811c91168015620002a3575b83821014620002905790818587969594931162000237575b5081938511600114620001d35750505f92620001c7575b50505f19600383901b1c191690821b1790555b8215620001b05750600680546001600160a01b031981168417909155167f8be0079c531659141344cd1fd0a4f28419497f9722a3daafe3b4186f6b6457e05f80a3604051611cd19081620003ea8239f35b6024905f60405191631e4fbdf760e01b8352820152fd5b015190505f806200014c565b86959392919316855f52835f20935f905b8282106200021d575050841162000204575b505050811b0190556200015f565b01515f1960f88460031b161c191690555f8080620001f6565b8484015186558897909501949384019390810190620001e4565b909192939450865f52825f208580880160051c82019285891062000286575b9188978a9297969594930160051c01915b8281106200027757505062000135565b5f815588975089910162000267565b9250819262000256565b602288634e487b7160e01b5f525260245ffd5b90607f16906200011d565b604187634e487b7160e01b5f525260245ffd5b015190505f80620000f0565b90848a9416915f8052865f20925f5b88828210620003165750508411620002fd575b505050811b015f5562000103565b01515f1960f88460031b161c191690555f8080620002ef565b8385015186558d97909501949384019301620002dc565b9091505f8052845f208780850160051c82019287861062000376575b918b91869594930160051c01915b82811062000367575050620000da565b5f81558594508b910162000357565b9250819262000349565b60228a634e487b7160e01b5f525260245ffd5b90607f1690620000c5565b604188634e487b7160e01b5f525260245ffd5b5f80fd5b634e487b7160e01b5f52604160045260245ffd5b60408051919082016001600160401b03811183821017620003b55760405256fe608060409080825260049081361015610016575f80fd5b5f3560e01c90816301ffc9a7146113ea5750806306fdde031461133d578063081812fc14611304578063095ea7b31461122857806318160ddd1461120a57806318f9be00146111da5780631dbb91511461111757806323b872dd146111005780632ef0e1ca146110ca57806342842e0e146110a257806342966c6814610fc157806342d19ef414610f8a578063433b3c4e14610f6057806355f804b314610d6f5780635bb4780814610cdc5780636352211e14610cbd5780636c0360eb14610c8d5780636ffc87371461098157806370a082311461092c578063715018a6146108d15780638da5cb5b146108a957806395d89b41146107d55780639acc31891461079f578063a22cb46514610703578063b88d4fde1461067c578063c45a015514610654578063c87b56dd14610239578063e985e9c5146101eb5763f2fde38b1461015f575f80fd5b346101e75760203660031901126101e75761017861149a565b90610181611ad0565b6001600160a01b039182169283156101d1575050600654826001600160601b0360a01b821617600655167f8be0079c531659141344cd1fd0a4f28419497f9722a3daafe3b4186f6b6457e05f80a3005b905f6024925191631e4fbdf760e01b8352820152fd5b5f80fd5b82346101e757806003193601126101e75760209061020761149a565b61020f6114b0565b9060018060a01b038091165f5260058452825f2091165f52825260ff815f20541690519015158152f35b50346101e757602090816003193601126101e757803561025881611a96565b50805f526008835260018060a01b03845f20541691600a90600a855261027f865f20611664565b935f9392837a184f03e93ff9f4daa797ed6e38ed64bf6a1f0100000000000000008181811015610646575b5050600a90886d04ee2d6d415b85acef81000000008083101561063a575b5050662386f26fc100008082101561062d575b506305f5e10080821015610620575b508461271080831015610614575b50506064811015610606575b10156105fc575b60019384602161031d60018901611afc565b97880101905b6105ce575b505081159050610574578087519361033f85611563565b602a855287850189368237855115610561576030905384516001101561054e57607860218601536029905b8082116104e25750506104c55750509161045c6075610461936104c195935b88519485927f7b226e616d65223a225661756c74204d616e61676572202300000000000000008a8501526103c6815180928c603888019101611454565b83017f222c226465736372697074696f6e223a224d616e6167656d656e74207269676860388201526f03a39903337b9103b30bab63a1030ba160851b605882015261041a825180938c606885019101611454565b016a11161134b6b0b3b2911d1160a91b6068820152610442825180938b607385019101611454565b0161227d60f01b607382015203605581018452018261157f565b611b2e565b926104b2603d825180967f646174613a6170706c69636174696f6e2f6a736f6e3b6261736536342c000000878301526104a281518092898686019101611454565b810103601d81018752018561157f565b51928284938452830190611475565b0390f35b865163e22e27eb60e01b8152918201526014602482015260449150fd5b9091600f8116601081101561053b57865184101561053b576f181899199a1a9b1b9c1cb0b131b232b360811b901a8684018a0153841c918015610528575f19019061036a565b601185634e487b7160e01b5f525260245ffd5b603286634e487b7160e01b5f525260245ffd5b603284634e487b7160e01b5f525260245ffd5b603285634e487b7160e01b5f525260245ffd5b50855191508186019067ffffffffffffffff8211838310176105bb57506075610461936104c1959361045c938952600781526670656e64696e6760c81b8882015293610389565b604190634e487b7160e01b5f525260245ffd5b5f19019082906f181899199a1a9b1b9c1cb0b131b232b360811b8282061a8353049085826103235750610328565b936001019361030b565b606460029104960195610304565b9701969004845f6102f8565b600891049601955f6102ea565b601091049601955f6102db565b9701969004885f6102c8565b8a9750049050600a5f6102aa565b82346101e7575f3660031901126101e757600b5490516001600160a01b039091168152602090f35b5090346101e75760803660031901126101e75761069761149a565b61069f6114b0565b6064359367ffffffffffffffff85116101e757366023860112156101e7578401356106d56106cc82611732565b9451948561157f565b80845236602482870101116101e7576020815f926024610701980183880137850101526044359161194a565b005b5090346101e757806003193601126101e75761071d61149a565b90602435918215158093036101e7576001600160a01b031692831561078a5750335f526005602052805f20835f52602052805f2060ff1981541660ff8416179055519081527f17307eab39ab6107e8899845ad3d59bd9653f200f220920489ca2b5937696c3160203392a3005b836024925191630b61174360e31b8352820152fd5b82346101e75760203660031901126101e7576020906107c46107bf61149a565b61191c565b90516001600160a01b039091168152f35b82346101e7575f3660031901126101e7578051905f9082600192600154936107fc856114fb565b90818452602095866001821691825f1461088757505060011461082c575b50506104c192916104b291038561157f565b9085925060015f527fb10e2d527612073b26eecdfd717e6a320cf44b4afac2b0732d9fcbe2b7fa0cf6915f925b82841061086f57505050820101816104b261081a565b8054848a018601528895508794909301928101610859565b60ff19168682015292151560051b850190920192508391506104b2905061081a565b82346101e7575f3660031901126101e75760065490516001600160a01b039091168152602090f35b346101e7575f3660031901126101e7576108e9611ad0565b600680546001600160a01b031981169091555f906001600160a01b03167f8be0079c531659141344cd1fd0a4f28419497f9722a3daafe3b4186f6b6457e08280a3005b5090346101e75760203660031901126101e7576001600160a01b0361094f61149a565b16801561096b57602092505f5260038252805f20549051908152f35b81516322718ad960e21b81525f81850152602490fd5b5090346101e75760603660031901126101e75761099c61149a565b916109a56114b0565b67ffffffffffffffff926044358481116101e7576109c69036908501611704565b600b5491966001600160a01b039283163303610c7d578216938415610c6d57821695861515918280610c59575b610c49576007545f1990818114610c365760029a6001809201998a6007558a5f528a60209d8e99818b528b5f205416998a15159283610c05575b508c5f52600381528b5f208681540190558d5f52528b8b8b5f209a6001600160601b0360a01b9b828d8254161790557fddf252ad1be2c89b69c2b068fc378daa952ba7f163c4a11628f55a4df523b3ef5f80a4610bef578a5f52600a8d52885f209585116105bb5750908b939291610aa586546114fb565b601f8111610b9c575b505f90601f8511600114610b3857849550908492915f95610b2d575b50501b9260031b1c19161790555b610b09575b505192827fa8f07c36df17132f82b2cce9d69bbe3f6804e3e80dd5ad7c358ddeead6784d565f80a48152f35b835f526008865284825f2091825416179055835f526009855282815f20555f610add565b013593505f80610aca565b91949284601f198116885f52855f20955f905b89838310610b825750505010610b6a575b50505050811b019055610ad8565b60f88560031b161c199101351690555f808080610b5c565b878701358955909701969485019488935090810190610b4b565b865f96929394959652815f2090601f870160051c8201928710610be5575b90601f8f9796959493920160051c01905b818110610bd85750610aae565b5f81558e96508301610bcb565b9091508190610bba565b6024905f8a51916339e3563760e11b8352820152fd5b5f90815260046020526040902080546001600160a01b03191690558a5f52600381528b5f208781540190558d610a2d565b601189634e487b7160e01b5f525260245ffd5b845163a52dea5960e01b81528790fd5b50875f526009602052845f205415156109f3565b835163d92e233d60e01b81528690fd5b8351630636a15760e11b81528690fd5b82346101e7575f3660031901126101e7576104c190610caa6115a1565b9051918291602083526020830190611475565b5090346101e75760203660031901126101e7576107c460209235611a96565b5090346101e75760203660031901126101e757610cf761149a565b610cff611ad0565b6001600160a01b03908116918215610d6057600b54918216610d5157506001600160a01b0319168117600b557f1edf3afd4ac789736e00d216cd88be164ddcef26a6eedcc30cdb0cb62f3741b15f80a2005b516302a98a3760e31b81528390fd5b5163d92e233d60e01b81528390fd5b5090346101e7576020806003193601126101e75767ffffffffffffffff9183358381116101e757610da39036908601611704565b94610dac611ad0565b610db46115a1565b9486116105bb5750610dc7600c546114fb565b601f8111610efe575b505f94601f8111600114610e5f57807f309b29ded109b9e28fb9885757b3e0096eb75c51d23aa4635d68bcd569f6adc1965f91610e54575b508160011b905f198360031b1c191617600c555b80610e308451968588968752860190611475565b9284840386860152818452858401375f828201850152601f01601f191601030190a1005b90508201355f610e08565b601f19811695600c5f527fdf6966c971051c3d54ec59162606531493a51404a002842f56009d7e5cf4a8c7905f5b888110610ee75750827f309b29ded109b9e28fb9885757b3e0096eb75c51d23aa4635d68bcd569f6adc19810610ece575b5050600181811b01600c55610e1c565b8301355f19600384901b60f8161c191690555f80610ebe565b909186600181928588013581550193019101610e8d565b600c5f527fdf6966c971051c3d54ec59162606531493a51404a002842f56009d7e5cf4a8c7601f870160051c810191858810610f56575b601f0160051c01905b818110610f4b5750610dd0565b5f8155600101610f3e565b9091508190610f35565b5090346101e75760203660031901126101e7576104c191355f52600a602052610caa815f20611664565b82346101e75760203660031901126101e7576020906001600160a01b03610faf61149a565b165f5260098252805f20549051908152f35b50346101e75760203660031901126101e7578035610fde81611a96565b6001600160a01b0390339082160361109257815f526002602052835f205416815f8215928315611060575b828252600260205286822080546001600160a01b03191690557fddf252ad1be2c89b69c2b068fc378daa952ba7f163c4a11628f55a4df523b3ef8280a461104c57005b6024925191637e27328960e01b8352820152fd5b5f83815260046020526040902080546001600160a01b0319169055808252600360205286822082198154019055611009565b83516359dc379f60e01b81528390fd5b82346101e757610701906110b5366114c6565b919251926110c284611533565b5f845261194a565b82346101e757806003193601126101e7576020906110f76110e961149a565b6110f16114b0565b906118e4565b90519015158152f35b346101e757610701611111366114c6565b9161174e565b5090346101e757806003193601126101e7578135916111346114b0565b600b546001600160a01b03929190831633036111cb5782169182156111bc57845f526008602052835f2054166111ae57815f526009602052825f20546111a05750825f526008602052815f20816001600160601b0360a01b8254161790555f5260096020525f20555f80f35b825163a52dea5960e01b8152fd5b8251631bb0ddfb60e01b8152fd5b50825163d92e233d60e01b8152fd5b508251630636a15760e11b8152fd5b5090346101e75760203660031901126101e757602091355f526008825260018060a01b03815f2054169051908152f35b82346101e7575f3660031901126101e7576020906007549051908152f35b5090346101e757806003193601126101e75761124261149a565b9160243561124f81611a96565b331515806112f1575b806112ca575b6112b4576001600160a01b039485169482918691167f8c5be1e5ebec7d5bd14f71427d1e84f3dd0314c0f7b2291e5b200ac8c7c3b9255f80a45f526020525f20906001600160601b0360a01b8254161790555f80f35b835163a9fbf51f60e01b81523381850152602490fd5b5060018060a01b0381165f526005602052835f20335f5260205260ff845f2054161561125e565b506001600160a01b038116331415611258565b5090346101e75760203660031901126101e757816020923561132581611a96565b505f52825260018060a01b03815f2054169051908152f35b82346101e7575f3660031901126101e7578051905f90825f5492611360846114fb565b808352602094600190866001821691825f146108875750506001146113915750506104c192916104b291038561157f565b5f80805286935091907f290decd9548b62a8d60345a988386fc84ba6bc95484008f6362f93160ef3e5635b8284106113d257505050820101816104b261081a565b8054848a0186015288955087949093019281016113bc565b82346101e75760203660031901126101e757359063ffffffff60e01b82168092036101e7576020916380ac58cd60e01b8114908115611443575b8115611432575b5015158152f35b6301ffc9a760e01b1490508361142b565b635b5e139f60e01b81149150611424565b5f5b8381106114655750505f910152565b8181015183820152602001611456565b9060209161148e81518092818552858086019101611454565b601f01601f1916010190565b600435906001600160a01b03821682036101e757565b602435906001600160a01b03821682036101e757565b60609060031901126101e7576001600160a01b039060043582811681036101e7579160243590811681036101e7579060443590565b90600182811c92168015611529575b602083101461151557565b634e487b7160e01b5f52602260045260245ffd5b91607f169161150a565b6020810190811067ffffffffffffffff82111761154f57604052565b634e487b7160e01b5f52604160045260245ffd5b6060810190811067ffffffffffffffff82111761154f57604052565b90601f8019910116810190811067ffffffffffffffff82111761154f57604052565b604051905f82600c54916115b4836114fb565b8083529260209060019081811690811561164057506001146115e1575b50506115df9250038361157f565b565b915092600c5f527fdf6966c971051c3d54ec59162606531493a51404a002842f56009d7e5cf4a8c7935f925b82841061162857506115df9450505081016020015f806115d1565b8554888501830152948501948794509281019261160d565b915050602092506115df94915060ff191682840152151560051b8201015f806115d1565b9060405191825f8254611676816114fb565b908184526020946001916001811690815f146116e257506001146116a4575b5050506115df9250038361157f565b5f90815285812095935091905b8183106116ca5750506115df93508201015f8080611695565b855488840185015294850194879450918301916116b1565b925050506115df94925060ff191682840152151560051b8201015f8080611695565b9181601f840112156101e75782359167ffffffffffffffff83116101e757602083818601950101116101e757565b67ffffffffffffffff811161154f57601f01601f191660200190565b6001600160a01b0391821692909183156118cc57815f52602092600284528260409583875f205416953315158061183a575b5060029087611809575b825f5260038152885f2060018154019055835f5252865f20816001600160601b0360a01b825416179055857fddf252ad1be2c89b69c2b068fc378daa952ba7f163c4a11628f55a4df523b3ef5f80a416928383036117e85750505050565b6064945051926364283d7b60e01b8452600484015260248301526044820152fd5b5f84815260046020526040812080546001600160a01b03191690558881526003825289902080545f1901905561178a565b919250908061188b575b15611852579084915f611780565b86858761186f576024915190637e27328960e01b82526004820152fd5b604491519063177e802f60e01b82523360048301526024820152fd5b5033861480156118b0575b806118445750845f52600481523384885f20541614611844565b50855f5260058152865f20335f52815260ff875f205416611896565b604051633250574960e11b81525f6004820152602490fd5b6001600160a01b039081165f9081526009602052604090205480156119155761190d8291611a96565b921691161490565b5050505f90565b6001600160a01b03165f9081526009602052604090205480156119455761194290611a96565b90565b505f90565b919261195784838561174e565b813b611964575b50505050565b604051630a85bd0160e11b8082523360048301526001600160a01b039485166024830152604482019590955260806064820152602095939092169391908590829081906119b5906084830190611475565b03815f885af15f9181611a56575b50611a20575050503d5f14611a19573d6119dc81611732565b906119ea604051928361157f565b81523d5f8483013e5b80519283611a1457604051633250574960e11b815260048101849052602490fd5b019050fd5b60606119f3565b9193506001600160e01b031990911603611a3e57505f80808061195e565b60249060405190633250574960e11b82526004820152fd5b9091508581813d8311611a8f575b611a6e818361157f565b810103126101e757516001600160e01b0319811681036101e757905f6119c3565b503d611a64565b5f818152600260205260409020546001600160a01b0316908115611ab8575090565b60249060405190637e27328960e01b82526004820152fd5b6006546001600160a01b03163303611ae457565b60405163118cdaa760e01b8152336004820152602490fd5b90611b0682611732565b611b13604051918261157f565b8281528092611b24601f1991611732565b0190602036910137565b90815115611c875760405191611b4383611563565b604083527f4142434445464748494a4b4c4d4e4f505152535455565758595a61626364656660208401527f6768696a6b6c6d6e6f707172737475767778797a303132333435363738392b2f604084015280519260029160028501809511611c73576003948590046001600160fe1b0381168103611c7357611bc99060029694961b611afc565b9260208401928291835184019760208901928351945f85525b8a8110611c2657505050506003939495965052510680600114611c1457600214611c0a575090565b603d905f19015390565b50603d90815f19820153600119015390565b836004919b989b019a8b51600190603f9082828260121c16870101518453828282600c1c16870101518385015382828260061c168701015187850153168401015185820153019699611be2565b634e487b7160e01b5f52601160045260245ffd5b9050604051611c9581611533565b5f81529056fea2646970667358221220b2e9fec938fdf5591366324e4d1292775988f9e5262c6081c15ff9ab657616d164736f6c63430008180033",
        "linkReferences": {}
    },
    "methodIdentifiers": {
        "approve(address,uint256)": "095ea7b3",
        "balanceOf(address)": "70a08231",
        "baseURI()": "6c0360eb",
        "burn(uint256)": "42966c68",
        "factory()": "c45a0155",
        "getApproved(uint256)": "081812fc",
        "getVaultManager(address)": "9acc3189",
        "isApprovedForAll(address,address)": "e985e9c5",
        "isManager(address,address)": "2ef0e1ca",
        "mintManagerNFT(address,address,string)": "6ffc8737",
        "name()": "06fdde03",
        "owner()": "8da5cb5b",
        "ownerOf(uint256)": "6352211e",
        "renounceOwnership()": "715018a6",
        "safeTransferFrom(address,address,uint256)": "42842e0e",
        "safeTransferFrom(address,address,uint256,bytes)": "b88d4fde",
        "setApprovalForAll(address,bool)": "a22cb465",
        "setBaseURI(string)": "55f804b3",
        "setFactory(address)": "5bb47808",
        "setVaultAddress(uint256,address)": "1dbb9151",
        "supportsInterface(bytes4)": "01ffc9a7",
        "symbol()": "95d89b41",
        "tokenToVault(uint256)": "18f9be00",
        "tokenURI(uint256)": "c87b56dd",
        "totalSupply()": "18160ddd",
        "transferFrom(address,address,uint256)": "23b872dd",
        "transferOwnership(address)": "f2fde38b",
        "vaultImageURI(uint256)": "433b3c4e",
        "vaultToToken(address)": "42d19ef4"
    },
    "id": 50
}