{
  "abi": [
    {
      "type": "constructor",
      "inputs": [
        {
          "name": "_crtToken",
          "type": "address",
          "internalType": "address"
        },
        {
          "name": "_treasury",
          "type": "address",
          "internalType": "address"
        },
        {
          "name": "_buybackWallet",
          "type": "address",
          "internalType": "address"
        },
        {
          "name": "_owner",
          "type": "address",
          "internalType": "address"
        }
      ],
      "stateMutability": "nonpayable"
    },
    {
      "type": "function",
      "name": "BPS_DENOMINATOR",
      "inputs": [],
      "outputs": [
        {
          "name": "",
          "type": "uint256",
          "internalType": "uint256"
        }
      ],
      "stateMutability": "view"
    },
    {
      "type": "function",
      "name": "BURN_BPS",
      "inputs": [],
      "outputs": [
        {
          "name": "",
          "type": "uint256",
          "internalType": "uint256"
        }
      ],
      "stateMutability": "view"
    },
    {
      "type": "function",
      "name": "BUYBACK_BPS",
      "inputs": [],
      "outputs": [
        {
          "name": "",
          "type": "uint256",
          "internalType": "uint256"
        }
      ],
      "stateMutability": "view"
    },
    {
      "type": "function",
      "name": "TREASURY_BPS",
      "inputs": [],
      "outputs": [
        {
          "name": "",
          "type": "uint256",
          "internalType": "uint256"
        }
      ],
      "stateMutability": "view"
    },
    {
      "type": "function",
      "name": "buybackWallet",
      "inputs": [],
      "outputs": [
        {
          "name": "",
          "type": "address",
          "internalType": "address"
        }
      ],
      "stateMutability": "view"
    },
    {
      "type": "function",
      "name": "collectFees",
      "inputs": [
        {
          "name": "token",
          "type": "address",
          "internalType": "address"
        },
        {
          "name": "amount",
          "type": "uint256",
          "internalType": "uint256"
        }
      ],
      "outputs": [],
      "stateMutability": "nonpayable"
    },
    {
      "type": "function",
      "name": "crtToken",
      "inputs": [],
      "outputs": [
        {
          "name": "",
          "type": "address",
          "internalType": "contract CrtToken"
        }
      ],
      "stateMutability": "view"
    },
    {
      "type": "function",
      "name": "distributeCRTFees",
      "inputs": [],
      "outputs": [],
      "stateMutability": "nonpayable"
    },
    {
      "type": "function",
      "name": "distributeTokenFees",
      "inputs": [
        {
          "name": "token",
          "type": "address",
          "internalType": "address"
        }
      ],
      "outputs": [],
      "stateMutability": "nonpayable"
    },
    {
      "type": "function",
      "name": "emergencyWithdraw",
      "inputs": [
        {
          "name": "token",
          "type": "address",
          "internalType": "address"
        },
        {
          "name": "to",
          "type": "address",
          "internalType": "address"
        },
        {
          "name": "amount",
          "type": "uint256",
          "internalType": "uint256"
        }
      ],
      "outputs": [],
      "stateMutability": "nonpayable"
    },
    {
      "type": "function",
      "name": "getPendingFees",
      "inputs": [
        {
          "name": "token",
          "type": "address",
          "internalType": "address"
        }
      ],
      "outputs": [
        {
          "name": "",
          "type": "uint256",
          "internalType": "uint256"
        }
      ],
      "stateMutability": "view"
    },
    {
      "type": "function",
      "name": "owner",
      "inputs": [],
      "outputs": [
        {
          "name": "",
          "type": "address",
          "internalType": "address"
        }
      ],
      "stateMutability": "view"
    },
    {
      "type": "function",
      "name": "pendingFees",
      "inputs": [
        {
          "name": "",
          "type": "address",
          "internalType": "address"
        }
      ],
      "outputs": [
        {
          "name": "",
          "type": "uint256",
          "internalType": "uint256"
        }
      ],
      "stateMutability": "view"
    },
    {
      "type": "function",
      "name": "renounceOwnership",
      "inputs": [],
      "outputs": [],
      "stateMutability": "nonpayable"
    },
    {
      "type": "function",
      "name": "setBuybackWallet",
      "inputs": [
        {
          "name": "_buybackWallet",
          "type": "address",
          "internalType": "address"
        }
      ],
      "outputs": [],
      "stateMutability": "nonpayable"
    },
    {
      "type": "function",
      "name": "setTreasury",
      "inputs": [
        {
          "name": "_treasury",
          "type": "address",
          "internalType": "address"
        }
      ],
      "outputs": [],
      "stateMutability": "nonpayable"
    },
    {
      "type": "function",
      "name": "transferOwnership",
      "inputs": [
        {
          "name": "newOwner",
          "type": "address",
          "internalType": "address"
        }
      ],
      "outputs": [],
      "stateMutability": "nonpayable"
    },
    {
      "type": "function",
      "name": "treasury",
      "inputs": [],
      "outputs": [
        {
          "name": "",
          "type": "address",
          "internalType": "address"
        }
      ],
      "stateMutability": "view"
    },
    {
      "type": "event",
      "name": "BuybackWalletUpdated",
      "inputs": [
        {
          "name": "oldWallet",
          "type": "address",
          "indexed": true,
          "internalType": "address"
        },
        {
          "name": "newWallet",
          "type": "address",
          "indexed": true,
          "internalType": "address"
        }
      ],
      "anonymous": false
    },
    {
      "type": "event",
      "name": "CRTFeesDistributed",
      "inputs": [
        {
          "name": "treasuryAmount",
          "type": "uint256",
          "indexed": false,
          "internalType": "uint256"
        },
        {
          "name": "buybackAmount",
          "type": "uint256",
          "indexed": false,
          "internalType": "uint256"
        },
        {
          "name": "burnAmount",
          "type": "uint256",
          "indexed": false,
          "internalType": "uint256"
        }
      ],
      "anonymous": false
    },
    {
      "type": "event",
      "name": "FeesCollected",
      "inputs": [
        {
          "name": "token",
          "type": "address",
          "indexed": true,
          "internalType": "address"
        },
        {
          "name": "amount",
          "type": "uint256",
          "indexed": false,
          "internalType": "uint256"
        },
        {
          "name": "from",
          "type": "address",
          "indexed": true,
          "internalType": "address"
        }
      ],
      "anonymous": false
    },
    {
      "type": "event",
      "name": "FeesDistributed",
      "inputs": [
        {
          "name": "token",
          "type": "address",
          "indexed": true,
          "internalType": "address"
        },
        {
          "name": "treasuryAmount",
          "type": "uint256",
          "indexed": false,
          "internalType": "uint256"
        },
        {
          "name": "buybackAmount",
          "type": "uint256",
          "indexed": false,
          "internalType": "uint256"
        }
      ],
      "anonymous": false
    },
    {
      "type": "event",
      "name": "OwnershipTransferred",
      "inputs": [
        {
          "name": "previousOwner",
          "type": "address",
          "indexed": true,
          "internalType": "address"
        },
        {
          "name": "newOwner",
          "type": "address",
          "indexed": true,
          "internalType": "address"
        }
      ],
      "anonymous": false
    },
    {
      "type": "event",
      "name": "TreasuryUpdated",
      "inputs": [
        {
          "name": "oldTreasury",
          "type": "address",
          "indexed": true,
          "internalType": "address"
        },
        {
          "name": "newTreasury",
          "type": "address",
          "indexed": true,
          "internalType": "address"
        }
      ],
      "anonymous": false
    },
    {
      "type": "error",
      "name": "AddressEmptyCode",
      "inputs": [
        {
          "name": "target",
          "type": "address",
          "internalType": "address"
        }
      ]
    },
    {
      "type": "error",
      "name": "AddressInsufficientBalance",
      "inputs": [
        {
          "name": "account",
          "type": "address",
          "internalType": "address"
        }
      ]
    },
    {
      "type": "error",
      "name": "FailedInnerCall",
      "inputs": []
    },
    {
      "type": "error",
      "name": "InsufficientBalance",
      "inputs": []
    },
    {
      "type": "error",
      "name": "OwnableInvalidOwner",
      "inputs": [
        {
          "name": "owner",
          "type": "address",
          "internalType": "address"
        }
      ]
    },
    {
      "type": "error",
      "name": "OwnableUnauthorizedAccount",
      "inputs": [
        {
          "name": "account",
          "type": "address",
          "internalType": "address"
        }
      ]
    },
    {
      "type": "error",
      "name": "SafeERC20FailedOperation",
      "inputs": [
        {
          "name": "token",
          "type": "address",
          "internalType": "address"
        }
      ]
    },
    {
      "type": "error",
      "name": "ZeroAddress",
      "inputs": []
    },
    {
      "type": "error",
      "name": "ZeroAmount",
      "inputs": []
    }
  ],
  "bytecode": {
    "object": "0x60a03461015b57601f610c3d38819003918201601f191683019291906001600160401b0384118385101761015f57816080928492604096875283398101031261015b5761004b81610173565b9061005860208201610173565b906060610066858301610173565b916001600160a01b0391829161007c9101610173565b1692831561014457815f549560018060a01b03199580878916175f5582895198167f8be0079c531659141344cd1fd0a4f28419497f9722a3daafe3b4186f6b6457e05f80a31694851561013557508116918215610124571692831561011357608052816001541617600155600254161760025551610ab5908161018882396080518181816104da015281816106da01526107db0152f35b845163d92e233d60e01b8152600490fd5b855163d92e233d60e01b8152600490fd5b63d92e233d60e01b8152600490fd5b8551631e4fbdf760e01b81525f6004820152602490fd5b5f80fd5b634e487b7160e01b5f52604160045260245ffd5b51906001600160a01b038216820361015b5756fe60806040818152600480361015610014575f80fd5b5f925f3560e01c9081631a17db671461077c575080631d0adc071461070957806320ed8a1d146106c657806325d2a3f31461068f5780634c25d197146106735780634e59daca146104bd57806361d027b314610494578063715018a61461043b5780638a718d54146104165780638da5cb5b146103ee578063a033fcd4146102f9578063a37a9fc0146102dc578063a4bf34ba146102a4578063deab8aea1461027b578063e1a452181461025e578063e63ea408146101f2578063f0f44260146101715763f2fde38b146100e6575f80fd5b3461016d57602036600319011261016d576100ff610796565b906101086108c4565b6001600160a01b039182169283156101575750505f54826001600160601b0360a01b8216175f55167f8be0079c531659141344cd1fd0a4f28419497f9722a3daafe3b4186f6b6457e05f80a380f35b51631e4fbdf760e01b8152908101849052602490fd5b8280fd5b503461016d57602036600319011261016d5761018b610796565b906101946108c4565b6001600160a01b039182169283156101e5575050600154826001600160601b0360a01b821617600155167f4ab5be82436d353e61ca18726e984e561f5c1cc7c6d38b29d2553c790434705a8380a380f35b5163d92e233d60e01b8152fd5b5091903461025a57606036600319011261025a5761020e610796565b90602435906001600160a01b03908183168084036102565761022e6108c4565b15610247575061024493945060443592166108ef565b80f35b5163d92e233d60e01b81528590fd5b5f80fd5b5080fd5b50503461025a578160031936011261025a57602090516127108152f35b50503461025a578160031936011261025a5760025490516001600160a01b039091168152602090f35b50503461025a57602036600319011261025a5760209181906001600160a01b036102cc610796565b1681526003845220549051908152f35b50503461025a578160031936011261025a57602090516103e88152f35b503461016d578160031936011261016d57610312610796565b916024359283156103e05781516323b872dd60e01b6020820152336024820152306044820152606480820186905281526001600160a01b0391909116929060a0810167ffffffffffffffff8111828210176103cd5783526103739084610955565b82855260036020528185208054918583018093116103ba575055519182527fbb64cfa7f75512208a9b73fb4034b028a5972cba07a53b641e16ba38571f133160203393a380f35b634e487b7160e01b875260119052602486fd5b604183634e487b7160e01b5f525260245ffd5b5051631f2a200560e01b8152fd5b50503461025a578160031936011261025a57905490516001600160a01b039091168152602090f35b833461043857602036600319011261043857610244610433610796565b6107cd565b80fd5b83346104385780600319360112610438576104546108c4565b5f80546001600160a01b0319811682556001600160a01b03167f8be0079c531659141344cd1fd0a4f28419497f9722a3daafe3b4186f6b6457e08280a380f35b50503461025a578160031936011261025a5760015490516001600160a01b039091168152602090f35b509034610256575f3660031901126102565760018060a01b0390817f000000000000000000000000000000000000000000000000000000000000000016805f526003602052815f2054938415610665575f828152600360205283812055611d4c850294611d4b198187040161065257612710809604956105dc808302908382040361063f579161055761055c9289969594049586926107ac565b6107ac565b948661062b575b8380610616575b5050846105ab575b867f8359cf820479caede6cb4bc7ac2d0373e2391b876d1f31ee42e67051d19a081c60608888888881519384526020840152820152a180f35b813b15610256575f80926024865180958193630852cd8d60e31b83528a878401525af1801561060c5715610572579091955067ffffffffffffffff82116105f9575081525f93816060610572565b604190634e487b7160e01b5f525260245ffd5b84513d5f823e3d90fd5b6106249160025416846108ef565b5f8361056a565b61063a878260015416856108ef565b610563565b601184634e487b7160e01b5f525260245ffd5b601182634e487b7160e01b5f525260245ffd5b8251631f2a200560e01b8152fd5b8234610256575f3660031901126102565760209051611d4c8152f35b8234610256576020366003190112610256576020906001600160a01b036106b4610796565b165f5260038252805f20549051908152f35b8234610256575f36600319011261025657517f00000000000000000000000000000000000000000000000000000000000000006001600160a01b03168152602090f35b503461025657602036600319011261025657610723610796565b9061072c6108c4565b6001600160a01b039182169283156101e5575050600254826001600160601b0360a01b821617600255167f36da8748d344842083f47c18719136f60f0bcd2b5e969f56da5fca1b866720175f80a3005b34610256575f36600319011261025657806105dc60209252f35b600435906001600160a01b038216820361025657565b919082039182116107b957565b634e487b7160e01b5f52601160045260245ffd5b6001600160a01b03908116907f0000000000000000000000000000000000000000000000000000000000000000811682146108c057815f52600360205260405f205480156108ae575f8381526003602052604081205561208d81029061208c19818304016107b9577f85da6ab72d2b48932522aea80adb8ca4fab6cdeb87bc2e7f6c03fd78d3b2100e926108686127106040940480936107ac565b908261089a575b8180610885575b505082519182526020820152a2565b6108939160025416876108ef565b5f81610876565b6108a9838260015416886108ef565b61086f565b604051631f2a200560e01b8152600490fd5b5050565b5f546001600160a01b031633036108d757565b60405163118cdaa760e01b8152336004820152602490fd5b60405163a9059cbb60e01b60208201526001600160a01b039092166024830152604480830193909352918152608081019167ffffffffffffffff8311828410176109415761093f92604052610955565b565b634e487b7160e01b5f52604160045260245ffd5b81516001600160a01b03909116915f91829160200182855af13d15610a10573d67ffffffffffffffff9182821161094157601f199160405192603f81601f840116011683019383851090851117610941576109be936040528252815f60203d92013e5b83610a1c565b80519081151591826109ec575b50506109d45750565b60249060405190635274afe760e01b82526004820152fd5b81925090602091810103126102565760200151801590811503610256575f806109cb565b6109be906060906109b8565b90610a435750805115610a3157805190602001fd5b604051630a12f52160e11b8152600490fd5b81511580610a76575b610a54575090565b604051639996b31560e01b81526001600160a01b039091166004820152602490fd5b50803b15610a4c56fea2646970667358221220abfbeb246196c09dee995fa857cdf7b40c8c001c45b45d9aa4719070adf21d1f64736f6c63430008180033",
    "linkReferences": {}
  },
  "methodIdentifiers": {
    "BPS_DENOMINATOR()": "e1a45218",
    "BURN_BPS()": "a37a9fc0",
    "BUYBACK_BPS()": "1a17db67",
    "TREASURY_BPS()": "4c25d197",
    "buybackWallet()": "deab8aea",
    "collectFees(address,uint256)": "a033fcd4",
    "crtToken()": "20ed8a1d",
    "distributeCRTFees()": "4e59daca",
    "distributeTokenFees(address)": "8a718d54",
    "emergencyWithdraw(address,address,uint256)": "e63ea408",
    "getPendingFees(address)": "a4bf34ba",
    "owner()": "8da5cb5b",
    "pendingFees(address)": "25d2a3f3",
    "renounceOwnership()": "715018a6",
    "setBuybackWallet(address)": "1d0adc07",
    "setTreasury(address)": "f0f44260",
    "transferOwnership(address)": "f2fde38b",
    "treasury()": "61d027b3"
  },
  "id": 45
}