{
  "abi": [
    {
      "type": "constructor",
      "inputs": [
        {
          "name": "_vaultImplementation",
          "type": "address",
          "internalType": "address"
        },
        {
          "name": "_swapRouter",
          "type": "address",
          "internalType": "address"
        },
        {
          "name": "_crtToken",
          "type": "address",
          "internalType": "address"
        },
        {
          "name": "_managerNFT",
          "type": "address",
          "internalType": "address"
        },
        {
          "name": "_feeCollector",
          "type": "address",
          "internalType": "address"
        }
      ],
      "stateMutability": "nonpayable"
    },
    {
      "type": "function",
      "name": "DEFAULT_POOL_FEE",
      "inputs": [],
      "outputs": [
        {
          "name": "",
          "type": "uint24",
          "internalType": "uint24"
        }
      ],
      "stateMutability": "view"
    },
    {
      "type": "function",
      "name": "TOTAL_WEIGHT_BPS",
      "inputs": [],
      "outputs": [
        {
          "name": "",
          "type": "uint256",
          "internalType": "uint256"
        }
      ],
      "stateMutability": "view"
    },
    {
      "type": "function",
      "name": "VAULT_CREATION_FEE",
      "inputs": [],
      "outputs": [
        {
          "name": "",
          "type": "uint256",
          "internalType": "uint256"
        }
      ],
      "stateMutability": "view"
    },
    {
      "type": "function",
      "name": "allVaults",
      "inputs": [
        {
          "name": "",
          "type": "uint256",
          "internalType": "uint256"
        }
      ],
      "outputs": [
        {
          "name": "",
          "type": "address",
          "internalType": "address"
        }
      ],
      "stateMutability": "view"
    },
    {
      "type": "function",
      "name": "createVault",
      "inputs": [
        {
          "name": "name",
          "type": "string",
          "internalType": "string"
        },
        {
          "name": "symbol",
          "type": "string",
          "internalType": "string"
        },
        {
          "name": "baseAsset",
          "type": "address",
          "internalType": "address"
        },
        {
          "name": "priceOracle",
          "type": "address",
          "internalType": "address"
        },
        {
          "name": "description",
          "type": "string",
          "internalType": "string"
        },
        {
          "name": "imageURI",
          "type": "string",
          "internalType": "string"
        },
        {
          "name": "portfolioTokens",
          "type": "address[]",
          "internalType": "address[]"
        },
        {
          "name": "amounts",
          "type": "uint256[]",
          "internalType": "uint256[]"
        }
      ],
      "outputs": [
        {
          "name": "vault",
          "type": "address",
          "internalType": "address"
        }
      ],
      "stateMutability": "nonpayable"
    },
    {
      "type": "function",
      "name": "createVaultWithBase",
      "inputs": [
        {
          "name": "name",
          "type": "string",
          "internalType": "string"
        },
        {
          "name": "symbol",
          "type": "string",
          "internalType": "string"
        },
        {
          "name": "baseAsset",
          "type": "address",
          "internalType": "address"
        },
        {
          "name": "priceOracle",
          "type": "address",
          "internalType": "address"
        },
        {
          "name": "description",
          "type": "string",
          "internalType": "string"
        },
        {
          "name": "imageURI",
          "type": "string",
          "internalType": "string"
        },
        {
          "name": "baseAmount",
          "type": "uint256",
          "internalType": "uint256"
        },
        {
          "name": "portfolioTokens",
          "type": "address[]",
          "internalType": "address[]"
        },
        {
          "name": "targetWeightsBps",
          "type": "uint256[]",
          "internalType": "uint256[]"
        }
      ],
      "outputs": [
        {
          "name": "vault",
          "type": "address",
          "internalType": "address"
        }
      ],
      "stateMutability": "nonpayable"
    },
    {
      "type": "function",
      "name": "crtToken",
      "inputs": [],
      "outputs": [
        {
          "name": "",
          "type": "address",
          "internalType": "contract CrtToken"
        }
      ],
      "stateMutability": "view"
    },
    {
      "type": "function",
      "name": "feeCollector",
      "inputs": [],
      "outputs": [
        {
          "name": "",
          "type": "address",
          "internalType": "contract FeeCollector"
        }
      ],
      "stateMutability": "view"
    },
    {
      "type": "function",
      "name": "getAllVaults",
      "inputs": [],
      "outputs": [
        {
          "name": "",
          "type": "address[]",
          "internalType": "address[]"
        }
      ],
      "stateMutability": "view"
    },
    {
      "type": "function",
      "name": "getAllVaultsCount",
      "inputs": [],
      "outputs": [
        {
          "name": "",
          "type": "uint256",
          "internalType": "uint256"
        }
      ],
      "stateMutability": "view"
    },
    {
      "type": "function",
      "name": "getVaultsByManager",
      "inputs": [
        {
          "name": "manager",
          "type": "address",
          "internalType": "address"
        }
      ],
      "outputs": [
        {
          "name": "",
          "type": "address[]",
          "internalType": "address[]"
        }
      ],
      "stateMutability": "view"
    },
    {
      "type": "function",
      "name": "getVaultsByManagerCount",
      "inputs": [
        {
          "name": "manager",
          "type": "address",
          "internalType": "address"
        }
      ],
      "outputs": [
        {
          "name": "",
          "type": "uint256",
          "internalType": "uint256"
        }
      ],
      "stateMutability": "view"
    },
    {
      "type": "function",
      "name": "isVault",
      "inputs": [
        {
          "name": "",
          "type": "address",
          "internalType": "address"
        }
      ],
      "outputs": [
        {
          "name": "",
          "type": "bool",
          "internalType": "bool"
        }
      ],
      "stateMutability": "view"
    },
    {
      "type": "function",
      "name": "managerNFT",
      "inputs": [],
      "outputs": [
        {
          "name": "",
          "type": "address",
          "internalType": "contract VaultManagerNFT"
        }
      ],
      "stateMutability": "view"
    },
    {
      "type": "function",
      "name": "swapRouter",
      "inputs": [],
      "outputs": [
        {
          "name": "",
          "type": "address",
          "internalType": "address"
        }
      ],
      "stateMutability": "view"
    },
    {
      "type": "function",
      "name": "vaultImplementation",
      "inputs": [],
      "outputs": [
        {
          "name": "",
          "type": "address",
          "internalType": "address"
        }
      ],
      "stateMutability": "view"
    },
    {
      "type": "function",
      "name": "vaultsByManager",
      "inputs": [
        {
          "name": "",
          "type": "address",
          "internalType": "address"
        },
        {
          "name": "",
          "type": "uint256",
          "internalType": "uint256"
        }
      ],
      "outputs": [
        {
          "name": "",
          "type": "address",
          "internalType": "address"
        }
      ],
      "stateMutability": "view"
    },
    {
      "type": "event",
      "name": "CreationFeeCollected",
      "inputs": [
        {
          "name": "amount",
          "type": "uint256",
          "indexed": false,
          "internalType": "uint256"
        }
      ],
      "anonymous": false
    },
    {
      "type": "event",
      "name": "VaultCreated",
      "inputs": [
        {
          "name": "vault",
          "type": "address",
          "indexed": true,
          "internalType": "address"
        },
        {
          "name": "manager",
          "type": "address",
          "indexed": true,
          "internalType": "address"
        },
        {
          "name": "baseAsset",
          "type": "address",
          "indexed": true,
          "internalType": "address"
        }
      ],
      "anonymous": false
    },
    {
      "type": "error",
      "name": "AddressEmptyCode",
      "inputs": [
        {
          "name": "target",
          "type": "address",
          "internalType": "address"
        }
      ]
    },
    {
      "type": "error",
      "name": "AddressInsufficientBalance",
      "inputs": [
        {
          "name": "account",
          "type": "address",
          "internalType": "address"
        }
      ]
    },
    {
      "type": "error",
      "name": "ArrayLengthMismatch",
      "inputs": []
    },
    {
      "type": "error",
      "name": "ERC1167FailedCreateClone",
      "inputs": []
    },
    {
      "type": "error",
      "name": "EmptyPortfolio",
      "inputs": []
    },
    {
      "type": "error",
      "name": "FailedInnerCall",
      "inputs": []
    },
    {
      "type": "error",
      "name": "InsufficientFee",
      "inputs": []
    },
    {
      "type": "error",
      "name": "InsufficientSwapOutput",
      "inputs": []
    },
    {
      "type": "error",
      "name": "InvalidWeights",
      "inputs": []
    },
    {
      "type": "error",
      "name": "SafeERC20FailedOperation",
      "inputs": [
        {
          "name": "token",
          "type": "address",
          "internalType": "address"
        }
      ]
    },
    {
      "type": "error",
      "name": "ZeroAddress",
      "inputs": []
    }
  ],
  "bytecode": {
    "object": "0x610120346200020357601f62001f2938819003918201601f1916830191906001600160401b0383118484101762000207578160a09285926040958652833981010312620002035762000051826200021b565b9162000060602082016200021b565b906200006e8382016200021b565b916200008b608062000083606085016200021b565b93016200021b565b926001600160a01b039086821615620001f25781831615620001f2578116928315620001f2578116938415620001f25716948515620001e15760805260a05260c05260e05261010091825251611cf8918262000231833960805182818161043a01528181610bce0152611146015260a0518281816104e201528181610797015281816108d501528181610b8901526111ee015260c05182818161021c01528181610283015281816102ef015281816104bf01528181610f5b01528181610fc20152818161102e015281816111cb0152611523015260e0518281816103fc0152818161050b01528181610557015281816105b501528181610c4c01528181611108015281816112170152818161126301526112c101525181818161025f015281816102aa015281816103310152818161049501528181610b4401528181610f9e01528181610fe90152818161107001526111a10152f35b845163d92e233d60e01b8152600490fd5b855163d92e233d60e01b8152600490fd5b5f80fd5b634e487b7160e01b5f52604160045260245ffd5b51906001600160a01b0382168203620002035756fe6080806040526004361015610012575f80fd5b5f905f3560e01c90816320ed8a1d14611511575080632ed39f28146114f557806333b93cf01461149e5780633b0d5d8b14610e5d578063652b9b4114610e1e57806371eead0014610da457806377cbfe6414610d805780639094a91e14610d0857806397331bf914610c7b578063a2fed51514610c36578063ac15fdef14610bfd578063bba48a9014610bb8578063c31c9c0714610b73578063c415b95c14610b2e578063c622cd8314610b11578063d490cdf8146100f85763e8620af1146100d9575f80fd5b346100f557806003193601126100f55760209054604051908152f35b80fd5b50346100f5576101203660031901126100f5576004356001600160401b0381116109ff5761012a9036906004016115a9565b906024356001600160401b038111610b0d5761014a9036906004016115a9565b610155929192611568565b938561015f61157e565b916084356001600160401b0381116107395761017f9036906004016115a9565b909160a4356001600160401b038111610b09576101a09036906004016115a9565b9290936001600160401b0360e43511610764576101c23660e4356004016115d6565b9990976001600160401b036101043511610b05576101e636610104356004016115d6565b6040516323b872dd60e01b8152336004820152306024820152681b1ae4d6e2ef5000006044820152909b919990602081606481857f00000000000000000000000000000000000000000000000000000000000000006001600160a01b03165af180156109f457610ad6575b506102a86001600160a01b037f00000000000000000000000000000000000000000000000000000000000000008116907f0000000000000000000000000000000000000000000000000000000000000000166118c4565b7f00000000000000000000000000000000000000000000000000000000000000006001600160a01b03163b156100f55760405163280cff3560e21b81526001600160a01b037f000000000000000000000000000000000000000000000000000000000000000081166004830152681b1ae4d6e2ef500000602483015282908290604490829084907f0000000000000000000000000000000000000000000000000000000000000000165af180156109f457610abe575b50507f61f5230b8ece17bf7cab8485e1da75b0366009ad74b636ea495d61a1022bd30a6020604051681b1ae4d6e2ef5000008152a18b15610aac578a8c03610a9a578e805b8c8b818410610a7a575050612710915003610a685760208f98978f986103db6103f79a60c435903090339060018060a01b0316611b56565b604051636ffc873760e01b8152998a92839233600485016116d1565b03818b7f00000000000000000000000000000000000000000000000000000000000000006001600160a01b03165af1968715610a5d578897610a26575b5061045e7f0000000000000000000000000000000000000000000000000000000000000000611af0565b9c6001600160a01b038e163b15610a225788958f95610536948a976040519a8b998a996374d3647b60e01b8b528a60018060a01b037f0000000000000000000000000000000000000000000000000000000000000000169960018060a01b037f000000000000000000000000000000000000000000000000000000000000000016997f00000000000000000000000000000000000000000000000000000000000000009560018060a01b037f0000000000000000000000000000000000000000000000000000000000000000169460043095016116fc565b0381836001600160a01b038d165af1908115610a17578391610a03575b50507f00000000000000000000000000000000000000000000000000000000000000006001600160a01b03163b156109ff57604051631dbb915160e01b815260048101919091526001600160a01b0387166024820152818180604481010381837f00000000000000000000000000000000000000000000000000000000000000006001600160a01b03165af180156109f4576109dc575b50506105f5846118ad565b926106036040519485611678565b84845261060f856118ad565b601f1901366020860137875b858110610768575050506001600160a01b0384163b1561076457604051631f75d52f60e01b815260606004820152928691849161065d916064840191906117ab565b9260031982850301602483015260208082519586815201910193835b8181106107485750503360448301529192509081900381836001600160a01b0387165af1801561073d57610725575b506020926106b5826117f1565b338152600184526106c98260408320611851565b6001600160a01b03828116808352600286526040808420805460ff191660011790555194909116913391907f897c133dfbfe1f6239e98b4ffd7e4f6c86a62350a131a7a37790419f58af02f99080a46001600160a01b03168152f35b61072f849161164a565b610739575f6106a8565b8280fd5b6040513d86823e3d90fd5b855183526020958601958a955087945090920191600101610679565b8580fd5b610773818385611787565b3560c4358160c4350204811460c4351517156109c8576107c561271060c4358302047f00000000000000000000000000000000000000000000000000000000000000006001600160a01b038c16611a37565b6107d86107d3838988611787565b611797565b60405191826101008101106001600160401b03610100850111176109b45761271091610100840160405260018060a01b038c16845260018060a01b03166020840152610bb8604084015230606084015242608084015260c435020460a08201528960c08201528960e08201526040519063414bf38960e01b825260018060a01b03815116600483015260018060a01b03602082015116602483015262ffffff604082015116604483015260018060a01b0360608201511660648301526080810151608483015260a081015160a483015260c081015160c483015260e060018060a01b039101511660e4820152602081610104818d60018060a01b037f0000000000000000000000000000000000000000000000000000000000000000165af19081156109a9578a91610973575b50801561096157855182101561094d57600582901b86016020018190526001919061094790896001600160a01b036109416107d3868d8c611787565b16611a37565b0161061b565b634e487b7160e01b8a52603260045260248afd5b604051637716b74360e01b8152600490fd5b90506020813d6020116109a1575b8161098e60209383611678565b8101031261099d57515f610905565b5f80fd5b3d9150610981565b6040513d8c823e3d90fd5b634e487b7160e01b5f52604160045260245ffd5b634e487b7160e01b8a52601160045260248afd5b6109e59061164a565b6109f057865f6105ea565b8680fd5b6040513d84823e3d90fd5b5080fd5b610a0c9061164a565b6109ff57815f610553565b6040513d85823e3d90fd5b8880fd5b975095506020873d602011610a55575b81610a4360209383611678565b8101031261099d578d9651955f610434565b3d9150610a36565b6040513d8a823e3d90fd5b60405163108cef9d60e31b8152600490fd5b91610a8b84610a9293600195611787565b359061188c565b9101906103a3565b60405163512509d360e11b8152600490fd5b60405163372f11f360e21b8152600490fd5b610ac79061164a565b610ad2578e5f61035e565b8e80fd5b610af79060203d602011610afe575b610aef8183611678565b810190611699565b505f610251565b503d610ae5565b8780fd5b8480fd5b8380fd5b50346100f557806003193601126100f5576020604051610bb88152f35b50346100f557806003193601126100f5576040517f00000000000000000000000000000000000000000000000000000000000000006001600160a01b03168152602090f35b50346100f557806003193601126100f5576040517f00000000000000000000000000000000000000000000000000000000000000006001600160a01b03168152602090f35b50346100f557806003193601126100f5576040517f00000000000000000000000000000000000000000000000000000000000000006001600160a01b03168152602090f35b50346100f55760203660031901126100f5576020906040906001600160a01b03610c25611552565b168152600183522054604051908152f35b50346100f557806003193601126100f5576040517f00000000000000000000000000000000000000000000000000000000000000006001600160a01b03168152602090f35b50346100f557806003193601126100f55760405181548082528280526020808301937f290decd9548b62a8d60345a988386fc84ba6bc95484008f6362f93160ef3e56392915b828210610ce857610ce485610cd881890382611678565b60405191829182611606565b0390f35b83546001600160a01b031686529485019460019384019390910190610cc1565b50346100f55760203660031901126100f5576004359080548210156100f557505f54811015610d6c575f80527f290decd9548b62a8d60345a988386fc84ba6bc95484008f6362f93160ef3e56301546040516001600160a01b039091168152602090f35b634e487b7160e01b5f52603260045260245ffd5b50346100f557806003193601126100f5576020604051681b1ae4d6e2ef5000008152f35b50346100f5576020806003193601126109ff576001600160a01b039182610dc9611552565b16815260018060205260408220936040519081946020875493848152019685526020852094915b838310610e0757610ce487610cd8818b0382611678565b855481168852968101969484019491840191610df0565b50346100f55760203660031901126100f55760209060ff906040906001600160a01b03610e49611552565b168152600284522054166040519015158152f35b503461099d5761010036600319011261099d576001600160401b0360043581811161099d57610e909036906004016115a9565b9060243583811161099d57610ea99036906004016115a9565b9092610eb3611568565b94610ebc61157e565b9160843582811161099d57610ed59036906004016115a9565b909160a43584811161099d57610eef9036906004016115a9565b92909360c43586811161099d57610f0a9036906004016115d6565b99909660e43590811161099d57610f259036906004016115d6565b6040516323b872dd60e01b8152336004820152306024820152681b1ae4d6e2ef5000006044820152919a9099916020816064815f7f00000000000000000000000000000000000000000000000000000000000000006001600160a01b03165af180156114745761147f575b50610fe76001600160a01b037f00000000000000000000000000000000000000000000000000000000000000008116907f0000000000000000000000000000000000000000000000000000000000000000166118c4565b7f00000000000000000000000000000000000000000000000000000000000000006001600160a01b03163b1561099d5760405163280cff3560e21b81526001600160a01b037f000000000000000000000000000000000000000000000000000000000000000081166004830152681b1ae4d6e2ef50000060248301525f908290604490829084907f0000000000000000000000000000000000000000000000000000000000000000165af1801561147457611461575b507f61f5230b8ece17bf7cab8485e1da75b0366009ad74b636ea495d61a1022bd30a6020604051681b1ae4d6e2ef5000008152a18b15610aac57898c03610a9a5760208f989761110398604051998a928392636ffc873760e01b845233600485016116d1565b03818b7f00000000000000000000000000000000000000000000000000000000000000006001600160a01b03165af1968715610a5d57889761142a575b5061116a7f0000000000000000000000000000000000000000000000000000000000000000611af0565b9c6001600160a01b038e163b15610a225788958f95611242948a976040519a8b998a996374d3647b60e01b8b528a60018060a01b037f0000000000000000000000000000000000000000000000000000000000000000169960018060a01b037f000000000000000000000000000000000000000000000000000000000000000016997f00000000000000000000000000000000000000000000000000000000000000009560018060a01b037f0000000000000000000000000000000000000000000000000000000000000000169460043095016116fc565b0381836001600160a01b038d165af1908115610a17578391611416575b50507f00000000000000000000000000000000000000000000000000000000000000006001600160a01b03163b156109ff57604051631dbb915160e01b815260048101919091526001600160a01b0387166024820152818180604481010381837f00000000000000000000000000000000000000000000000000000000000000006001600160a01b03165af180156109f457611402575b50929190835b85811061139457506001600160a01b0386163b15610b0d57604051631f75d52f60e01b81526060600482015294611338916064870191906117ab565b848103600319016024860152818152906001600160fb1b038111610b0d578492602092849260051b80928583013733604484015201030181836001600160a01b0387165af1801561073d5761072557506020926106b5826117f1565b92935090916001906113cc6001600160a01b036113b56107d3848a88611787565b166113c1838789611787565b359030903390611b56565b6113f7828060a01b036113e36107d3848a88611787565b16886113f084888a611787565b3591611a37565b0190879392916112fc565b61140b9061164a565b6109f057865f6112f6565b61141f9061164a565b6109ff57815f61125f565b975095506020873d602011611459575b8161144760209383611678565b8101031261099d578d9651955f611140565b3d915061143a565b61146c919f5061164a565b5f9d5f61109d565b6040513d5f823e3d90fd5b6114979060203d602011610afe57610aef8183611678565b505f610f90565b3461099d57604036600319011261099d576114b7611552565b6024359060018060a01b038091165f52600160205260405f20805483101561099d576020926114e591611594565b9190546040519260031b1c168152f35b3461099d575f36600319011261099d5760206040516127108152f35b3461099d575f36600319011261099d577f00000000000000000000000000000000000000000000000000000000000000006001600160a01b03168152602090f35b600435906001600160a01b038216820361099d57565b604435906001600160a01b038216820361099d57565b606435906001600160a01b038216820361099d57565b8054821015610d6c575f5260205f2001905f90565b9181601f8401121561099d578235916001600160401b03831161099d576020838186019501011161099d57565b9181601f8401121561099d578235916001600160401b03831161099d576020808501948460051b01011161099d57565b60209060206040818301928281528551809452019301915f5b82811061162d575050505090565b83516001600160a01b03168552938101939281019260010161161f565b6001600160401b0381116109b457604052565b608081019081106001600160401b038211176109b457604052565b90601f801991011681019081106001600160401b038211176109b457604052565b9081602091031261099d5751801515810361099d5790565b908060209392818452848401375f828201840152601f01601f1916010190565b6001600160a01b0390911681525f60208201526060604082018190526116f9939101916116b1565b90565b809d9f9e9a93946101409d9795611728611736946117799c9f99969d9b9d6101608087528601916116b1565b9260208185039101526116b1565b958c60a0600180821b03809d819c8280998180991660408801521660608601526080850152169101521660c08c01521660e08a01528883036101008a01526116b1565b961661012085015216910152565b9190811015610d6c5760051b0190565b356001600160a01b038116810361099d5790565b9190808252602080920192915f5b8281106117c7575050505090565b9091929384359060018060a01b03821680920361099d5790815282019382019291906001016117b9565b5f54600160401b8110156109b45760018101805f55811015610d6c575f80527f290decd9548b62a8d60345a988386fc84ba6bc95484008f6362f93160ef3e5630180546001600160a01b0319166001600160a01b03909216919091179055565b8054600160401b8110156109b45761186e91600182018155611594565b60018060a09493941b038084549260031b9316831b921b1916179055565b9190820180921161189957565b634e487b7160e01b5f52601160045260245ffd5b6001600160401b0381116109b45760051b60200190565b604051636eb1769f60e11b81523060048201526001600160a01b0383811660248301819052939192919060209083168185604481845afa948515611474575f95611a08575b50681b1ae4d6e2ef50000085018095116118995760405163095ea7b360e01b8382018181526001600160a01b039095166024830152604482019690965294925f90819061196388606481015b03601f1981018a5289611678565b87519082855af190611973611c21565b826119d5575b50816119ca575b501561198e575b5050505050565b6119c0946119bb926040519283015260248201525f6044820152604481526119b58161165d565b82611bb0565b611bb0565b5f80808080611987565b90503b15155f611980565b8091925051908382159283156119f0575b505050905f611979565b611a009350820181019101611699565b5f83816119e6565b9094508181813d8311611a30575b611a208183611678565b8101031261099d5751935f611909565b503d611a16565b604051636eb1769f60e11b81523060048201526001600160a01b03808416602483018190529490831693916020918282604481895afa8015611474575f90611ac1575b611a84925061188c565b60405163095ea7b360e01b8382018181526001600160a01b03909516602483015260448201929092529490925f9081906119638860648101611955565b508282813d8311611ae9575b611ad78183611678565b8101031261099d57611a849151611a7a565b503d611acd565b6e5af43d82803e903d91602b57fd5bf390763d602d80600a3d3981f3363d3d373d3d3d363d7300000062ffffff8260881c16175f5260781b17602052603760095ff0906001600160a01b03821615611b4457565b6040516330be1a3d60e21b8152600490fd5b6040516323b872dd60e01b60208201526001600160a01b03928316602482015292909116604483015260648083019390935291815260a08101918183106001600160401b038411176109b457611bae92604052611bb0565b565b5f80611bd89260018060a01b03169360208151910182865af1611bd1611c21565b9083611c5f565b8051908115159182611c06575b5050611bee5750565b60249060405190635274afe760e01b82526004820152fd5b611c199250602080918301019101611699565b155f80611be5565b3d15611c5a573d906001600160401b0382116109b45760405191611c4f601f8201601f191660200184611678565b82523d5f602084013e565b606090565b90611c865750805115611c7457805190602001fd5b604051630a12f52160e11b8152600490fd5b81511580611cb9575b611c97575090565b604051639996b31560e01b81526001600160a01b039091166004820152602490fd5b50803b15611c8f56fea26469706673582212208774f4eadb9960b07e5e45e18ebdaec9dd683356e7114025965e5e5ef733880164736f6c63430008180033",
    "linkReferences": {}
  },
  "methodIdentifiers": {
    "DEFAULT_POOL_FEE()": "c622cd83",
    "TOTAL_WEIGHT_BPS()": "2ed39f28",
    "VAULT_CREATION_FEE()": "77cbfe64",
    "allVaults(uint256)": "9094a91e",
    "createVault(string,string,address,address,string,string,address[],uint256[])": "3b0d5d8b",
    "createVaultWithBase(string,string,address,address,string,string,uint256,address[],uint256[])": "d490cdf8",
    "crtToken()": "20ed8a1d",
    "feeCollector()": "c415b95c",
    "getAllVaults()": "97331bf9",
    "getAllVaultsCount()": "e8620af1",
    "getVaultsByManager(address)": "71eead00",
    "getVaultsByManagerCount(address)": "ac15fdef",
    "isVault(address)": "652b9b41",
    "managerNFT()": "a2fed515",
    "swapRouter()": "c31c9c07",
    "vaultImplementation()": "bba48a90",
    "vaultsByManager(address,uint256)": "33b93cf0"
  },
  "id": 53
}