{
  "abi": [
    {
      "type": "constructor",
      "inputs": [
        {
          "name": "_crtToken",
          "type": "address",
          "internalType": "address"
        },
        {
          "name": "_signer",
          "type": "address",
          "internalType": "address"
        }
      ],
      "stateMutability": "nonpayable"
    },
    {
      "type": "function",
      "name": "CLAIM_TYPEHASH",
      "inputs": [],
      "outputs": [
        {
          "name": "",
          "type": "bytes32",
          "internalType": "bytes32"
        }
      ],
      "stateMutability": "view"
    },
    {
      "type": "function",
      "name": "DOMAIN_SEPARATOR",
      "inputs": [],
      "outputs": [
        {
          "name": "",
          "type": "bytes32",
          "internalType": "bytes32"
        }
      ],
      "stateMutability": "view"
    },
    {
      "type": "function",
      "name": "DOMAIN_TYPEHASH",
      "inputs": [],
      "outputs": [
        {
          "name": "",
          "type": "bytes32",
          "internalType": "bytes32"
        }
      ],
      "stateMutability": "view"
    },
    {
      "type": "function",
      "name": "VERSION",
      "inputs": [],
      "outputs": [
        {
          "name": "",
          "type": "string",
          "internalType": "string"
        }
      ],
      "stateMutability": "view"
    },
    {
      "type": "function",
      "name": "claim",
      "inputs": [
        {
          "name": "totalEarned",
          "type": "uint256",
          "internalType": "uint256"
        },
        {
          "name": "nonce",
          "type": "uint256",
          "internalType": "uint256"
        },
        {
          "name": "signature",
          "type": "bytes",
          "internalType": "bytes"
        }
      ],
      "outputs": [],
      "stateMutability": "nonpayable"
    },
    {
      "type": "function",
      "name": "claimed",
      "inputs": [
        {
          "name": "",
          "type": "address",
          "internalType": "address"
        }
      ],
      "outputs": [
        {
          "name": "",
          "type": "uint256",
          "internalType": "uint256"
        }
      ],
      "stateMutability": "view"
    },
    {
      "type": "function",
      "name": "crtToken",
      "inputs": [],
      "outputs": [
        {
          "name": "",
          "type": "address",
          "internalType": "contract IERC20"
        }
      ],
      "stateMutability": "view"
    },
    {
      "type": "function",
      "name": "emergencyWithdraw",
      "inputs": [
        {
          "name": "token",
          "type": "address",
          "internalType": "address"
        },
        {
          "name": "amount",
          "type": "uint256",
          "internalType": "uint256"
        }
      ],
      "outputs": [],
      "stateMutability": "nonpayable"
    },
    {
      "type": "function",
      "name": "getCRTBalance",
      "inputs": [],
      "outputs": [
        {
          "name": "",
          "type": "uint256",
          "internalType": "uint256"
        }
      ],
      "stateMutability": "view"
    },
    {
      "type": "function",
      "name": "getClaimableAmount",
      "inputs": [
        {
          "name": "user",
          "type": "address",
          "internalType": "address"
        },
        {
          "name": "totalEarned",
          "type": "uint256",
          "internalType": "uint256"
        }
      ],
      "outputs": [
        {
          "name": "",
          "type": "uint256",
          "internalType": "uint256"
        }
      ],
      "stateMutability": "view"
    },
    {
      "type": "function",
      "name": "nonces",
      "inputs": [
        {
          "name": "",
          "type": "address",
          "internalType": "address"
        }
      ],
      "outputs": [
        {
          "name": "",
          "type": "uint256",
          "internalType": "uint256"
        }
      ],
      "stateMutability": "view"
    },
    {
      "type": "function",
      "name": "owner",
      "inputs": [],
      "outputs": [
        {
          "name": "",
          "type": "address",
          "internalType": "address"
        }
      ],
      "stateMutability": "view"
    },
    {
      "type": "function",
      "name": "renounceOwnership",
      "inputs": [],
      "outputs": [],
      "stateMutability": "nonpayable"
    },
    {
      "type": "function",
      "name": "signer",
      "inputs": [],
      "outputs": [
        {
          "name": "",
          "type": "address",
          "internalType": "address"
        }
      ],
      "stateMutability": "view"
    },
    {
      "type": "function",
      "name": "transferOwnership",
      "inputs": [
        {
          "name": "newOwner",
          "type": "address",
          "internalType": "address"
        }
      ],
      "outputs": [],
      "stateMutability": "nonpayable"
    },
    {
      "type": "function",
      "name": "updateSigner",
      "inputs": [
        {
          "name": "newSigner",
          "type": "address",
          "internalType": "address"
        }
      ],
      "outputs": [],
      "stateMutability": "nonpayable"
    },
    {
      "type": "event",
      "name": "Claimed",
      "inputs": [
        {
          "name": "user",
          "type": "address",
          "indexed": true,
          "internalType": "address"
        },
        {
          "name": "amount",
          "type": "uint256",
          "indexed": false,
          "internalType": "uint256"
        },
        {
          "name": "totalEarned",
          "type": "uint256",
          "indexed": false,
          "internalType": "uint256"
        }
      ],
      "anonymous": false
    },
    {
      "type": "event",
      "name": "EmergencyWithdraw",
      "inputs": [
        {
          "name": "token",
          "type": "address",
          "indexed": true,
          "internalType": "address"
        },
        {
          "name": "amount",
          "type": "uint256",
          "indexed": false,
          "internalType": "uint256"
        }
      ],
      "anonymous": false
    },
    {
      "type": "event",
      "name": "OwnershipTransferred",
      "inputs": [
        {
          "name": "previousOwner",
          "type": "address",
          "indexed": true,
          "internalType": "address"
        },
        {
          "name": "newOwner",
          "type": "address",
          "indexed": true,
          "internalType": "address"
        }
      ],
      "anonymous": false
    },
    {
      "type": "event",
      "name": "SignerUpdated",
      "inputs": [
        {
          "name": "oldSigner",
          "type": "address",
          "indexed": true,
          "internalType": "address"
        },
        {
          "name": "newSigner",
          "type": "address",
          "indexed": true,
          "internalType": "address"
        }
      ],
      "anonymous": false
    },
    {
      "type": "error",
      "name": "AddressEmptyCode",
      "inputs": [
        {
          "name": "target",
          "type": "address",
          "internalType": "address"
        }
      ]
    },
    {
      "type": "error",
      "name": "AddressInsufficientBalance",
      "inputs": [
        {
          "name": "account",
          "type": "address",
          "internalType": "address"
        }
      ]
    },
    {
      "type": "error",
      "name": "ECDSAInvalidSignature",
      "inputs": []
    },
    {
      "type": "error",
      "name": "ECDSAInvalidSignatureLength",
      "inputs": [
        {
          "name": "length",
          "type": "uint256",
          "internalType": "uint256"
        }
      ]
    },
    {
      "type": "error",
      "name": "ECDSAInvalidSignatureS",
      "inputs": [
        {
          "name": "s",
          "type": "bytes32",
          "internalType": "bytes32"
        }
      ]
    },
    {
      "type": "error",
      "name": "FailedInnerCall",
      "inputs": []
    },
    {
      "type": "error",
      "name": "InvalidAmount",
      "inputs": []
    },
    {
      "type": "error",
      "name": "InvalidSignature",
      "inputs": []
    },
    {
      "type": "error",
      "name": "InvalidSigner",
      "inputs": []
    },
    {
      "type": "error",
      "name": "InvalidToken",
      "inputs": []
    },
    {
      "type": "error",
      "name": "NothingToClaim",
      "inputs": []
    },
    {
      "type": "error",
      "name": "OwnableInvalidOwner",
      "inputs": [
        {
          "name": "owner",
          "type": "address",
          "internalType": "address"
        }
      ]
    },
    {
      "type": "error",
      "name": "OwnableUnauthorizedAccount",
      "inputs": [
        {
          "name": "account",
          "type": "address",
          "internalType": "address"
        }
      ]
    },
    {
      "type": "error",
      "name": "SafeERC20FailedOperation",
      "inputs": [
        {
          "name": "token",
          "type": "address",
          "internalType": "address"
        }
      ]
    }
  ],
  "bytecode": {
    "object": "0x60c0346101e4576001600160401b0390610dd990601f38839003908101601f19168201908482118383101761019957808391604095869485528339810103126101e457610057602061005083610203565b9201610203565b9033156101cd575f549160018060a01b03908160018060a01b03199333858716175f55865195823391167f8be0079c531659141344cd1fd0a4f28419497f9722a3daafe3b4186f6b6457e05f80a3169384156101be5750169182156101ad5760805260015416176001556011602082516100d0816101e8565b82815201702932bbb0b9322234b9ba3934b13aba37b960791b815220906001602082516100fc816101e8565b82815201603160f81b8152209080519160208301937f8b73c3c69bb8fe3d512ecc4cf759cc79239f7b179b0ffacaa9a75d522b39400f85528284015260608301524660808301523060a083015260a0825260c0820193828510908511176101995783905251902060a052610bc19081610218823960805181818161025d015281816106ac01526107a9015260a0518181816105c1015261074a0152f35b634e487b7160e01b5f52604160045260245ffd5b8351632057875960e21b8152600490fd5b63c1ab6dc160e01b8152600490fd5b8251631e4fbdf760e01b81525f6004820152602490fd5b5f80fd5b604081019081106001600160401b0382111761019957604052565b51906001600160a01b03821682036101e45756fe6080604081815260049182361015610015575f80fd5b5f3560e01c90816320606b70146107d85750806320ed8a1d14610795578063238ac9331461076d5780633644e515146107335780635eddd157146104ec5780636b0509b1146104b2578063715018a61461045b5780637ecebe00146104245780638da5cb5b146103fd57806395ccea6714610392578063a7ecd37e1461030c578063b3743f60146102dd578063b82c224614610230578063c884ef83146101f9578063f2fde38b1461016c5763ffa1ad74146100cf575f80fd5b34610168575f366003190112610168578051918183019083821067ffffffffffffffff83111761015557508152600182526020603160f81b60208401528151928391602083528151918260208501525f5b83811061013f5750505f83830185015250601f01601f19168101030190f35b8181018301518782018701528694508201610120565b604190634e487b7160e01b5f525260245ffd5b5f80fd5b50903461016857602036600319011261016857610187610810565b906101906109b3565b6001600160a01b039182169283156101e35750505f54826bffffffffffffffffffffffff60a01b8216175f55167f8be0079c531659141344cd1fd0a4f28419497f9722a3daafe3b4186f6b6457e05f80a3005b905f6024925191631e4fbdf760e01b8352820152fd5b5034610168576020366003190112610168576020906001600160a01b0361021e610810565b165f5260028252805f20549051908152f35b5034610168575f3660031901126101685780516370a0823160e01b815230928101929092526020826024817f00000000000000000000000000000000000000000000000000000000000000006001600160a01b03165afa9081156102d4575f9161029f575b6020925051908152f35b90506020823d6020116102cc575b816102ba60209383610856565b81010312610168576020915190610295565b3d91506102ad565b513d5f823e3d90fd5b50346101685780600319360112610168576020906103056102fc610810565b602435906108b5565b9051908152f35b50903461016857602036600319011261016857610327610810565b906103306109b3565b6001600160a01b03918216928315610385575050600154826bffffffffffffffffffffffff60a01b821617600155167f2d025324f0a785e8c12d0a0d91a9caa49df4ef20ff87e0df7213a1d4f3157beb5f80a3005b51632057875960e21b8152fd5b50346101685780600319360112610168577f5fafa99d0643513820be26656b45130b01e1c03062e1266bf36f88cbd3bd969560206103ce610810565b92602435906103db6109b3565b5f546001600160a01b03958616956103f691849116876108e6565b51908152a2005b5034610168575f366003190112610168575f5490516001600160a01b039091168152602090f35b5034610168576020366003190112610168576020906001600160a01b03610449610810565b165f5260038252805f20549051908152f35b34610168575f366003190112610168576104736109b3565b5f80546001600160a01b0319811682556001600160a01b03167f8be0079c531659141344cd1fd0a4f28419497f9722a3daafe3b4186f6b6457e08280a3005b5034610168575f36600319011261016857602090517f6571d72c80cc61ba45456c143dcef572ac34e9662b32a3dee8aee553b950a91d8152f35b50346101685760603660031901126101685767ffffffffffffffff908235604435602435848211610168573660238301121561016857818601359085821161016857366024838501011161016857335f5260209560038752855f2054820361072357855191878301907f6571d72c80cc61ba45456c143dcef572ac34e9662b32a3dee8aee553b950a91d8252338885015286606085015260808401526080835260a083019183831090831117610710578761062b9593835f9361062297958b528251902060e260c084019361190160f01b85527f000000000000000000000000000000000000000000000000000000000000000060c28201520152604281526105f481610826565b5190209280602461060482610878565b966106118c519889610856565b8288520183870137840101526109de565b90929192610a18565b6001546001600160a01b0390811691160361070057335f5260028352815f2054808211156106f05761065d9082610894565b92335f526002815281835f205560038152825f208054955f1987146106dd575060017f987d620f307ff6b94d58743cb7a7509f24071586a77759b77c2d4e29f75a2f9a95960190556106d085337f00000000000000000000000000000000000000000000000000000000000000006108e6565b82519485528401523392a2005b601190634e487b7160e01b5f525260245ffd5b82516312d37ee560e31b81528590fd5b8151638baa579f60e01b81528490fd5b604189634e487b7160e01b5f525260245ffd5b8551638baa579f60e01b81528890fd5b5034610168575f36600319011261016857602090517f00000000000000000000000000000000000000000000000000000000000000008152f35b5034610168575f3660031901126101685760015490516001600160a01b039091168152602090f35b5034610168575f36600319011261016857517f00000000000000000000000000000000000000000000000000000000000000006001600160a01b03168152602090f35b34610168575f36600319011261016857807f8b73c3c69bb8fe3d512ecc4cf759cc79239f7b179b0ffacaa9a75d522b39400f60209252f35b600435906001600160a01b038216820361016857565b6080810190811067ffffffffffffffff82111761084257604052565b634e487b7160e01b5f52604160045260245ffd5b90601f8019910116810190811067ffffffffffffffff82111761084257604052565b67ffffffffffffffff811161084257601f01601f191660200190565b919082039182116108a157565b634e487b7160e01b5f52601160045260245ffd5b6001600160a01b03165f90815260026020526040902054808211156108e0576108dd91610894565b90565b50505f90565b915f80916109599360405195602087019263a9059cbb60e01b845260018060a01b03809316602489015260448801526044875261092287610826565b1694519082865af13d156109ab573d9061093b82610878565b916109496040519384610856565b82523d5f602084013e5b83610b28565b8051908115159182610987575b505061096f5750565b60249060405190635274afe760e01b82526004820152fd5b81925090602091810103126101685760200151801590811503610168575f80610966565b606090610953565b5f546001600160a01b031633036109c657565b60405163118cdaa760e01b8152336004820152602490fd5b8151919060418303610a0e57610a079250602082015190606060408401519301515f1a90610a9b565b9192909190565b50505f9160029190565b6004811015610a875780610a2a575050565b60018103610a445760405163f645eedf60e01b8152600490fd5b60028103610a655760405163fce698f760e01b815260048101839052602490fd5b600314610a6f5750565b602490604051906335e2f38360e21b82526004820152fd5b634e487b7160e01b5f52602160045260245ffd5b91907f7fffffffffffffffffffffffffffffff5d576e7357a4501ddfe92f46681b20a08411610b1d579160209360809260ff5f9560405194855216868401526040830152606082015282805260015afa15610b12575f516001600160a01b03811615610b0857905f905f90565b505f906001905f90565b6040513d5f823e3d90fd5b5050505f9160039190565b90610b4f5750805115610b3d57805190602001fd5b604051630a12f52160e11b8152600490fd5b81511580610b82575b610b60575090565b604051639996b31560e01b81526001600160a01b039091166004820152602490fd5b50803b15610b5856fea264697066735822122017c9ae68eb14d55164a9ff0ab99e0654eeba7a3193fe7bf1d523bf7f55fab6ce64736f6c63430008180033",
    "linkReferences": {}
  },
  "methodIdentifiers": {
    "CLAIM_TYPEHASH()": "6b0509b1",
    "DOMAIN_SEPARATOR()": "3644e515",
    "DOMAIN_TYPEHASH()": "20606b70",
    "VERSION()": "ffa1ad74",
    "claim(uint256,uint256,bytes)": "5eddd157",
    "claimed(address)": "c884ef83",
    "crtToken()": "20ed8a1d",
    "emergencyWithdraw(address,uint256)": "95ccea67",
    "getCRTBalance()": "b82c2246",
    "getClaimableAmount(address,uint256)": "b3743f60",
    "nonces(address)": "7ecebe00",
    "owner()": "8da5cb5b",
    "renounceOwnership()": "715018a6",
    "signer()": "238ac933",
    "transferOwnership(address)": "f2fde38b",
    "updateSigner(address)": "a7ecd37e"
  },
  "id": 48
}